:100000000C94E5000C940D010C940D010C940D0161
:100010000C940D010C940D010C940D010C940D0128
:100020000C940D010C940D010C9418080C948A0882
:100030000C940D010C940D010C940D010C940D0108
:100040000C940D010C940D010C940D010C940D01F8
:100050000C940D010C940D010C940D010C94FE03F5
:100060000C940D010C940D010C940D010C940D01D8
:100070000C940D010C940D010C940D010C940D01C8
:100080000C940D010C940D010C940D010C940D01B8
:100090000C9448040C940D010C940D010C940D016A
:1000A0000C940D010C940D010C940D0123062606F1
:1000B000150619061D064706470647062A062E0698
:1000C000320638063C0647064206000000002400BF
:1000D00027002A002D003000080B00020202010058
:1000E000090400000102020000052400100105249B
:1000F000010101042402060524060001070581030D
:1001000010004009040100020A0000000705020275
:100110004000000705830240000004030904417207
:100120006475696E6F204C4C430041726475696E52
:100130006F204D6963726F001201000200000040E1
:100140004123378000010102030112010002EF0286
:10015000014041233780000101020301000000003B
:10016000250028002B002E003100040404040403A1
:100170000405020202020403020202020606060647
:10018000060604040202020404040802011040806E
:10019000401020408040800802040180402010026E
:1001A00001108010204040200000000200090F00D4
:1001B00000030401000C000000000000000000002B
:1001C0000000000000000000A10D11241FBECFEFB1
:1001D000DAE0DEBFCDBF11E0A0E0B1E0EEE8F1E291
:1001E00002C005900D92A836B107D9F722E0A8E623
:1001F000B1E001C01D92A63FB207E1F710E0C5EEE5
:10020000D0E004C02197FE010E94470EC43ED107F2
:10021000C9F70E94C70A0C94C5100C940000CF9235
:10022000DF92EF92FF920F931F93CF93DF936C01B6
:100230007A018B01C0E0D0E0CE15DF0589F0D8014E
:100240006D918D01D601ED91FC910190F081E02D31
:10025000C6010995892B11F47E0102C02196ECCFCD
:10026000C701DF91CF911F910F91FF90EF90DF9029
:10027000CF900895CF93DF931F92CDB7DEB76983F8
:10028000DC01ED91FC910280F381E02D41E050E032
:10029000BE016F5F7F4F09950F90DF91CF91089559
:1002A00083E08093E9008091F200882319F08AE3CB
:1002B0008093E8000895FC018485958597FD0BC027
:1002C0009FB7F89482E08093E9008091F2009FBF8D
:1002D00090E0019608959FB7F89482E08093E9003A
:1002E0008091F2009FBF90E008953FB7F89480910D
:1002F000B4019091B501A091B601B091B70126B5B6
:10030000A89B05C02F3F19F00196A11DB11D3FBF4D
:10031000BA2FA92F982F8827820F911DA11DB11DDB
:10032000BC01CD0142E0660F771F881F991F4A95D7
:10033000D1F708958F929F92AF92BF92CF92DF92A2
:10034000EF92FF926B017C010E9475014B015C01F1
:10035000C114D104E104F104F1F00E947501DC0143
:10036000CB0188199909AA09BB09883E9340A105C8
:10037000B10570F321E0C21AD108E108F10888EE56
:10038000880E83E0981EA11CB11CC114D104E104A5
:10039000F10419F7DDCFFF90EF90DF90CF90BF9081
:1003A000AF909F908F9008958F929F92AF92BF923F
:1003B000CF92DF92EF92FF920F931F93CF93DF9331
:1003C0005C016B018A0180910B01882309F45EC0F6
:1003D0008091E701882309F459C08091E40180FFEE
:1003E00005C08091E00082608093E000E8018AEF20
:1003F000F82E93E0E92E2FE3822E3AE3932E2097F6
:1004000009F43DC08FB7F894E092E9009091E800BC
:1004100095FF06C09091F200282D291B922F01C054
:1004200090E08FBF91110AC0FA94FF2079F161E04A
:1004300070E080E090E00E949A01E1CF292F30E047
:10044000C217D3070CF49C2F8FB7F894E092E90001
:100450002091E80025FF11C0292F30E0C21BD30BEB
:10046000F601915020F041914093F100FACFC20E75
:10047000D31E9091E80095FF13C08FBFC0CF5D9A47
:1004800084E68093E5011016110644F081E090E0C7
:10049000F5019383828380E090E005C0C80103C02A
:1004A0009092E800EACFDF91CF911F910F91FF90DA
:1004B000EF90DF90CF90BF90AF909F908F90089576
:1004C00085ED8093BC008091BC0084FDFCCF109230
:1004D0005002089540918A01262F30E0240F311DEB
:1004E00021323105DCF4209150022430C9F4FC01A2
:1004F00080E090E0861758F430918A012191DC0168
:10050000A859BE4FA30FB11D2C930196F3CF809134
:100510008A01680F60938A0180E0089581E0089560
:1005200082E008950895E091540280915302E81703
:1005300030F4F0E0E851FE4F808190E008958FEFB5
:100540009FEF08959091540280915302981750F4B0
:10055000E92FF0E0E851FE4F208130E09F5F90935B
:10056000540202C02FEF3FEFC9010895809153025A
:1005700090E020915402821B91090895CF92DF925E
:10058000EF92FF920F931F93CF93DF937C01262F5F
:10059000972F8A0180912C02882391F0C62FD72FA4
:1005A0006E01C40ED51ECC15DD0571F06991D70121
:1005B000ED91FC910190F081E02DC7010995F3CFF9
:1005C000642F822F0E946A02C801DF91CF911F9190
:1005D0000F91FF90EF90DF90CF900895CF93DF932E
:1005E0001F92CDB7DEB7698320912C022223D1F070
:1005F00020915102203240F021E030E0FC013383B1
:10060000228380E090E015C080915202E82FF0E054
:10061000E35DFD4F998190838F5F809352028093B9
:10062000510205C061E0CE0101960E946A0281E09C
:1006300090E00F90DF91CF910895CF93DF931F92B9
:10064000CDB7DEB7FC018485958597FD05C02FEFFA
:100650003FEF358724870BC0CE0101960E946607C5
:10066000019719F4898190E002C08FEF9FEF0F90FE
:10067000DF91CF9108950F931F93CF93DF931F9234
:10068000CDB7DEB78C01FC018485958597FF0EC040
:10069000CE0101960E946607019719F4298130E086
:1006A00002C02FEF3FEFF80135872487F8018485DA
:1006B00095850F90DF91CF911F910F9108950E9422
:1006C0004410CF93DF93FC01962F638174819130A6
:1006D00059F038F0923059F0933061F063687160EE
:1006E0000BC06368716408C06368716505C06368A6
:1006F000716602C063687167EB01D068808191E028
:1007000090932C0280934D0210925202109251024B
:1007100061E085EA92E00E94EE026D2F85EA92E0A8
:100720000E94EE026C2F85EA92E00E94EE0281E0C8
:10073000DF91CF910C947A064091E0015091E10154
:100740002091DE013091DF0142175307B4F49091FC
:10075000E8009570E1F39091E80092FD19C0809354
:10076000F1008091E0019091E10101968F7399274A
:10077000892B19F48EEF8093E8008091E00190912D
:10078000E10101969093E1018093E00181E00895F9
:1007900080E00895DF92EF92FF920F931F93CF9323
:1007A000DF93D82E8A017B01E40EF51EEB01CE15F6
:1007B000DF0571F0D7FE03C0FE01849101C088817E
:1007C0000E949C0321968111F2CF8FEF9FEF01C011
:1007D000C801DF91CF911F910F91FF90EF90DF90B3
:1007E0000895615030F02091F100FC0120830196C2
:1007F000F8CF289A84E68093E60108951F920F921D
:100800000FB60F9211242F933F938F939F93AF9323
:10081000BF938091B0019091B101A091B201B091CC
:10082000B3013091AF0123E0230F2D3720F401965F
:10083000A11DB11D05C026E8230F0296A11DB11D03
:100840002093AF018093B0019093B101A093B201C6
:10085000B093B3018091B4019091B501A091B6011C
:10086000B091B7010196A11DB11D8093B401909381
:10087000B501A093B601B093B701BF91AF919F911D
:100880008F913F912F910F900FBE0F901F90189551
:100890001F920F920FB60F9211242F933F934F93F5
:1008A0005F936F937F938F939F93AF93BF93EF93D8
:1008B000FF938091B900887F803609F49CC068F569
:1008C000883209F45BC090F4803109F454C038F4E4
:1008D000882309F4F6C0883009F44DC0F6C0883189
:1008E00009F44CC0803209F45DC0EFC0803409F4D3
:1008F00068C048F4803309F455C0883309F0E5C076
:1009000080932B02D8C0803509F44FC0883509F494
:100910005DC0883409F0D9C0D6C0883909F4C7C091
:10092000A8F4883709F467C038F4883609F463C03E
:10093000803709F460C0C9C0883809F4B8C080396C
:1009400009F45FC0803809F0C0C05BC0803B09F487
:1009500086C038F4803A09F466C0883A09F47FC04A
:10096000B4C0803C09F4A7C0883C09F4A4C0883B0B
:1009700009F48AC0AAC08091080210C090912A028E
:1009800080912902981770F5E0912A0281E08E0F7C
:1009900080932A02F0E0E75FFD4F80818093BB00E7
:1009A00085EC86C080932B028EC0E0912A0281E004
:1009B0008E0F80932A028091BB00F0E0E75FFD4F2D
:1009C000808390912A02809129026EC0E0912A02D0
:1009D00081E08E0F80932A028091BB00F0E0E75FF8
:1009E000FD4F808380914F0281116DC081E0809323
:1009F0004E0284EA61C083E0809350021092AE01FF
:100A0000CFCF8091AE01803208F051C0E091AE01AD
:100A100081E08E0F8093AE018091BB00F0E0E25741
:100A2000FE4F8083BDCF85EC8093BC0010925002B6
:100A30008091AE01803230F4E091AE01F0E0E257F7
:100A4000FE4F10826091AE0170E0E0918C01F09158
:100A50008D018EE891E009951092AE0136C084E0D8
:100A60008093500210928B0110928A01E0918801CC
:100A7000F0918901099580918A01811105C081E079
:100A800080938A0110926801E0918B0181E08E0FC2
:100A900080938B01F0E0E859FE4F80818093BB008A
:100AA00090918B0180918A01981708F479CF85E89D
:100AB0008093BC000AC085EC8093BC001092500269
:100AC00004C010922B020E946002FF91EF91BF912F
:100AD000AF919F918F917F916F915F914F913F91D6
:100AE0002F910F900FBE0F901F9018958091EA02E2
:100AF00081110DC082E08093E60284E08093E702DA
:100B00001092E9021092E80281E08093EA0286EEF8
:100B100092E008950F931F93CF93DF931F92CDB769
:100B2000DEB782E0898342E450E068ED70E080E85F
:100B30000E94CA030E947605DC0112960D911C9159
:100B400013970115110569F0D801ED91FC91028010
:100B5000F381E02DBE016F5F7F4FC801099597FFBC
:100B600007C089810F90DF91CF911F910F91089558
:100B7000F80100851185E5CFCF92DF92EF92FF92C9
:100B80000F931F93CF93DF931F92CDB7DEB7182F2C
:100B9000062FE42E862F880F8E5F99830E949C0378
:100BA00083E00E949C03F12EC12E9981D92E8C2DB9
:100BB0008F19801798F4F601E7FE02C0849101C0F6
:100BC00080810E949C03182F80E00E949C03812357
:100BD000FFEFCF1ADF0A8111EACF01C081E00F9049
:100BE000DF91CF911F910F91FF90EF90DF90CF9009
:100BF000089590E0FC01E855FE4F4491FC01E75751
:100C0000FE4F2491FC01E659FE4F8491882309F49C
:100C10004CC04423E1F150E0FA013197EF30F10587
:100C2000B0F5EA5AFF4F0C94470E909180009F77E1
:100C300007C0909180009F7D03C090918000977FB6
:100C40009093800024C094B59F7702C094B59F7D97
:100C500094BD1DC0909190009F7707C09091900027
:100C60009F7D03C090919000977F909390000FC05C
:100C70009091C0009F7703C09091C0009F7D90939A
:100C8000C00005C09091C200977F9093C200E82FEA
:100C9000F0E0EE0FFF1FE45AFE4FA591B4918FB71D
:100CA000F894EC912E2B2C938FBF08951092540240
:100CB000109253021092520210925102109250025E
:100CC00081E080934F0210924E0282E00E94F9056B
:100CD00083E00E94F905E9EBF0E080818E7F80835C
:100CE00080818D7F808388E48093B80085E4809341
:100CF000BC000895382F2091510290914D0221326D
:100D000008F049C0809150028111FCCF42E040932D
:100D1000500230934F023FEF30932B0210922A0281
:100D200020932902ADE2B2E049E052E0FA013E2F01
:100D3000341B321718F43D913193F9CF1092080209
:100D400020910802990F922B9093080290914E02E5
:100D5000913061F410924E02909108029093BB0082
:100D60009091BC0093FDF8CF95EC01C095EE909367
:100D7000BC00909150029230E1F390912B029F3F82
:100D800079F080912B02803241F080912B028033E8
:100D900031F084E005C081E003C082E001C083E05F
:100DA000109252021092510210922C0208951F9339
:100DB000CF93DF931091C00281E080932C021093B7
:100DC0004D02109252021092510260E085EA92E0C8
:100DD0000E94EE0281E00E947A0680915002811109
:100DE000FCCF81E08093500280934F029FEF90935D
:100DF0002B0210922A02809329028093080280918C
:100E00000802110F182B1093080280914E028130B6
:100E100061F410924E02809108028093BB00809191
:100E2000BC0083FDF8CF85EC01C085EE8093BC004B
:100E3000809150028130E1F380912A02823018F4CF
:100E400080912A0201C082E0A9E0B2E028EE31E000
:100E5000F9019E2F921B981718F49D919193F9CF49
:100E6000109254028093530285EA92E00E94A202FB
:100E7000182F85EA92E00E94A202D12F20E0C22F13
:100E80009E01282BC9010090C20202C09695879549
:100E90000A94E2F7DF91CF911F910895BC0100976A
:100EA00091F0FC0101900020E9F73197AF01481B58
:100EB000590BE0915502F09156020280F381E02D2A
:100EC00085E592E0099480E090E00895FC0180912E
:100ED000E701811103C08FEF9FEF08959FB7F8944A
:100EE00082E08093E9002091F20030E012161306B0
:100EF00014F421E030E02115310559F0289A84E6F8
:100F00008093E6018091F10080838091F200882334
:100F100019F09FBFC90108958BE68093E800F9CFCF
:100F20000F931F93CF93DF93EC01888199810097F2
:100F300029F02A813B812617370788F48B016F5FE0
:100F40007F4F0E947A0F009761F0998388831B83FB
:100F50000A832C813D81232B11F4FC01108281E056
:100F600001C080E0DF91CF911F910F910895CF9242
:100F7000DF92EF92FF920F931F93CF93DF93CDB742
:100F8000DEB728970FB6F894DEBF0FBECDBF8C0139
:100F9000CB014AE09E012F5F3F4F6901B9010E94DA
:100FA0005910F60101900020E9F73197EC19FD097D
:100FB000D8011496ED90FC9015973097B9F0EE0E8D
:100FC000FF1EB701C8010E949007882381F0F80135
:100FD0002081318184819581B601820F931F0E9407
:100FE0005210D8011596FC92EE92149781E0289643
:100FF0000FB6F894DEBF0FBECDBFDF91CF911F912A
:101000000F91FF90EF90DF90CF900895CF93DF93F3
:10101000EC0188819981009711F00E94E20E1982FB
:1010200018821D821C821B821A82DF91CF91089543
:101030001F920F920FB60F9211248F939F9380915E
:10104000E1009091E100937F9093E10083FF0FC056
:101050001092E90091E09093EB001092EC0092E383
:101060009093ED001092E70198E09093F00082FFDA
:1010700020C093E09093E9009091F200992319F039
:101080009AE39093E8009091E501992339F09091CB
:10109000E50191509093E501992389F19091E60142
:1010A000992339F09091E60191509093E6019923AC
:1010B00041F184FF10C08091E2008E7E81608093B8
:1010C000E2008091E1008F7E8093E1008091E40155
:1010D0008E7E806111C080FF16C08091E2008E7EFE
:1010E00080618093E2008091E1008E7E8093E10038
:1010F0008091E4018E7E81608093E40104C05D985C
:10110000CDCF2898D6CF9F918F910F900FBE0F9083
:101110001F9018951F920F920FB60F921124CF9225
:10112000DF92EF92FF920F931F932F933F934F9372
:101130005F936F937F938F939F93AF93BF93EF933F
:10114000FF93CF93DF93CDB7DEB76C97DEBFCDBFF4
:101150001092E9008091E80083FFFAC168E0CE01B7
:1011600045960E94F10382EF8093E8008D8987FF06
:1011700005C09091E80090FFFCCF03C09EEF9093D4
:10118000E800982F907609F0C6C09E892F89188DA7
:1011900091110CC0803829F48091E3018093F10013
:1011A00002C01092F1001092F10047C1422F50E0AE
:1011B000512B913051F4811140C14130510509F05A
:1011C0003CC18091E3018D7F0BC0933061F48111AC
:1011D00034C14130510509F030C18091E301826092
:1011E0008093E3012AC1953041F48091E80080FFAB
:1011F000FCCF20682093E30020C1963009F05FC047
:10120000EB8CFC8C1092E9001092E1011092E0014D
:10121000123091F51092DF011092DE010E948A05D2
:1012200099E0BE016F5F7F4FDB01E92F1D92EA95C8
:10123000E9F799831A8391E09E8390EA98879AEF61
:1012400099872091E0013091E101275F3F4F3C8376
:101250002B838D831092E9001092E1011092E0013E
:10126000F092DF01E092DE0149E050E080E00E9470
:10127000CA030E948A05E1C0F092DF01E092DE011C
:101280000E947605DC011296ED90FC901397E11414
:10129000F10409F4C0C0D701ED91FC910480F581FF
:1012A000E02DBE016B5E7F4FC7010995009719F0D5
:1012B0000CF0C3C0C6C0F701E084F184E8CF9730DA
:1012C00009F4BFC0983021F481E08093F100B5C0EB
:1012D000993009F0B2C0837009F0B3C0E3E1F1E0E6
:1012E00081E021E036E39081992361F08093E90069
:1012F0002093EB0091919093EC003093ED008F5F81
:10130000873089F78EE78093EA001092EA008F8990
:101310008093E70192C08B8D9C8D1092E900109212
:10132000E1011092E0019093DF018093DE01898D4D
:10133000811156C08E899D89913A59F4813209F004
:1013400080C047E050E064E071E080E00E94CA03A2
:1013500074C0913209F075C0833289F4888D90E0B1
:10136000982F88272F89822BA0E0B0E0809300017E
:1013700090930101A0930201B09303015EC08032FB
:1013800069F48091E80082FFFCCF67E084E091E09F
:101390000E94F1038BEF8093E80006C0823209F0CF
:1013A0004CC08F8980930B018091E201882319F052
:1013B000EEEFFAE002C0E0E0F8E0809104019091E5
:1013C0000501A0910601B0910701803B9440A10561
:1013D000B10509F088C080910B0180FFA0C083C0D7
:1013E0000E947605DC0112960D911C911397011550
:1013F000110539F1D801ED91FC910190F081E02DBA
:10140000BE016B5E7F4FC8010995811116C0F801BE
:1014100000851185ECCF1130C1F0133091F48F8924
:10142000882309F455C08230E9F440E86DE08AE28F
:1014300091E00E94BC05882321F08EEF8093E800A4
:1014400087C081E28093EB0083C08B8D9C8D0897D1
:1014500011F41093E5028091E502811136C068E332
:1014600071E038C0813029F440E86BE08EE191E012
:10147000E0CF833031F70E947605DC011296ED90C3
:10148000FC9013978E010F5F1F4F6801E114F10468
:1014900079F0D701ED91FC910680F781E02DB8013C
:1014A000C7010995080F111DF701E084F184EECF03
:1014B000D8011C92F60101900020E9F73197BF0195
:1014C0006C197D0940E0C601B4CF6AE471E002C046
:1014D0006AE171E06115710509F4B3CFFB01449134
:1014E00050E080E833CF0FB6F894A8958091600063
:1014F000886180936000109260000FBEA895EE3F57
:101500002AE0F20739F08091FE0A9091FF0A918358
:10151000808393CF1092FF0A1092FE0A8ECFEE3F87
:101520008AE0F80731F0808191819093FF0A8093DF
:10153000FE0A87E797E7918380839BE088E10FB6F7
:10154000F894A895809360000FBE9093600075CFCB
:101550006C960FB6F894DEBF0FBECDBFDF91CF9172
:10156000FF91EF91BF91AF919F918F917F916F917B
:101570005F914F913F912F911F910F91FF90EF90AD
:10158000DF90CF900F900FBE0F901F901895CF93C4
:10159000DF93CDB7DEB7A7970FB6F894DEBF0FBEC7
:1015A000CDBF789484B5826084BD84B5816084BDEC
:1015B00085B5826085BD85B5816085BD80916E00F1
:1015C000816080936E001092810080918100826022
:1015D000809381008091810081608093810080915F
:1015E0008000816080938000809191008260809370
:1015F0009100809191008160809391008091900092
:101600008160809390008091C10084608093C100CC
:101610008091C10082608093C1008091C10081608F
:101620008093C1008091C30081608093C30080914A
:10163000C00082608093C0008091C200816080936E
:10164000C20080917A00846080937A0080917A0051
:10165000826080937A0080917A00816080937A0022
:1016600080917A00806880937A001092E70110924E
:10167000E3011092E4018091D70081608093D7004C
:1016800080EA8093D80089B5806189BD89B5826080
:1016900089BD09B400FEFDCF61E070E080E090E01C
:1016A0000E949A018091D8008F7C80618093D8003D
:1016B0008091E000807F8093E0008091E1008E7E49
:1016C0008093E1008DE08093E200559A209A5D9826
:1016D0002898EEEFFFE7859194918B3F9C4D19F48C
:1016E00081E08093E2018FEF9FEF909362028093FD
:1016F000610210910B016AE070E080E090E00E94CE
:101700009A011123B1F305EC12E0D8018D919D915E
:101710009927FC01E757FE4F4491FC01E659FE4F23
:1017200084918823A1F090E0880F991FFC01E65373
:10173000FF4F25913491FC01E45AFE4F859194911D
:101740008FB7F894F9019081942B90838FBFF2E0CA
:10175000A53EBF07D9F6F80180810E5F1F4F0E949A
:10176000F905F2E0053E1F07B1F70E9456060E94F8
:1017700056060E9456060E9456062AE0822E912C9A
:10178000A12CB12C90E0492E90E0592E0E947501B9
:101790006B017C0160E080EC92E00E94610360E0FC
:1017A0008BEB92E00E94610360E086EB92E00E9486
:1017B000610360E081EB92E00E94610368E070E009
:1017C00080E090E00E949A010E94D7069093BB01AE
:1017D0008093BA010E94D7069093C3018093C201FF
:1017E0000E94D7069093CB018093CA010E94D7062E
:1017F0009093D3018093D20161E080EC92E00E944B
:10180000610361E08BEB92E00E94610361E086EB93
:1018100092E00E94610361E081EB92E00E9461032B
:1018200068E070E080E090E00E949A010E94D70694
:101830009093BD018093BC010E94D7069093C5018F
:101840008093C4010E94D7069093CD018093CC0170
:101850000E94D7069093D5018093D40162E080EC7A
:1018600092E00E94610362E08BEB92E00E946103D0
:1018700062E086EB92E00E94610362E081EB92E01D
:101880000E94610368E070E080E090E00E949A01AD
:101890000E94D7069093BF018093BE010E94D70695
:1018A0009093C7018093C6010E94D7069093CF0101
:1018B0008093CE010E94D7069093D7018093D601E2
:1018C00063E080EC92E00E94610363E08BEB92E0C6
:1018D0000E94610363E086EB92E00E94610363E093
:1018E00081EB92E00E94610368E070E080E090E0AC
:1018F0000E949A010E94D7069093C1018093C00173
:101900000E94D7069093C9018093C8010E94D70610
:101910009093D1018093D0010E94D7069093D90172
:101920008093D8010E947501DC01CB018C199D09BF
:10193000AE09BF098093DA019093DB01A093DC012B
:10194000B093DD018AEB282E81E0382E00E010E014
:10195000F101C190D1901F011BA21AA21DA21CA2CD
:101960001FA21EA267E070E0CE0182960E9490073F
:10197000811105C0CE0182960E9406080AC087E048
:1019800090E09FA38EA369E371E08AA19BA10E94CE
:1019900052101A8219821C821B821E821D82EAA0AA
:1019A000FBA0E114F104A9F06EA07FA0B301CE0169
:1019B00001960E949007811105C0CE0101960E94F8
:1019C000060807C07E826D82B70189819A810E94D4
:1019D0005210B801CE0101960E94B707811104C0D0
:1019E000CE0101960E940608ED80FE80F3E0EF0E26
:1019F000F11CB701CE0101960E949007882309F4DB
:101A00009BC029813A818D819E8161E471E0820FC2
:101A1000931F0E945210FE82ED82B601CE01019604
:101A20000E94B707811104C0CE0101960E940608EA
:101A3000E0915502F09156024D815E8169817A8173
:101A40000280F381E02D85E592E0099585E491E03F
:101A50000E944E0789819A810E94E20E8AA19BA171
:101A60000E94E20E0F5F1F4F0031110509F070CF89
:101A7000C090DA01D090DB01E090DC01F090DD0154
:101A8000F7FE26C0E0915502F09156020190F081D8
:101A9000E02D6DE285E592E0099522273327A90123
:101AA0002C193D094E095F0919A28E010F5D1F4FC8
:101AB000CA01B901A50194010E94250E605DF801DB
:101AC00062938F01211531054105510589F715C034
:101AD000A701960119A28E010F5D1F4FCA01B9011E
:101AE000A50194010E94250E605DF80162938F01AB
:101AF000211531054105510589F7C8010E944E079E
:101B000085E491E00E944E0788E491E00E944E0730
:101B100085E491E00E944E078091B8019091B9014F
:101B200001969093B9018093B8014114510409F4CE
:101B30002DCE0E94000026CECE0101960E940608FE
:101B40006CCFE5E5F2E01382128288EE93E0A0E02C
:101B5000B0E084839583A683B7832DE131E03183A0
:101B600020832FEF3FEF35872487E5EAF2E01382E9
:101B7000128284839583A683B7838DE291E091835B
:101B80008083E5ECF2E08BE090E0918380838AE053
:101B900090E09383828389E090E09583848388E05A
:101BA00090E09783868387E090E09187808786E046
:101BB00090E09387828785E090E09587848784E032
:101BC00090E09787868783E190E0918B808B82E11C
:101BD00090E0938B828B8DE090E0958B848B8CE0F2
:101BE00090E0978B868B87E190E0918F808F86E1E4
:101BF00090E0938F828F85E190E0958F848F84E1D0
:101C000090E0978F868FE0ECF2E088E48083148286
:101C1000138288E081831282EBEBF2E0148213825C
:101C200099E4908381831282E6EBF2E014821382BE
:101C30009AE4908381831282E1EBF2E014821382B2
:101C40009BE49083818312820895A1E21A2EAA1B3D
:101C5000BB1BFD010DC0AA1FBB1FEE1FFF1FA2175C
:101C6000B307E407F50720F0A21BB30BE40BF50B59
:101C7000661F771F881F991F1A9469F760957095E2
:101C8000809590959B01AC01BD01CF010895EE0FA9
:101C9000FF1F0590F491E02D0994CF93DF938230DC
:101CA000910510F482E090E0E091F402F091F502E9
:101CB00020E030E0C0E0D0E0309711F14081518168
:101CC00048175907C0F04817590761F4828193817A
:101CD000209719F09B838A832BC09093F502809301
:101CE000F40226C02115310519F04217530718F4E4
:101CF0009A01BE01DF01EF010280F381E02DDCCF0C
:101D00002115310509F1281B390B2430310590F4D8
:101D100012968D919C9113976115710521F0FB012D
:101D20009383828304C09093F5028093F402FD01B3
:101D3000329644C0FD01E20FF31F8193919322502C
:101D400031092D933C933AC02091F2023091F30275
:101D5000232B41F420910E0130910F013093F302B7
:101D60002093F20220910C0130910D0121153105D3
:101D700041F42DB73EB74091100150911101241B41
:101D8000350BE091F202F091F302E217F307A0F4B1
:101D90002E1B3F0B2817390778F0AC014E5F5F4FC1
:101DA0002417350748F04E0F5F1F5093F3024093FE
:101DB000F2028193919302C0E0E0F0E0CF01DF9165
:101DC000CF9108950F931F93CF93DF93009709F45A
:101DD0008CC0FC013297138212820091F4021091A0
:101DE000F5020115110581F420813181820F931FC5
:101DF0002091F2023091F3022817390779F5F09318
:101E0000F302E093F20271C0D80140E050E0AE1757
:101E1000BF0750F412962D913C911397AD012115F7
:101E2000310509F1D901F3CF9D01DA013383228312
:101E300060817181860F971F8217930769F4EC0107
:101E400028813981260F371F2E5F3F4F3183208332
:101E50008A819B8193838283452B29F4F093F50239
:101E6000E093F40242C01396FC93EE931297ED01B7
:101E7000499159919E01240F351FE217F30771F420
:101E800080819181840F951F029611969C938E9369
:101E90008281938113969C938E931297E0E0F0E0F9
:101EA000D80112968D919C911397009719F0F80123
:101EB0008C01F6CF8D919C9198012E5F3F4F820F40
:101EC000931F2091F2023091F3022817390769F429
:101ED000309729F41092F5021092F40202C0138296
:101EE00012821093F3020093F202DF91CF911F91BF
:101EF0000F910895A0E0B0E0E0E8FFE00C949210AC
:101F0000EC01009721F4CB010E944D0EB8C0FC01FA
:101F1000E60FF71F9C0122503109E217F30708F47E
:101F2000ACC0D9010D911C91119706171707B0F09D
:101F30000530110508F49FC0C8010497861797075C
:101F400008F499C002501109061B170B0193119355
:101F50006D937C93CF010E94E20E8DC05B01A01AAD
:101F6000B10A4C01800E911EA091F402B091F502CD
:101F700040E050E0E12CF12C109709F44AC0A8157C
:101F8000B905D1F56D907C901197630182E0C80E80
:101F9000D11CCA14DB0480F1A3014A195B096A0150
:101FA00082E0C80ED11C1296BC9012971396AC9189
:101FB000B5E0CB16D10440F0B282A38351834083B5
:101FC000D9016D937C930AC00E5F1F4FC301800F30
:101FD000911FF90191838083EB2DFA2FE114F10415
:101FE00031F0D7011396FC93EE93129744C0F0930F
:101FF000F502E093F4023FC08D919C911197481730
:10200000590708F4AC017D0112960D90BC91A02DEA
:10201000B3CF8091F2029091F30288159905E1F413
:1020200046175707C8F480910C0190910D01009755
:1020300041F48DB79EB74091100150911101841B5E
:10204000950BE817F907C8F4F093F302E093F20256
:10205000F901718360830FC0CB010E944D0E7C019A
:10206000009759F0A801BE010E944910CE010E94BC
:10207000E20EC70104C0CE0102C080E090E0CDB7FF
:10208000DEB7EEE00C94AE1081E090E0F8940C9492
:10209000C510FB01DC0102C001900D92415050407F
:1020A000D8F70895FB01DC0101900D920020E1F7C3
:1020B0000895BB274A3031F4992322F4BDE290956C
:1020C00081959F4F0C946510BB27FB015527AA27CC
:1020D000880F991FAA1FA41710F0A41B83955051B5
:1020E000B9F7A05DAA3308F0A95DA193009779F72D
:1020F000B111B1931192CB010C947E10DC01FC0163
:10210000672F71917723E1F7329704C07C916D932B
:1021100070836291AE17BF07C8F308952F923F9264
:102120004F925F926F927F928F929F92AF92BF92E7
:10213000CF92DF92EF92FF920F931F93CF93DF9393
:10214000CDB7DEB7CA1BDB0B0FB6F894DEBF0FBEF0
:10215000CDBF09942A88398848885F846E847D843D
:102160008C849B84AA84B984C884DF80EE80FD803F
:102170000C811B81AA81B981CE0FD11D0FB6F894B5
:0E218000DEBF0FBECDBFED010895F894FFCF76
:10218E00FFFFFFFF00E10000000000000000F6026C
:10219E00800000C18081000000000000003A01D4E0
:1021AE00015B011D033B03500100000000EE02BE67
:1021BE0002B602A2029302920253656E736F7220F0
:1021CE0000203A20000D0A002D2D2D2D2D2D2D2D08
:1021DE002D2D2D2D2D2D2D2D2D2D2D2D2D2D2D2D21
:0821EE002D2D2D2D2D2D0000DB
:00000001FF
