:100000000C94E7000C940F010C940F010C940F0159
:100010000C940F010C940F010C940F010C940F0120
:100020000C940F010C940F010C94F70C0C94890B99
:100030000C940F010C940F010C940F010C940F0100
:100040000C940F010C940F010C940F010C940F01F0
:100050000C940F010C940F010C940F010C945D068D
:100060000C940F010C940F010C940F010C940F01D0
:100070000C940F010C940F010C940F010C940F01C0
:100080000C940F010C940F010C940F010C940F01B0
:100090000C949B040C940F010C940F010C940F0111
:1000A0000C940F010C940F010C940F017D07800735
:1000B0006F0773077907A107A107A10784078807BE
:1000C0008C0792079607A1079C0700000002000911
:1000D0000F0000030401000C0000000000000000FD
:1000E0000000000000000000000408020110408031
:1000F000401020408040800802040180402010020F
:10010000011080102040402004040404040304056E
:1001100002020202040302020202060606060606A4
:100120000404020202040400000000250028002B41
:10013000002E00310000000000240027002A002DBE
:10014000003000080B000202020100090400000157
:10015000020200000524001001052401010104240D
:10016000020605240600010705810310004009046A
:100170000100020A00000007050202400000070516
:10018000830240000012010002EF020140412337C8
:100190008000010102030112010002000000404141
:1001A00023378000010102030141726475696E6F9B
:1001B000204C4C430041726475696E6F204D696339
:1001C000726F000403090400B501B103170911247B
:1001D0001FBECFEFDAE0DEBFCDBF11E0A0E0B1E09F
:1001E000EAE7FCE102C005900D92A036B107D9F70D
:1001F00022E0A0E6B1E001C01D92A63EB207E1F701
:1002000011E0CEECD1E004C02297FE010E94370E2F
:10021000C83CD107C9F70E9435090C943B0E0C94D9
:100220000000FC01EE0FFF1FEC56FE4F61E08081E5
:100230000C94DB07CF93DF93C0E0D0E0CE010E94A7
:1002400011012196C031D105C9F764E670E080E064
:1002500090E0DF91CF910C94CA06CF93DF9340E0FA
:1002600052EC61E070E08EE792E00E9402098EE7B6
:1002700092E00E9408098823D1F3C4E9D1E0888183
:10028000229661E00E94A20781E0C43BD807B9F73B
:100290008FE691E00E94D1058AE691E00E94D105A7
:1002A00085E691E00E94D10580E691E00E94D105AB
:1002B00060E070E08FE691E00E94D50560E070E0BC
:1002C0008AE691E00E94D50560E070E085E691E065
:1002D0000E94D50560E070E080E691E00E94D505BF
:1002E000DF91CF910C941A011F93CF93DF93C4E752
:1002F000D1E010E0612F8FE691E00E940106612FAE
:100300008AE691E00E940106612F85E691E00E9455
:100310000106612F80E691E00E94010684E690E0EC
:100320000E940407612F8FE691E00E94490689939D
:100330009993612F8AE691E00E9449069F838E83FC
:10034000612F85E691E00E9449069F878E87612F85
:1003500080E691E00E9449069F8B8E8B1F5F1430D0
:1003600049F6DF91CF911F910895809126019091D8
:10037000270190939501809394018091240190919D
:10038000250190939701809396018091220190918D
:10039000230190939901809398018091200190917D
:1003A000210190939B0180939A0180911E0190916D
:1003B0001F0190939D0180939C0180911C0190915D
:1003C0001D0190939F0180939E0180911A0190914D
:1003D0001B019093A1018093A0018091180190913D
:1003E00019019093A3018093A2018091160190912D
:1003F00017019093A5018093A4018091140190911D
:1004000015019093A7018093A6018091120190910C
:1004100013019093A9018093A801809110019091FC
:1004200011019093AB018093AA0180910E019091EC
:100430000F019093AD018093AC0180910C019091DC
:100440000D019093AF018093AE0180910A019091CC
:100450000B019093B1018093B001809108019091BC
:1004600009019093B3018093B201609106018FE678
:1004700091E00E94C805609104018AE691E00E9423
:10048000C8056091020185E691E00E94C80560916F
:10049000000180E691E00C94C8050F931F93CF9361
:1004A000DF93C4E7D1E08E0168818EE792E00E947D
:1004B00011082296F80161818EE792E00E941108EE
:1004C000F1E0C439DF0779F7DF91CF911F910F91E8
:1004D00008958EE792E00E943B08892BD1F38EE7C6
:1004E00092E00E944B088093B401909129018913F6
:1004F00002C00C94740190912801891302C00C94DD
:100500004D0290912A01891306C060912B018EE75C
:1005100092E00C94110808958091E50190E02091FB
:10052000E601821B910908952091E6018091E50181
:10053000281750F4E22FF0E0E951FE4F808190E05F
:100540002F5F2093E60108958FEF9FEF0895E091CC
:10055000E6018091E501E81730F4F0E0E951FE4F43
:10056000808190E008958FEF9FEF08950895CF92D6
:10057000DF92EF92FF920F931F93CF93DF937C0153
:10058000CB018A012091C101222389F0EB016B018B
:10059000C40ED51ECC15DD0569F06991D701ED912A
:1005A000FC910190F081E02DC7010995F3CF642FF4
:1005B0000E947204C801DF91CF911F910F91FF90AB
:1005C000EF90DF90CF900895CF93DF931F92CDB738
:1005D000DEB769832091C1012223D1F02091C201AD
:1005E000203240F021E030E0FC013383228380E0C0
:1005F00090E015C08091C301E82FF0E0EC53FE4F6E
:10060000998190838F5F8093C3018093C20105C05D
:1006100061E0CE0101960E94720481E090E00F90AB
:10062000DF91CF910895FC011382128248EE53E0CE
:1006300060E070E0448355836683778383E491E0D0
:100640009183808308951092E6011092E501109243
:10065000C3011092C2010C94B50381E08093C101E3
:100660006093E4011092C3011092C20108950F93A8
:10067000062F21E04091C20164EC71E08091E40119
:100680000E941B041092C3011092C2011092C1017A
:100690000F9108958F929F92AF92BF92CF92DF9267
:1006A000EF92FF920F931F93CF93DF93EC01F62EFF
:1006B000D42E48015901EE2019F10E942D031E2D60
:1006C000143008F013E01150B8F0E881F98128E007
:1006D000129FB0011124A501940104C056954795BD
:1006E000379527956A95D2F7CA01B9010190F08133
:1006F000E02DCE010995E7CF60E0CE010E943703DF
:100700004D2D413208F040E22C2D67EE71E08F2D27
:100710000E94D3031092E6018093E501DF91CF910F
:100720001F910F91FF90EF90DF90CF90BF90AF900F
:100730009F908F900895CF92EF920F931F93C22EA8
:10074000E12C00E010E098010E944A031F910F91F4
:10075000EF90CF90089521E00C949B0361E00C94FE
:10076000370385EB91E00C9413031092740281E03F
:10077000809372021092710261E082E00E94DB07B6
:1007800061E083E00E94DB07E9EBF0E080818E7F8F
:10079000808380818D7F808388E48093B80085E4A6
:1007A0008093BC000895413208F043C090917402D8
:1007B0009111FCCF91E090937402209372022FEF7D
:1007C0002093070210924C02240F20934B02909327
:1007D000730290917302880F892B8093730280912A
:1007E0007102813061F410927102809173028093E2
:1007F000BB008091BC0083FDF8CF85EC01C085EE85
:100800008093BC00809174028130E1F380914C02AE
:10081000841710F440914C022DE432E0FB01D90121
:100820008A2F821B841718F48D918193F9CF842F1E
:10083000089580E008950F93413208F04AC09091E6
:1008400074029111FCCF92E09093740200937202B3
:100850009FEF9093070210924C0240934B02FB01D2
:100860006DE472E0DB019A2F961B941718F49191B6
:100870009D93F9CF1092730290917302880F892B88
:100880008093730280917102813061F41092710241
:10089000809173028093BB008091BC0083FDF8CFF0
:1008A00085EC01C085EE8093BC00222321F080916D
:1008B00074028230E1F3809107028F3F61F08091F2
:1008C0000702803251F080910702803341F483E0C7
:1008D00007C081E005C080E003C082E001C084E081
:1008E0000F910895613298F420917402243089F4B4
:1008F00060932902FC018BE292E0DC012A2F281B85
:10090000261718F421912D93F9CF80E0089581E006
:10091000089582E0089585ED8093BC008091BC002D
:1009200084FDFCCF10927402089585EC8093BC0086
:100930001092740208951F920F920FB60F92112415
:100940002F933F934F935F936F937F938F939F93D7
:10095000AF93BF93EF93FF938091B900887F803668
:1009600009F49EC078F5883209F45DC090F48031B6
:1009700009F456C038F4882309F4F5C0883009F426
:100980004FC0F5C0883109F44EC0803209F45FC011
:10099000EEC0803409F46AC058F4803309F457C0BB
:1009A000883309F0E4C0809307020E949504DFC0F9
:1009B000803509F44FC0883509F45DC0883409F0EA
:1009C000D6C0D3C0883909F4C4C0A8F4883709F464
:1009D00067C038F4883609F463C0803709F460C012
:1009E000C6C0883809F4B5C0803909F45FC08038C2
:1009F00009F0BDC05BC0803B09F483C038F4803A85
:100A000009F466C0883A09F47CC0B1C0803C09F49E
:100A1000A4C0883C09F4A1C0883B09F487C0A7C0E2
:100A20008091730210C090914C0280914B029817F4
:100A300070F5E0914C0281E08E0F80934C02F0E063
:100A4000E35BFD4F80818093BB0085EC83C0809386
:100A500007028BC0E0914C0281E08E0F80934C0224
:100A60008091BB00F0E0E35BFD4F808390914C02EE
:100A700080914B026BC0E0914C0281E08E0F80931D
:100A80004C028091BB00F0E0E35BFD4F80838091DE
:100A9000720281116AC081E08093710284EA5EC0B3
:100AA00083E08093740210920802CFCF80910802F5
:100AB000803208F04EC0E091080281E08E0F8093F2
:100AC00008028091BB00F0E0E75FFD4F8083BDCF5F
:100AD0000E94950480910802803230F4E09108026F
:100AE000F0E0E75FFD4F10826091080270E0E09156
:100AF0006D02F0916E0289E092E009951092080271
:100B000036C084E08093740210922A021092290267
:100B1000E0916F02F0917002099580912902811194
:100B200005C081E08093290210922B02E0912A02F5
:100B300081E08E0F80932A02F0E0E55DFD4F808119
:100B40008093BB0090912A0280912902981708F4A3
:100B50007CCF85E88093BC000AC085EC8093BC0004
:100B60001092740204C0109207020E948B04FF913D
:100B7000EF91BF91AF919F918F917F916F915F9115
:100B80004F913F912F910F900FBE0F901F9018958E
:100B9000FC01608381E0818384E08283148213827C
:100BA000089585EB91E00C942303FC017483638327
:100BB00008951F93CF93DF9300D0CDB7DEB7162FE4
:100BC000682F85EB91E04A8359830E942D03612FA2
:100BD00085EB91E00E94E4025981652F85EB91E05D
:100BE0000E94E4024A81642F85EB91E00E94E402B6
:100BF00085EB91E00F900F90DF91CF911F910C94B6
:100C0000AE036430D0F4FC0143815481623051F072
:100C1000633059F0613019F04368516408C043688B
:100C2000516505C04368516602C04368516750680A
:100C300061E0FC0180810C94D90508951F93CF9346
:100C4000DF93182F682F85EB91E00E942D0360E061
:100C500085EB91E00E94E40285EB91E00E94AE03F7
:100C600042E0612F85EB91E00E94AB0385EB91E0C0
:100C70000E949402182F85EB91E00E949402D12FDC
:100C800020E0C22F9E01282BC901DF91CF911F9137
:100C90000895CF93DF93EC01643050F488810E9473
:100CA0001E060A8002C0969587950A94E2F702C054
:100CB00080E090E0DF91CF9108951F920F920FB6E0
:100CC0000F9211242F933F938F939F93AF93BF93D2
:100CD0008091760290917702A0917802B09179028A
:100CE0003091750223E0230F2D3720F40196A11DCA
:100CF000B11D05C026E8230F0296A11DB11D20934A
:100D000075028093760290937702A0937802B09355
:100D1000790280917A0290917B02A0917C02B0913D
:100D20007D020196A11DB11D80937A0290937B02F2
:100D3000A0937C02B0937D02BF91AF919F918F9160
:100D40003F912F910F900FBE0F901F9018953FB7B6
:100D5000F89480917A0290917B02A0917C02B091EC
:100D60007D0226B5A89B05C02F3F19F00196A11D55
:100D7000B11D3FBF6627782F892F9A2F620F711DF3
:100D8000811D911D42E0660F771F881F991F4A95AC
:100D9000D1F708958F929F92AF92BF92CF92DF9238
:100DA000EF92FF926B017C010E94A7064B015C0150
:100DB000C114D104E104F104F1F00E94990D0E94E4
:100DC000A706681979098A099B09683E734081055D
:100DD000910570F321E0C21AD108E108F10888EE0C
:100DE000880E83E0981EA11CB11CC114D104E1043B
:100DF000F10429F7DDCFFF90EF90DF90CF90BF9007
:100E0000AF909F908F9008958230910538F0880FB1
:100E1000991F880F991F05970197F1F70895789406
:100E200084B5826084BD84B5816084BD85B58260EF
:100E300085BD85B5816085BDEEE6F0E0808181608D
:100E40008083E1E8F0E0108280818260808380818D
:100E500081608083E0E8F0E0808181608083E1E967
:100E6000F0E0808182608083808181608083E0E91E
:100E7000F0E0808181608083E1ECF0E0808184603B
:100E80008083808182608083808181608083E3ECC5
:100E9000F0E0808181608083E0ECF0E0808182601E
:100EA0008083E2ECF0E0808181608083EAE7F0E01B
:100EB0008081846080838081826080838081816082
:100EC0008083808180688083089590E0FC01319761
:100ED000EF30F105B0F5EA5AFF4F0C94350E8091D2
:100EE00080008F7703C0809180008F7D8093800089
:100EF000089580918000877FF9CF84B58F7702C0F5
:100F000084B58F7D84BD0895809190008F7707C050
:100F1000809190008F7D03C080919000877F8093A7
:100F2000900008958091C0008F7703C08091C00029
:100F30008F7D8093C00008958091C200877F809349
:100F4000C2000895CF93DF9390E0FC01E751FF4F7B
:100F50002491FC01E85FFE4F8491882349F190E0E1
:100F6000880F991FFC01EB5CFE4FA591B491895D40
:100F70009E4FFC01C591D4919FB7611108C0F894B0
:100F80008C91209582238C93888182230AC06230C1
:100F900051F4F8948C91322F309583238C9388816F
:100FA000822B888304C0F8948C91822B8C939FBFF2
:100FB000DF91CF9108950F931F93CF93DF931F92EB
:100FC000CDB7DEB7282F30E0F901E653FF4F84910B
:100FD000F901E751FF4F1491F901E85FFE4F0491C9
:100FE0000023C9F0882321F069830E946507698185
:100FF000E02FF0E0EE0FFF1FE95DFE4FA591B491E9
:101000009FB7F8948C91611103C01095812301C0A2
:10101000812B8C939FBF0F90DF91CF911F910F91E8
:101020000895CF93DF931F92CDB7DEB76983DC01BC
:10103000ED91FC910280F381E02D41E050E0BE0192
:101040006F5F7F4F09950F90DF91CF910895CF93F8
:10105000DF93EC018C859D8597FF05C082E00E949F
:10106000590A9D878C878C859D85DF91CF91089546
:1010700083E00C94ED0CFC018485958597FD06C0FA
:1010800082E00E94010A90E00196089582E00E94A9
:10109000010A90E00895FC018485958597FD05C0BF
:1010A0002FEF3FEF35872487089582E00C94590A8B
:1010B000CF93DF93EC0180913701882331F083E0F7
:1010C0000E948A0A1816190634F081E090E09B838A
:1010D0008A8380E090E0DF91CF910895FC01208128
:1010E0002E5F208342E450E063E471E080E80C94DA
:1010F000250BFC0121818081813A59F4213209F0CC
:101100004BC047E050E060E371E080E00E94250BB7
:101110005EC0813209F040C0233289F4838190E0BF
:10112000982F88273281832BA0E0B0E080932C0198
:1011300090932D01A0932E01B0932F010FC0203268
:1011400039F467E070E080E391E00E94560B09C03B
:10115000223221F482818093370103C02D7F203217
:10116000B1F58091CE02811103C0E0E0F8E002C049
:10117000EEEFFAE08091300190913101A0913201BF
:10118000B0913301803B9440A105B10511F58091E8
:10119000370180FF03C01DC080E00895EE3F2AE0C4
:1011A000F20731F0808191819093FF0A8093FE0ACB
:1011B00087E797E7918380832BE088E190E00FB683
:1011C000F894A895809360000FBE2093600081E0A2
:1011D000089588E10FB6F894809360001092600043
:1011E0000FBEA895EE3F8AE0F80739F08091FE0A1D
:1011F0009091FF0A91838083EACF1092FF0A1092A8
:10120000FE0AE5CF2FEF3FEFFC01358724870895D5
:10121000CF93C09137016AE070E080E090E00E94D7
:10122000CA0681E0C11101C080E0CF9108951092FB
:1012300081021092800288EE93E0A0E0B0E08093FB
:10124000820290938302A0938402B093850283E587
:1012500091E090937F0280937E028FEF9FEF9093B7
:101260008B0280938A02089508950E940F070E94BE
:1012700034098FEC92E00E947A0D0E942D01C0E0AB
:10128000D0E00E9469022097E1F30E940000F9CFAC
:10129000615030F02091F100FC0120830196F8CFDD
:1012A000289A84E68093D80208954091D302509101
:1012B000D4022091D1023091D20242175307B4F4E4
:1012C0009091E8009570E1F39091E80092FD19C0CB
:1012D0008093F1008091D3029091D40201968F7394
:1012E0009927892B19F48EEF8093E8008091D3021F
:1012F0009091D40201969093D4028093D30281E01E
:10130000089580E00895CF92DF92EF92FF920F93BD
:101310001F93CF93DF931F92CDB7DEB7082F162F01
:10132000F42E862F880F8E5F99830E94550983E0E3
:101330000E945509E02EC02E9981D92E8C2D8E1930
:10134000811798F4F601F7FE02C0849101C08081F4
:101350000E945509082F80E00E9455098023FFEF65
:10136000CF1ADF0A8111EACF01C081E00F90DF912F
:10137000CF911F910F91FF90EF90DF90CF90089544
:101380008091D70081608093D70080EA8093D80055
:1013900089B5806189BD89B5826089BD09B400FEC7
:1013A000FDCF61E070E080E090E00E94CA0680918D
:1013B000D8008F7C80618093D8008091E000807F8E
:1013C0008093E0000895CF93DF931F92CDB7DEB7EF
:1013D0001982CE0101960E946E080E94210EBE0164
:1013E0006F5F7F4F0E949A0D89810F90DF91CF919F
:1013F00008952FB7FC012083F89467706093E9008B
:101400000895CF93DF931F92CDB7DEB7682FCE013B
:1014100001960E94F9098091F20099819FBF0F9077
:10142000DF91CF910895FF920F931F93CF93DF9396
:1014300000D0CDB7DEB7F62E8A019091D70299235E
:1014400011F057FF03C08FEF9FEF2BC0682FCE0125
:1014500001967A830E94F9098091F20090E0A80138
:101460007A81801791070CF4AC01EF2DF72FF40E61
:1014700084E6FE1639F0289A8093D8029091F10004
:101480009193F7CF4115510521F08091F200882307
:1014900021F089818FBFCA0104C08BE68093E800E8
:1014A000F8CF0F900F90DF91CF911F910F91FF9088
:1014B0000895CF93DF931F92CDB7DEB741E050E0A0
:1014C000BE016F5F7F4F0E94130A019719F4898153
:1014D00090E002C08FEF9FEF0F90DF91CF910895C2
:1014E000CF93DF931F92CDB7DEB7682FCE01019661
:1014F0000E94F9099091E800892F807295FF04C03D
:101500009091F20080E4891B99819FBF0F90DF9139
:10151000CF9108956F927F928F929F92AF92BF92D8
:10152000CF92DF92EF92FF920F931F93CF93DF93AF
:101530001F92CDB7DEB7782E7B01C42EB52E8091D9
:10154000D702882369F0042F152F8AEFD82E872D14
:101550008072982E9AE3A92E872D8074882E11C050
:101560008FEF9FEF57C0872D0E94700A682E811160
:101570000CC0DA94A9F361E070E080E090E00E9492
:10158000CA060115110579F73BC0282F30E0021774
:1015900013070CF4602E672DCE0101960E94F90905
:1015A0008091E80085FF29C0262D30E0021B130B37
:1015B000992039F06A948FEF6816B1F01092F1001B
:1015C000F9CFF701862D77FE07C0815058F094912E
:1015D0009093F1003196F9CF815020F09191909342
:1015E000F100FACFE20EF31E8091E80085FF0FC0F4
:1015F0000115110511F481100AC089818FBFC1CF77
:101600005D9A84E68093D9028C2D9B2D03C0A09215
:10161000E800F3CF0F90DF91CF911F910F91FF90D2
:10162000EF90DF90CF90BF90AF909F908F907F9082
:101630006F9008951092E9001092D4021092D30294
:101640009093D2028093D1020895CF92DF92FF92BD
:101650000F931F93CF93DF9300D0CDB7DEB7F82E53
:101660008A016B0101151105B1F0F601F7FE02C008
:10167000849101C0808149835A830E945509015099
:101680001109FFEFCF1ADF0A49815A818111EACF90
:101690008FEF9FEF01C0CA010F900F90DF91CF91A4
:1016A0001F910F91FF90DF90CF900895BF92CF923E
:1016B000DF92EF92FF920F931F93CF93DF936C0112
:1016C0008B01EB013BEFB32E2097C1F07E01C134BB
:1016D000D1051CF020E4E22EF12C8091E80082FF7D
:1016E000FCCFC8018C1B9D0B6E2D8C0D9D1D0E9487
:1016F0004809B092E800CE19DF09E6CFC801DF91B2
:10170000CF911F910F91FF90EF90DF90CF90BF90FE
:1017100008951F920F920FB60F921124DF92EF924D
:10172000FF920F931F932F933F934F935F936F936A
:101730007F938F939F93AF93BF93EF93FF93CF9339
:10174000DF93CDB7DEB76C97DEBFCDBF1092E90057
:101750008091E80083FF23C168E0CE0145960E9496
:10176000480982EF8093E8003D8937FF05C08091EA
:10177000E80080FFFCCF03C08EEF8093E800832F4A
:10178000807609F0F0C02E894F89D88C21110CC0C9
:10179000303829F48091D6028093F10002C0109273
:1017A000F1001092F100F4C0842F90E09D292130C7
:1017B00049F43111EDC0019709F0EAC08091D602D9
:1017C0008D7F0AC0233059F43111E2C0019709F02E
:1017D000DFC08091D60282608093D602D9C02530C6
:1017E00041F48091E80080FFFCCF40684093E30023
:1017F000CFC0263009F08DC0EB8CFC8C22E0D212D9
:101800002CC080E090E00E941A0B0E94E30999E04E
:101810008E010F5F1F4FF801292F11922A95E9F7CA
:101820009983DA8291E09E8390EA98879AEF99876C
:101830002091D3023091D402275F3F4F3C832B830A
:101840008D83C7010E941A0B49E050E0B80180E087
:101850000E94250B0E94E3099BC0C7010E941A0B3E
:101860000E94210EBE016B5E7F4F0E94C30D009748
:1018700019F00CF08DC090C081E0D8120EC08B8D95
:101880009C8D089719F481E08093D0028091D0025A
:1018900081112FC067E971E031C0E3E0DE127CC046
:1018A0008F89882349F1823029F440E86DE085EB87
:1018B00091E01CC0813029F440E86BE089EA91E0B6
:1018C00015C0833009F068C00E94210E8E010F5FA1
:1018D0001F4FB8010E94E20DF80101900020E9F7C6
:1018E0003197E01BF10B40E06E2FC8010E94830985
:1018F0004DC065E871E002C063EC71E061157105EF
:1019000009F44AC0FB01449150E080E80E94250B95
:101910003FC0273009F440C0283021F481E0809393
:10192000F10036C02930A1F53370B1F5E9E3F1E0FB
:1019300081E021E036E39081992361F08093E90012
:101940002093EB0091919093EC003093ED008F5F2A
:10195000873089F78EE78093EA001092EA008F893A
:101960008093D70215C08B8D9C8D0E941A0B898D98
:10197000811105C0CE0145960E94790807C00E94DA
:10198000210EBE016B5E7F4F0E94010E882321F065
:101990008EEF8093E80003C081E28093EB006C96A9
:1019A0000FB6F894DEBF0FBECDBFDF91CF91FF9190
:1019B000EF91BF91AF919F918F917F916F915F91C7
:1019C0004F913F912F911F910F91FF90EF90DF90DA
:1019D0000F900FBE0F901F9018958093E900809193
:1019E000F200882319F08AE38093E80008951F929B
:1019F0000F920FB60F9211242F933F934F935F9343
:101A00006F937F938F939F93AF93BF93CF93EF93F6
:101A1000FF93C091E1008091E100837F8093E1001A
:101A20008093E100C3FF0FC01092E90081E0809332
:101A3000EB001092EC0082E38093ED001092D7024D
:101A400088E08093F000C2FF19C083E00E94ED0C93
:101A50008091D902882339F08091D90281508093F6
:101A6000D902882389F18091D802882339F08091A6
:101A7000D80281508093D802882341F1C4FF10C05E
:101A80008091E2008E7E81608093E2008091E1008F
:101A90008F7E8093E1008091D5028E7E806111C09F
:101AA000C0FF16C08091E2008E7E80618093E200CC
:101AB0008091E1008E7E8093E1008091D5028E7E40
:101AC00081608093D50204C05D98CDCF2898D6CF91
:101AD000FF91EF91CF91BF91AF919F918F917F91A6
:101AE0006F915F914F913F912F910F900FBE0F908B
:101AF0001F9018951092D7021092D6021092D5021C
:101B00000E94C0098091E1008E7E8093E1008DE00B
:101B10008093E200559A209A5D982898EEEFFFE7AF
:101B2000859194918B3F9C4D19F481E08093CE0276
:101B300008950895EF92FF920F931F93CF93DF9331
:101B40007B01FC01C281D38100E010E0209781F08D
:101B5000E881F9810280F381E02DB701CE0109957A
:101B600097FD08C0080F191F0884D985C02DEECF36
:101B7000C80102C08FEF9FEFDF91CF911F910F91AE
:101B8000FF90EF9008950F931F93CF93DF938B01F6
:101B9000FC01C281D381209771F0E881F981048032
:101BA000F581E02DB801CE010995009731F4088444
:101BB000D985C02DF0CF80E090E0DF91CF911F91CB
:101BC0000F9108950F931F93CF93DF938B01FC0127
:101BD000C281D381209771F0E881F9810680F78175
:101BE000E02DB801CE010995080F111D0884D98593
:101BF000C02DF0CFF8011082DF91CF911F910F918E
:101C000008950F931F93CF93DF938B01FC01C28143
:101C1000D381209771F0E881F9810190F081E02D66
:101C2000B801CE010995811106C00884D985C02D5F
:101C3000F0CF80E001C081E0DF91CF911F910F9143
:101C400008958091DE0281110DC082E08093DA0256
:101C500084E08093DB021092DD021092DC0281E0CE
:101C60008093DE028AED92E00895EE0FFF1F05904B
:0A1C7000F491E02D0994F894FFCFE1
:101C7A004B004A00490048001400150016001700DE
:101C8A000C000D00120013000400050006000700F6
:101C9A00080009000A000B0061636949FFFFFFFFA2
:101CAA0000E100000000000000C180810000000087
:101CBA00000000E402B7028C029402A702B60200F6
:101CCA00000000110858083B084B0827083808008C
:00000001FF
