:100000000C94E5000C940D010C940D010C940D0161
:100010000C940D010C940D010C940D010C940D0128
:100020000C940D010C940D010C9484070C94F607AC
:100030000C940D010C940D010C940D010C940D0108
:100040000C940D010C940D010C940D010C940D01F8
:100050000C940D010C940D010C940D010C945A0498
:100060000C940D010C940D010C940D010C940D01D8
:100070000C940D010C940D010C940D010C940D01C8
:100080000C940D010C940D010C940D010C940D01B8
:100090000C94A4040C940D010C940D010C940D010E
:1000A0000C940D010C940D010C940D01A606A906EB
:1000B00098069C06A006CA06CA06CA06AD06B10680
:1000C000B506BB06BF06CA06C50600000000240030
:1000D00027002A002D003000080B00020202010058
:1000E000090400000102020000052400100105249B
:1000F000010101042402060524060001070581030D
:1001000010004009040100020A0000000705020275
:100110004000000705830240000004030904417207
:100120006475696E6F204C4C430041726475696E52
:100130006F204D6963726F001201000200000040E1
:100140004123378000010102030112010002EF0286
:10015000014041233780000101020301000000003B
:10016000250028002B002E003100040404040403A1
:100170000405020202020403020202020606060647
:10018000060604040202020404040802011040806E
:10019000401020408040800802040180402010026E
:1001A00001108010204040200000000200090F00D4
:1001B00000030401000C000000000000000000002B
:1001C0000000000000000000AD0B11241FBECFEFA7
:1001D000DAE0DEBFCDBF11E0A0E0B1E0EEE7F8E18C
:1001E00002C005900D92A433B107D9F722E0A4E331
:1001F000B1E001C01D92A93BB207E1F710E0C5EEE6
:10020000D0E004C02197FE010E94320CC43ED10709
:10021000C9F70E94330A0C943D0C0C940000CF9255
:10022000DF92EF92FF920F931F93CF93DF936C01B6
:100230007A018B01C0E0D0E0CE15DF0589F0D8014E
:100240006D918D01D601ED91FC910190F081E02D31
:10025000C6010995892B11F47E0102C02196ECCFCD
:10026000C701DF91CF911F910F91FF90EF90DF9029
:10027000CF900895CF93DF931F92CDB7DEB76983F8
:10028000DC01ED91FC910280F381E02D41E050E032
:10029000BE016F5F7F4F09950F90DF91CF91089559
:1002A00083E08093E9008091F200882319F08AE3CB
:1002B0008093E8000895FC018485958597FD0BC027
:1002C0009FB7F89482E08093E9008091F2009FBF8D
:1002D00090E0019608959FB7F89482E08093E9003A
:1002E0008091F2009FBF90E008953FB7F89480910D
:1002F000A0019091A101A091A201B091A30126B506
:10030000A89B05C02F3F19F00196A11DB11D3FBF4D
:10031000BA2FA92F982F8827820F911DA11DB11DDB
:10032000BC01CD0142E0660F771F881F991F4A95D7
:10033000D1F708958F929F92AF92BF92CF92DF92A2
:10034000EF92FF926B017C010E9475014B015C01F1
:10035000C114D104E104F104F1F00E947501DC0143
:10036000CB0188199909AA09BB09883E9340A105C8
:10037000B10570F321E0C21AD108E108F10888EE56
:10038000880E83E0981EA11CB11CC114D104E104A5
:10039000F10419F7DDCFFF90EF90DF90CF90BF9081
:1003A000AF909F908F9008958F929F92AF92BF923F
:1003B000CF92DF92EF92FF920F931F93CF93DF9331
:1003C0005C016B018A0180910B01882309F45EC0F6
:1003D0008091CE01882309F459C08091CB0180FF20
:1003E00005C08091E00082608093E000E8018AEF20
:1003F000F82E93E0E92E2FE3822E3AE3932E2097F6
:1004000009F43DC08FB7F894E092E9009091E800BC
:1004100095FF06C09091F200282D291B922F01C054
:1004200090E08FBF91110AC0FA94FF2079F161E04A
:1004300070E080E090E00E949A01E1CF292F30E047
:10044000C217D3070CF49C2F8FB7F894E092E90001
:100450002091E80025FF11C0292F30E0C21BD30BEB
:10046000F601915020F041914093F100FACFC20E75
:10047000D31E9091E80095FF13C08FBFC0CF5D9A47
:1004800084E68093CC011016110644F081E090E0E0
:10049000F5019383828380E090E005C0C80103C02A
:1004A0009092E800EACFDF91CF911F910F91FF90DA
:1004B000EF90DF90CF90BF90AF909F908F90089576
:1004C00085ED8093BC008091BC0084FDFCCF109230
:1004D0001702089540915601262F30E0240F311D58
:1004E00021323105DCF4209117022430C9F4FC01DB
:1004F00080E090E0861758F4309156012191DC019C
:10050000AC5CBE4FA30FB11D2C930196F3CF80912D
:100510005601680F6093560180E0089581E00895C8
:1005200082E008950895E0911B0280911A02E81775
:1005300030F4F0E0E558FE4F808190E008958FEFB1
:100540009FEF089590911B0280911A02981750F422
:10055000E92FF0E0E558FE4F208130E09F5F909357
:100560001B0202C02FEF3FEFC901089580911A02CC
:1005700090E020911B02821B91090895CF92DF9297
:10058000EF92FF920F931F93CF93DF937C01262F5F
:10059000972F8A018091F301882391F0C62FD72FDE
:1005A0006E01C40ED51ECC15DD0571F06991D70121
:1005B000ED91FC910190F081E02DC7010995F3CFF9
:1005C000642F822F0E946A02C801DF91CF911F9190
:1005D0000F91FF90EF90DF90CF900895CF93DF932E
:1005E0001F92CDB7DEB769832091F3012223D1F0AA
:1005F00020911802203240F021E030E0FC013383EA
:10060000228380E090E015C080911902E82FF0E08D
:10061000EC50FE4F998190838F5F809319028093F5
:10062000180205C061E0CE0101960E946A0281E0D5
:1006300090E00F90DF91CF910895CF93DF931F92B9
:10064000CDB7DEB7FC018485958597FD05C02FEFFA
:100650003FEF358724870BC0CE0101960E945A07D1
:10066000019719F4898190E002C08FEF9FEF0F90FE
:10067000DF91CF9108950F931F93CF93DF931F9234
:10068000CDB7DEB78C01FC018485958597FF0EC040
:10069000CE0101960E945A07019719F4298130E092
:1006A00002C02FEF3FEFF80135872487F8018485DA
:1006B00095850F90DF91CF911F910F9108950E9422
:1006C000380CFF920F931F93CF93DF93643008F0A1
:1006D00071C08C01FC01F08081E08093F301F09205
:1006E0001402109219021092180260E08CE692E057
:1006F0000E94EE0281E00E94FD06809117028111A6
:10070000FCCF81E080931702809316029FEF9093B5
:10071000F2011092F1018093F0018093CF0180915A
:10072000CF01FF0CF82AF092CF01809115028130A1
:1007300061F4109215028091CF018093BB008091EB
:10074000BC0083FDF8CF85EC01C085EE8093BC0032
:10075000809117028130E1F38091F101823018F429
:100760008091F10101C082E0A0EDB1E02BE731E022
:10077000F9019E2F921B981718F49D919193F9CF30
:1007800010921B0280931A028CE692E00E94A20251
:10079000F82E8CE692E00E94A202DF2DF0E0CF2F2F
:1007A000C82BCE01F801028002C0969587950A9465
:1007B000E2F702C080E090E0DF91CF911F910F91AE
:1007C000FF900895CF93DF93262F6430A8F5FC01A6
:1007D00063817481223051F0233059F0213019F0B7
:1007E0006368716408C06368716505C06368716699
:1007F00002C063687167FC01EB01D068808191E001
:100800009093F3018093140210921902109218022F
:1008100061E08CE692E00E94EE026D2F8CE692E0A1
:100820000E94EE026C2F8CE692E00E94EE0281E0C4
:10083000DF91CF910C94FD06DF91CF910895409107
:10084000C7015091C8012091C5013091C6014217DE
:100850005307B4F49091E8009570E1F39091E800AB
:1008600092FD19C08093F1008091C7019091C80159
:1008700001968F739927892B19F48EEF8093E800E6
:100880008091C7019091C80101969093C80180930F
:10089000C70181E0089580E00895615030F0209113
:1008A000F100FC0120830196F8CF289A84E680931A
:1008B000CD0108951F920F920FB60F9211242F931E
:1008C0003F938F939F93AF93BF9380919C0190919F
:1008D0009D01A0919E01B0919F0130919B0123E069
:1008E000230F2D3720F40196A11DB11D05C026E868
:1008F000230F0296A11DB11D20939B0180939C01A3
:1009000090939D01A0939E01B0939F018091A001BF
:100910009091A101A091A201B091A3010196A11D06
:10092000B11D8093A0019093A101A093A201B09367
:10093000A301BF91AF919F918F913F912F910F9004
:100940000FBE0F901F9018951F920F920FB60F9227
:1009500011242F933F934F935F936F937F938F93C4
:100960009F93AF93BF93EF93FF938091B900887FDC
:10097000803609F49CC068F5883209F45BC090F4B5
:10098000803109F454C038F4882309F4F6C0883063
:1009900009F44DC0F6C0883109F44CC0803209F426
:1009A0005DC0EFC0803409F468C048F4803309F4B6
:1009B00055C0883309F0E5C08093F201D8C0803576
:1009C00009F44FC0883509F45DC0883409F0D9C0F6
:1009D000D6C0883909F4C7C0A8F4883709F467C0BD
:1009E00038F4883609F463C0803709F460C0C9C0A0
:1009F000883809F4B8C0803909F45FC0803809F03C
:100A0000C0C05BC0803B09F486C038F4803A09F46A
:100A100066C0883A09F47FC0B4C0803C09F4A7C01E
:100A2000883C09F4A4C0883B09F48AC0AAC080911C
:100A3000CF0110C09091F1018091F001981770F5ED
:100A4000E091F10181E08E0F8093F101F0E0E0533D
:100A5000FE4F80818093BB0085EC86C08093F201BD
:100A60008EC0E091F10181E08E0F8093F1018091C1
:100A7000BB00F0E0E053FE4F80839091F101809144
:100A8000F0016EC0E091F10181E08E0F8093F101E1
:100A90008091BB00F0E0E053FE4F8083809116020E
:100AA00081116DC081E08093150284EA61C083E00A
:100AB0008093170210927A01CFCF80917A01803211
:100AC00008F051C0E0917A0181E08E0F80937A01A5
:100AD0008091BB00F0E0E65AFE4F8083BDCF85ECED
:100AE0008093BC001092170280917A01803230F41A
:100AF000E0917A01F0E0E65AFE4F108260917A01AF
:100B000070E0E0915801F09159018AE591E0099572
:100B100010927A0136C084E0809317021092570138
:100B200010925601E0915401F09155010995809180
:100B30005601811105C081E0809356011092340165
:100B4000E091570181E08E0F80935701F0E0EC5C5B
:100B5000FE4F80818093BB00909157018091560198
:100B6000981708F479CF85E88093BC000AC085EC1B
:100B70008093BC001092170204C01092F2010E94F0
:100B80006002FF91EF91BF91AF919F918F917F9103
:100B90006F915F914F913F912F910F900FBE0F90EA
:100BA0001F9018958091B10281110DC082E0809351
:100BB000AD0284E08093AE021092B0021092AF02B8
:100BC00081E08093B1028DEA92E00895CF92DF92A6
:100BD000EF92FF920F931F93CF93DF931F92CDB7A6
:100BE000DEB7182F062FE42E862F880F8E5F99838D
:100BF0000E941F0483E00E941F04F12EC12E9981E0
:100C0000D92E8C2D8F19801798F4F601E7FE02C0BB
:100C1000849101C080810E941F04182F80E00E94EF
:100C20001F048123FFEFCF1ADF0A8111EACF01C031
:100C300081E00F90DF91CF911F910F91FF90EF9086
:100C4000DF90CF900895DF92EF92FF920F931F9362
:100C5000CF93DF93D82E8A017B01E40EF51EEB01C2
:100C6000CE15DF0571F0D7FE03C0FE01849101C0EF
:100C700088810E941F0421968111F2CF8FEF9FEF90
:100C800001C0C801DF91CF911F910F91FF90EF90AC
:100C9000DF9008950F931F93CF93DF931F92CDB7EB
:100CA000DEB782E0898342E450E068ED70E080E8DE
:100CB0000E9423060E94D205DC0112960D911C9120
:100CC00013970115110569F0D801ED91FC9102808F
:100CD000F381E02DBE016F5F7F4FC801099597FF3B
:100CE00007C089810F90DF91CF911F910F910895D7
:100CF000F80100851185E5CF90E0FC01E855FE4F35
:100D00004491FC01E757FE4F2491FC01E659FE4F48
:100D10008491882309F44CC04423E1F150E0FA01A6
:100D20003197EF30F105B0F5EA5AFF4F0C94320CD1
:100D3000909180009F7707C0909180009F7D03C0B5
:100D400090918000977F9093800024C094B59F7706
:100D500002C094B59F7D94BD1DC0909190009F7777
:100D600007C0909190009F7D03C090919000977F65
:100D7000909390000FC09091C0009F7703C0909116
:100D8000C0009F7D9093C00005C09091C200977FE6
:100D90009093C200E82FF0E0EE0FFF1FE45AFE4FE1
:100DA000A591B4918FB7F894EC912E2B2C938FBF13
:100DB000089510921B0210921A02109219021092BA
:100DC00018021092170281E0809316021092150209
:100DD00082E00E947C0683E00E947C06E9EBF0E062
:100DE00080818E7F808380818D7F808388E4809363
:100DF000B80085E48093BC000895382F2091180234
:100E000090911402213208F049C08091170281119B
:100E1000FCCF42E040931702309316023FEF30932D
:100E2000F2011092F1012093F001A4EFB1E040ED46
:100E300051E0FA013E2F341B321718F43D913193E3
:100E4000F9CF1092CF012091CF01990F922B90935F
:100E5000CF0190911502913061F41092150290919A
:100E6000CF019093BB009091BC0093FDF8CF95EC1F
:100E700001C095EE9093BC00909117029230E1F37F
:100E80009091F2019F3F79F08091F201803241F020
:100E90008091F201803331F084E005C081E003C02D
:100EA00082E001C083E010921902109218021092A1
:100EB000F3010895FC018091CE01811103C08FEFF1
:100EC0009FEF08959FB7F89482E08093E900209106
:100ED000F20030E01216130614F421E030E0211580
:100EE000310559F0289A84E68093CD018091F10074
:100EF00080838091F200882319F09FBFC901089573
:100F00008BE68093E800F9CF1F920F920FB60F92F5
:100F100011248F939F938091E1009091E100937F42
:100F20009093E10083FF0FC01092E90091E090934D
:100F3000EB001092EC0092E39093ED001092CE0142
:100F400098E09093F00082FF20C093E09093E90036
:100F50009091F200992319F09AE39093E800909110
:100F6000CC01992339F09091CC0191509093CC0110
:100F7000992389F19091CD01992339F09091CD0178
:100F800091509093CD01992341F184FF10C080913D
:100F9000E2008E7E81608093E2008091E1008F7E8E
:100FA0008093E1008091CB018E7E806111C080FF33
:100FB00016C08091E2008E7E80618093E200809175
:100FC000E1008E7E8093E1008091CB018E7E816076
:100FD0008093CB0104C05D98CDCF2898D6CF9F9148
:100FE0008F910F900FBE0F901F9018951F920F9228
:100FF0000FB60F921124CF92DF92EF92FF920F93D0
:101000001F932F933F934F935F936F937F938F9390
:101010009F93AF93BF93EF93FF93CF93DF93CDB79E
:10102000DEB76C97DEBFCDBF1092E9008091E8007B
:1010300083FFFAC168E0CE0145960E944D0482EF1D
:101040008093E8008D8987FF05C09091E80090FFAC
:10105000FCCF03C09EEF9093E800982F907609F0A4
:10106000C6C09E892F89188D91110CC0803829F433
:101070008091CA018093F10002C01092F100109299
:10108000F10047C1422F50E0512B913051F48111B2
:1010900040C14130510509F03CC18091CA018D7FAA
:1010A0000BC0933061F4811134C14130510509F016
:1010B00030C18091CA0182608093CA012AC19530F3
:1010C00041F48091E80080FFFCCF20682093E3008A
:1010D00020C1963009F05FC0EB8CFC8C1092E900C7
:1010E0001092C8011092C701123091F51092C601FA
:1010F0001092C5010E944A0699E0BE016F5F7F4FC2
:10110000DB01E92F1D92EA95E9F799831A8391E0B3
:101110009E8390EA98879AEF99872091C701309132
:10112000C801275F3F4F3C832B838D831092E900DA
:101130001092C8011092C701F092C601E092C50159
:1011400049E050E080E00E9423060E944A06E1C088
:10115000F092C601E092C5010E94D205DC01129610
:10116000ED90FC901397E114F10409F4C0C0D7018D
:10117000ED91FC910480F581E02DBE016B5E7F4F07
:10118000C7010995009719F00CF0C3C0C6C0F7015C
:10119000E084F184E8CF973009F4BFC0983021F49F
:1011A00081E08093F100B5C0993009F0B2C083703E
:1011B00009F0B3C0EDE0F1E081E021E036E3908199
:1011C000992361F08093E9002093EB009191909333
:1011D000EC003093ED008F5F873089F78EE78093C6
:1011E000EA001092EA008F898093CE0192C08B8D25
:1011F0009C8D1092E9001092C8011092C701909343
:10120000C6018093C501898D811156C08E899D8943
:10121000913A59F4813209F080C047E050E064E02F
:1012200071E080E00E94230674C0913209F075C01D
:10123000833289F4888D90E0982F88272F89822B1C
:10124000A0E0B0E08093000190930101A09302011F
:10125000B09303015EC0803269F48091E80082FFA0
:10126000FCCF67E084E091E00E944D048BEF809317
:10127000E80006C0823209F04CC08F8980930B01D0
:101280008091C901882319F0EEEFFAE002C0E0E096
:10129000F8E08091040190910501A0910601B091C0
:1012A0000701803B9440A105B10509F088C08091F9
:1012B0000B0180FFA0C083C00E94D205DC01129602
:1012C0000D911C9113970115110539F1D801ED917C
:1012D000FC910190F081E02DBE016B5E7F4FC80153
:1012E0000995811116C0F80100851185ECCF1130E8
:1012F000C1F0133091F48F89882309F455C08230EE
:10130000E9F440E86DE08AE291E00E94E605882376
:1013100021F08EEF8093E80087C081E28093EB009C
:1013200083C08B8D9C8D089711F41093AC02809133
:10133000AC02811136C068E371E038C0813029F415
:1013400040E86BE08EE191E0E0CF833031F70E941E
:10135000D205DC011296ED90FC9013978E010F5F81
:101360001F4F6801E114F10479F0D701ED91FC9170
:101370000680F781E02DB801C7010995080F111DFE
:10138000F701E084F184EECFD8011C92F6010190C0
:101390000020E9F73197BF016C197D0940E0C601D3
:1013A000B4CF6AE471E002C06AE171E061157105D1
:1013B00009F4B3CFFB01449150E080E833CF0FB67E
:1013C000F894A895809160008861809360001092E5
:1013D00060000FBEA895EE3F2AE0F20739F0809139
:1013E000FE0A9091FF0A9183808393CF1092FF0AA7
:1013F0001092FE0A8ECFEE3F8AE0F80731F080812E
:1014000091819093FF0A8093FE0A87E797E7918383
:1014100080839BE088E10FB6F894A89580936000E4
:101420000FBE9093600075CF6C960FB6F894DEBF38
:101430000FBECDBFDF91CF91FF91EF91BF91AF91E3
:101440009F918F917F916F915F914F913F912F91DC
:101450001F910F91FF90EF90DF90CF900F900FBEF4
:101460000F901F901895789484B5826084BD84B5E0
:10147000816084BD85B5826085BD85B5816085BD8F
:1014800080916E00816080936E0010928100809147
:1014900081008260809381008091810081608093CF
:1014A0008100809180008160809380008091910014
:1014B000826080939100809191008160809391007F
:1014C000809190008160809390008091C100846041
:1014D0008093C1008091C10082608093C10080919F
:1014E000C10081608093C1008091C30081608093BE
:1014F000C3008091C00082608093C0008091C200D0
:1015000081608093C20080917A00846080937A0029
:1015100080917A00826080937A0080917A00816065
:1015200080937A0080917A00806880937A0010928C
:10153000CE011092CA011092CB018091D700816038
:101540008093D70080EA8093D80089B5806189BDF7
:1015500089B5826089BD09B400FEFDCF61E070E00D
:1015600080E090E00E949A018091D8008F7C806199
:101570008093D8008091E000807F8093E00080918C
:10158000E1008E7E8093E1008DE08093E200559A29
:10159000209A5D982898EEEFFFE7859194918B3F14
:1015A0009C4D19F481E08093C9018FEF9FEF9093D8
:1015B000290280932802C0910B016AE070E080E06C
:1015C00090E00E949A01CC23B1F3CCE8D2E0DE0196
:1015D0008D919D919927FC01E757FE4F2491FC01C5
:1015E000E659FE4F84918823A1F090E0880F991F5F
:1015F000FC01E653FF4F45915491FC01E45AFE4F24
:10160000859194918FB7F894FA019081922B9083F1
:101610008FBFF2E0AC3ABF07D9F60E94D9060E940C
:10162000D9060E94D9060E94D90610928B02109208
:101630008A02109286021092850210928102109204
:10164000800210927C0210927B02888122960E9476
:101650007C0622E0CC3AD207C1F764E670E080E075
:1016600090E00E949A018BE8E82EFF24F39490E02A
:10167000C92E90E0D92E8CE192E00E945B01892B6B
:10168000D1F38CE192E00E941D038093C401833664
:1016900009F03FC004EA11E0C0E06C2F87E892E057
:1016A0000E94E2036C2F82E892E00E94E2036C2F1A
:1016B0008DE792E00E94E2036C2F88E792E00E949F
:1016C000E203C7010197F1F76C2F87E892E00E94CF
:1016D0006103F801819391938F016C2F82E892E06E
:1016E0000E946103F801978386836C2F8DE792E057
:1016F0000E946103F801978786876C2F88E792E044
:101700000E946103F801978B868BCF5FC43029F666
:101710001DC08136A1F4C4EAD1E08E0168818CE15C
:1017200092E00E943A012296F80161818CE192E0F8
:101730000E943A01F1E0C43CDF0779F707C089361F
:1017400029F469E48CE192E00E943A01C114D104C9
:1017500009F491CF0E9400008ECFECE1F2E01382F9
:10176000128288EE93E0A0E0B0E084839583A683A4
:10177000B78327E131E0318320832FEF3FEF3587B7
:101780002487ECE6F2E01382128284839583A68399
:10179000B78387E291E091838083ECE8F2E08BE00D
:1017A00090E0918380838AE090E09383828389E054
:1017B00090E09583848388E090E09783868387E038
:1017C00090E09187808786E090E09387828785E02C
:1017D00090E09587848784E090E09787868783E10F
:1017E00090E0918B808B82E190E0938B828B8DE0F7
:1017F00090E0958B848B8CE090E0978B868B87E1D3
:1018000090E0918F808F86E190E0938F828F85E1C9
:1018100090E0958F848F84E190E0978F868FE7E842
:10182000F2E088E4808391E0918384E082831482F3
:101830001382E2E8F2E029E4208391838283148218
:101840001382EDE7F2E02AE42083918382831482FD
:101850001382E8E7F2E02BE42083918382831482F1
:1018600013820895EE0FFF1F0590F491E02D099467
:0E18700081E090E0F8940C943D0CF894FFCFCA
:10187E00FFFFFFFF00E100000000000000C18081BB
:10188E00000000000000003A01D4015B011D033B83
:10189E0003500100000000EE02BE02B602A2029347
:0418AE0002920200A0
:00000001FF
