:100000000C94E4000C940C010C940C010C940C0165
:100010000C940C010C940C010C940C010C940C012C
:100020000C940C010C940C010C9493070C94010992
:100030000C940C010C940C010C940C010C940C010C
:100040000C940C010C940C010C940C010C940C01FC
:100050000C940C010C940C010C940C010C94FF03F7
:100060000C940C010C940C010C940C010C940C01DC
:100070000C940C010C940C010C940C010C940C01CC
:100080000C940C010C940C010C940C010C940C01BC
:100090000C9449040C940C010C940C010C940C016C
:1000A0000C940C010C940C010C940C01C805CB05AC
:1000B000BA05BE05C205EC05EC05EC05CF05D30578
:1000C000D705DD05E105EC05E7050000000024008B
:1000D00027002A002D003000000000002500280025
:1000E0002B002E0031000404040404030405020262
:1000F00002020403020202020606060606060404C1
:100100000202020404040802011040804010204052
:1001100080408008020401804020100201108010FD
:10012000204040200000000200090F0000030401ED
:10013000000C0000000000000000000000000000B3
:10014000000000080B000202020100090400000187
:10015000020200000524001001052401010104240D
:10016000020605240600010705810310004009046A
:100170000100020A00000007050202400000070516
:1001800083024000000403090441726475696E6FC4
:10019000204C4C430041726475696E6F2059756E36
:1001A00000120100020000004041234180000101D3
:1001B00002030112010002EF0201404123418000CD
:1001C0000101020301005E0F11241FBECFEFDAE030
:1001D000DEBFCDBF11E0A0E0B1E0E0EEF5E202C08D
:1001E00005900D92A039B107D9F723E0A0E9B1E05D
:1001F00001C01D92AE36B207E1F710E0C4EED0E0C8
:1002000004C02197FE010E940910C33ED107C9F71F
:100210000E949C0B0C94EE120C940000CF93DF9381
:100220001F92CDB7DEB76983DC01ED91FC910280AE
:10023000F381E02D41E050E0BE016F5F7F4F0995F3
:100240000F90DF91CF91089583E08093E900809132
:10025000F200882319F08AE38093E8000895FC01F6
:100260008485958597FD0BC09FB7F89482E08093B5
:10027000E9008091F2009FBF90E0019608959FB73A
:10028000F89482E08093E9008091F2009FBF90E0B3
:1002900008953FB7F8948091FC019091FD01A091E1
:1002A000FE01B091FF0126B5A89B05C02F3F19F0B4
:1002B0000196A11DB11D3FBFBA2FA92F982F8827E6
:1002C000820F911DA11DB11DBC01CD0142E0660F41
:1002D000771F881F991F4A95D1F708958F929F9293
:1002E000AF92BF92CF92DF92EF92FF926B017C01AF
:1002F0000E9449014B015C01C114D104E104F104E5
:10030000F1F00E944901DC01CB0188199909AA0981
:10031000BB09883E9340A105B10570F321E0C21AE4
:10032000D108E108F10888EE880E83E0981EA11C30
:10033000B11CC114D104E104F10419F7DDCFFF9021
:10034000EF90DF90CF90BF90AF909F908F900895E7
:100350008F929F92AF92BF92CF92DF92EF92FF92D5
:100360000F931F93CF93DF935C016B018A01809100
:100370000B01882309F45EC080913102882309F4BF
:1003800059C080912E0280FF05C08091E0008260FC
:100390008093E000E8018AEFF82E93E0E92E2FE346
:1003A000822E3AE3932E209709F43DC08FB7F8943C
:1003B000E092E9009091E80095FF06C09091F2006C
:1003C000282D291B922F01C090E08FBF91110AC0E8
:1003D000FA94FF2079F161E070E080E090E00E9403
:1003E0006E01E1CF292F30E0C217D3070CF49C2F08
:1003F0008FB7F894E092E9002091E80025FF11C042
:10040000292F30E0C21BD30BF601915020F041910F
:100410004093F100FACFC20ED31E9091E80095FFF1
:1004200013C08FBFC0CF5D9884E680932F02101653
:10043000110644F081E090E0F5019383828380E02F
:1004400090E005C0C80103C09092E800EACFDF91B8
:10045000CF911F910F91FF90EF90DF90CF90BF90C1
:10046000AF909F908F9008952FB7F8946091F80106
:100470007091F9018091FA019091FB012FBF0895CD
:1004800085ED8093BC008091BC0084FDFCCF109270
:100490007A0208954091B201262F30E0240F311DD9
:1004A00021323105DCF420917A022430C9F4FC01B8
:1004B00080E090E0861758F43091B2012191DC0180
:1004C000A057BE4FA30FB11D2C930196F3CF80917F
:1004D000B201680F6093B20180E0089581E0089551
:1004E00082E008950895E0917E0280917D02E817F0
:1004F00030F4F0E0E952FE4F808190E008958FEFF4
:100500009FEF089590917E0280917D02981750F49C
:10051000E92FF0E0E952FE4F208130E09F5F909399
:100520007E0202C02FEF3FEFC901089580917D0246
:1005300090E020917E02821B91090895CF92DF9274
:10054000EF92FF920F931F93CF93DF937C01262F9F
:10055000972F8A0180915602882391F0C62FD72FBA
:100560006E01C40ED51ECC15DD0571F06991D70161
:10057000ED91FC910190F081E02DC7010995F3CF39
:10058000642F822F0E944A02C801DF91CF911F91F0
:100590000F91FF90EF90DF90CF900895CF93DF936E
:1005A0001F92CDB7DEB76983209156022223D1F086
:1005B00020917B02203240F021E030E0FC013383C7
:1005C000228380E090E015C080917C02E82FF0E06B
:1005D000E95AFD4F998190838F5F80937C028093CD
:1005E0007B0205C061E0CE0101960E944A0281E0D3
:1005F00090E00F90DF91CF9108950F931F93CF93C9
:10060000DF931F92CDB7DEB78C01FC018485958501
:1006100097FF0EC0CE0101960E949B06019719F428
:10062000298130E002C02FEF3FEFF80135872487A2
:10063000F801848595850F90DF91CF911F910F91DF
:100640000895CF93DF931F92CDB7DEB7FC01848569
:10065000958597FD05C02FEF3FEF358724870BC0A9
:10066000CE0101960E949B06019719F4898190E0C2
:1006700002C08FEF9FEF0F90DF91CF9108950E94FE
:100680001A12FF920F931F93CF93DF93643008F0F9
:1006900071C08C01FC01F08081E080935602F092E1
:1006A000770210927C0210927B0260E087E193E077
:1006B0000E94CE0281E00E941F0680917A02811181
:1006C000FCCF81E080937A02809379029FEF909330
:1006D000550210925402809353028093320280910B
:1006E0003202FF0CF82AF0923202809178028130B7
:1006F00061F410927802809132028093BB00809165
:10070000BC0083FDF8CF85EC01C085EE8093BC0072
:1007100080917A028130E1F380915402823018F4A2
:100720008091540201C082E0A3E3B2E027ED31E002
:10073000F9019E2F921B981718F49D919193F9CF70
:1007400010927E0280937D0287E193E00E948202F4
:10075000F82E87E193E00E948202DF2DF0E0CF2F98
:10076000C82BCE01F801028002C0969587950A94A5
:10077000E2F702C080E090E0DF91CF911F910F91EE
:10078000FF900895CF93DF93262F6430A8F5FC01E6
:1007900063817481223051F0233059F0213019F0F7
:1007A0006368716408C06368716505C063687166D9
:1007B00002C063687167FC01EB01D068808191E041
:1007C000909356028093770210927C0210927B02E3
:1007D00061E087E193E00E94CE026D2F87E193E014
:1007E0000E94CE026C2F87E193E00E94CE0281E04E
:1007F000DF91CF910C941F06DF91CF9108951F9246
:100800000F920FB60F9211242F933F938F939F93C4
:10081000AF93BF938091F8019091F901A091FA01F3
:10082000B091FB013091F70123E0230F2D3720F425
:100830000196A11DB11D05C026E8230F0296A11D3A
:10084000B11D2093F7018093F8019093F901A093D3
:10085000FA01B093FB018091FC019091FD01A09100
:10086000FE01B091FF010196A11DB11D8093FC0115
:100870009093FD01A093FE01B093FF01BF91AF9152
:100880009F918F913F912F910F900FBE0F901F90CE
:1008900018951F920F920FB60F9211242F933F932A
:1008A0004F935F936F937F938F939F93AF93BF9378
:1008B000EF93FF938091B900887F803609F49CC044
:1008C00068F5883209F45BC090F4803109F454C0B3
:1008D00038F4882309F4F6C0883009F44DC0F6C016
:1008E000883109F44CC0803209F45DC0EFC0803417
:1008F00009F468C048F4803309F455C0883309F01E
:10090000E5C080935502D8C0803509F44FC08835C2
:1009100009F45DC0883409F0D9C0D6C0883909F41B
:10092000C7C0A8F4883709F467C038F4883609F4DA
:1009300063C0803709F460C0C9C0883809F4B8C002
:10094000803909F45FC0803809F0C0C05BC0803BCB
:1009500009F486C038F4803A09F466C0883A09F48C
:100960007FC0B4C0803C09F4A7C0883C09F4A4C08F
:10097000883B09F48AC0AAC08091320210C09091CD
:10098000540280915302981770F5E091540281E06F
:100990008E0F80935402F0E0ED5CFD4F80818093D8
:1009A000BB0085EC86C0809355028EC0E091540256
:1009B00081E08E0F809354028091BB00F0E0ED5CEB
:1009C000FD4F808390915402809153026EC0E0915C
:1009D000540281E08E0F809354028091BB00F0E0BE
:1009E000ED5CFD4F80838091790281116DC081E0C3
:1009F0008093780284EA61C083E080937A02109247
:100A0000D601CFCF8091D601803208F051C0E0915D
:100A1000D60181E08E0F8093D6018091BB00F0E07B
:100A2000EA54FE4F8083BDCF85EC8093BC001092CA
:100A30007A028091D601803230F4E091D601F0E064
:100A4000EA54FE4F10826091D60170E0E091B4014B
:100A5000F091B50186EB91E009951092D60136C070
:100A600084E080937A021092B3011092B201E09177
:100A7000B001F091B10109958091B201811105C0D9
:100A800081E08093B20110929001E091B30181E086
:100A90008E0F8093B301F0E0E057FE4F808180938A
:100AA000BB009091B3018091B201981708F479CFFF
:100AB00085E88093BC000AC085EC8093BC0010924E
:100AC0007A0204C0109255020E944002FF91EF91F9
:100AD000BF91AF919F918F917F916F915F914F9156
:100AE0003F912F910F900FBE0F901F9018950F936D
:100AF0001F93CF93DF93EC0188819981009729F0B0
:100B00002A813B812617370788F48B016F5F7F4F5F
:100B10000E945011009761F0998388831B830A8398
:100B20002C813D81232B11F4FC01108281E001C056
:100B300080E0DF91CF911F910F91089590E0FC012B
:100B4000EC5DFE4F4491FC01EB5FFE4F2491FC01F4
:100B5000EA51FF4F8491882309F44CC04423E1F10A
:100B600050E0FA013197EF30F105B0F5EA5AFF4F46
:100B70000C940910909180009F7707C0909180009D
:100B80009F7D03C090918000977F9093800024C048
:100B900094B59F7702C094B59F7D94BD1DC0909180
:100BA00090009F7707C0909190009F7D03C0909127
:100BB0009000977F909390000FC09091C0009F7716
:100BC00003C09091C0009F7D9093C00005C090919C
:100BD000C200977F9093C200E82FF0E0EE0FFF1F56
:100BE000E852FF4FA591B4918FB7F894EC912E2B5A
:100BF0002C938FBF089510927E0210927D02109266
:100C00007C0210927B0210927A0281E0809379023A
:100C10001092780282E00E949E0583E00E949E0569
:100C2000E9EBF0E080818E7F808380818D7F8083FF
:100C300088E48093B80085E48093BC000895382F41
:100C400020917B0290917702213208F049C0809177
:100C50007A028111FCCF42E040937A02309379020C
:100C60003FEF309355021092540220935302A7E5B0
:100C7000B2E043E352E0FA013E2F341B321718F47E
:100C80003D913193F9CF1092320220913202990FA7
:100C9000922B9093320290917802913061F41092ED
:100CA0007802909132029093BB009091BC0093FD2A
:100CB000F8CF95EC01C095EE9093BC0090917A022C
:100CC0009230E1F3909155029F3F79F08091550267
:100CD000803241F080915502803331F084E005C0CC
:100CE00081E003C082E001C083E010927C02109298
:100CF0007B02109256020895CF93DF93E0917F021A
:100D0000F0918002DC0114964D915C9115976D91E4
:100D10007C910280F381E02D8FE792E00995EC0150
:100D200068E471E08FE792E00E943E0B8C0F9D1FFC
:100D3000DF91CF910895FC0180913102811103C0B0
:100D40008FEF9FEF08959FB7F89482E08093E900BA
:100D50002091F20030E01216130614F421E030E086
:100D60002115310559F0289884E68093300280914E
:100D7000F10080838091F200882319F09FBFC901A0
:100D800008958BE68093E800F9CF80915B03811191
:100D90000DC082E08093570384E080935803109243
:100DA0005A031092590381E080935B0387E593E037
:100DB0000895CF93DF93EC0188819981009711F01A
:100DC0000E94B810198218821D821C821B821A820E
:100DD000DF91CF910895CF92DF92EF92FF920F9320
:100DE0001F93CF93DF93CDB7DEB728970FB6F89454
:100DF000DEBF0FBECDBF8C01CB014AE09E012F5F4D
:100E00003F4F6901B9010E942F12F60101900020A5
:100E1000E9F73197EC19FD09D8011496ED90FC9093
:100E200015973097D9F0EE0EFF1EB701C8010E944A
:100E30007705882381F0F8012081318184819581B3
:100E4000B601820F931F0E942812D8011596FC92BA
:100E5000EE92149703C0C8010E94D906C8012896D3
:100E60000FB6F894DEBF0FBECDBFDF91CF911F91BB
:100E70000F91FF90EF90DF90CF900895EF92FF9247
:100E80000F931F93CF93DF93EC017B0161157105E5
:100E9000F1F0FB0101900020E9F73197E61BF70B19
:100EA0000C811D813097B1F00E0F1F1FB8010E94F9
:100EB0007705882361F0288139818C819D81B70174
:100EC000820F931F0E9428121D830C8303C0CE0142
:100ED0000E94D906CE01DF91CF911F910F91FF9013
:100EE000EF900895EF92FF920F931F93CF93DF93AC
:100EF000EC017B018A01BA010E947705811104C0CF
:100F0000CE010E94D90607C01D830C83B7018881DA
:100F100099810E942812CE01DF91CF911F910F91EC
:100F2000FF90EF9008951F920F920FB60F92112429
:100F30008F939F938091E1009091E100937F909334
:100F4000E10083FF0FC01092E90091E09093EB0065
:100F50001092EC0092E39093ED001092310298E031
:100F60009093F00082FF20C093E09093E90090916D
:100F7000F200992319F09AE39093E80090912F02E0
:100F8000992339F090912F02915090932F02992339
:100F900089F190913002992339F09091300291506B
:100FA00090933002992341F184FF10C08091E200B8
:100FB0008E7E81608093E2008091E1008F7E80933D
:100FC000E10080912E028E7E806111C080FF16C0EC
:100FD0008091E2008E7E80618093E2008091E1004A
:100FE0008E7E8093E10080912E028E7E81608093C0
:100FF0002E0204C05D9ACDCF289AD6CF9F918F91B3
:101000000F900FBE0F901F9018954091680350915C
:101010006903209166033091670342175307B4F4C4
:101020009091E8009570E1F39091E80092FD19C06D
:101030008093F100809168039091690301968F730A
:101040009927892B19F48EEF8093E800809168032B
:10105000909169030196909369038093680381E0FE
:10106000089580E00895CF92DF92EF92FF920F9360
:101070001F93CF93DF931F92CDB7DEB7182F062FA4
:10108000E42E862F880F8E5F99830E94050883E0E7
:101090000E940508F12EC12E9981D92E8C2D8F1911
:1010A000801798F4F601E7FE02C0849101C08081A8
:1010B0000E940508182F80E00E9405088123FFEF99
:1010C000CF1ADF0A8111EACF01C081E00F90DF91D2
:1010D000CF911F910F91FF90EF90DF90CF900895E7
:1010E000DF92EF92FF920F931F93CF93DF93D82E4F
:1010F0008A017B01E40EF51EEB01CE15DF0571F0D0
:10110000D7FE03C0FE01849101C088810E940508BA
:1011100021968111F2CF8FEF9FEF01C0C801DF91BF
:10112000CF911F910F91FF90EF90DF900895615044
:1011300030F02091F100FC0120830196F8CF28982F
:1011400084E6809330020895CF92DF92EF92FF926F
:101150000F931F93CF93DF936C017A018B01C0E053
:10116000D0E0CE15DF0589F0D8016D918D01D60153
:10117000ED91FC910190F081E02DC6010995892B3C
:1011800011F47E0102C02196ECCFC701DF91CF910F
:101190001F910F91FF90EF90DF90CF9008950F93E4
:1011A0001F93CF93DF931F92CDB7DEB782E0898381
:1011B00042E450E063E471E080E80E9470080E941D
:1011C000C506DC0112960D911C91139701151105AE
:1011D00069F0D801ED91FC910280F381E02DBE0110
:1011E0006F5F7F4FC801099597FF07C089810F90F6
:1011F000DF91CF911F910F910895F801008511851E
:10120000E5CF1F920F920FB60F921124CF92DF926B
:10121000EF92FF920F931F932F933F934F935F9300
:101220006F937F938F939F93AF93BF93EF93FF93AE
:10123000CF93DF93CDB7DEB76C97DEBFCDBF1092F3
:10124000E9008091E80083FFFAC168E0CE0145968D
:101250000E94970882EF8093E8008D8987FF05C080
:101260009091E80090FFFCCF03C09EEF9093E800C0
:10127000982F907609F0C6C09E892F89188D9111FC
:101280000CC0803829F4809164038093F10002C07F
:101290001092F1001092F10047C1422F50E0512B03
:1012A000913051F4811140C14130510509F03CC1E8
:1012B000809164038D7F0BC0933061F4811134C140
:1012C0004130510509F030C1809164038260809300
:1012D00064032AC1953041F48091E80080FFFCCF7F
:1012E00020682093E30020C1963009F05FC0EB8CAA
:1012F000FC8C1092E900109269031092680312307E
:1013000091F510926703109266030E94CF0899E04E
:10131000BE016F5F7F4FDB01E92F1D92EA95E9F770
:1013200099831A8391E09E8390EA98879AEF998730
:101330002091680330916903275F3F4F3C832B83E3
:101340008D831092E9001092690310926803F09265
:101350006703E092660349E050E080E00E94700875
:101360000E94CF08E1C0F0926703E09266030E94FA
:10137000C506DC011296ED90FC901397E114F10480
:1013800009F4C0C0D701ED91FC910480F581E02DF6
:10139000BE016B5E7F4FC7010995009719F00CF0F5
:1013A000C3C0C6C0F701E084F184E8CF973009F4E8
:1013B000BFC0983021F481E08093F100B5C099302E
:1013C00009F0B2C0837009F0B3C0E3E3F1E081E05B
:1013D00021E036E39081992361F08093E900209326
:1013E000EB0091919093EC003093ED008F5F87308C
:1013F00089F78EE78093EA001092EA008F89809344
:10140000310292C08B8D9C8D1092E900109269037D
:10141000109268039093670380936603898D81110E
:1014200056C08E899D89913A59F4813209F080C065
:1014300047E050E064E071E080E00E94700874C012
:10144000913209F075C0833289F4888D90E0982F2D
:1014500088272F89822BA0E0B0E080930001909331
:101460000101A0930201B09303015EC0803269F4D0
:101470008091E80082FFFCCF67E084E091E00E9469
:1014800097088BEF8093E80006C0823209F04CC0C9
:101490008F8980930B0180916303882319F0EEEF0D
:1014A000FAE002C0E0E0F8E08091040190910501CB
:1014B000A0910601B0910701803B9440A105B105C0
:1014C00009F088C080910B0180FFA0C083C00E94FA
:1014D000C506DC0112960D911C911397011511059B
:1014E00039F1D801ED91FC910190F081E02DBE0120
:1014F0006B5E7F4FC8010995811116C0F801008508
:101500001185ECCF1130C1F0133091F48F8988230D
:1015100009F455C08230E9F440E86BE085E991E0D8
:101520000E943308882321F08EEF8093E80087C063
:1015300081E28093EB0083C08B8D9C8D089711F422
:101540001093650380916503811136C061EA71E0F3
:1015500038C0813029F440E86BE089E891E0E0CFC1
:10156000833031F70E94C506DC011296ED90FC90A5
:1015700013978E010F5F1F4F6801E114F10479F09A
:10158000D701ED91FC910680F781E02DB801C701EC
:101590000995080F111DF701E084F184EECFD80101
:1015A0001C92F60101900020E9F73197BF016C19F8
:1015B0007D0940E0C601B4CF63EB71E002C065E88D
:1015C00071E06115710509F4B3CFFB01449150E05E
:1015D00080E833CF0FB6F894A895809160008861B9
:1015E00080936000109260000FBEA895EE3F2AE045
:1015F000F20739F08091FE0A9091FF0A918380836F
:1016000093CF1092FF0A1092FE0A8ECFEE3F8AE02F
:10161000F80731F0808191819093FF0A8093FE0A50
:1016200087E797E7918380839BE088E10FB6F89482
:10163000A895809360000FBE9093600075CF6C9664
:101640000FB6F894DEBF0FBECDBFDF91CF91FF91F3
:10165000EF91BF91AF919F918F917F916F915F912A
:101660004F913F912F911F910F91FF90EF90DF903D
:10167000CF900F900FBE0F901F90189561157105B8
:1016800079F0FB0101900020E9F73197AF01461B8B
:10169000570BDC01ED91FC910280F381E02D099460
:1016A00080E090E008954F925F926F927F92EF9268
:1016B000FF920F931F93CF93DF93CDB7DEB7A19720
:1016C0000FB6F894DEBF0FBECDBF7C01FA01CB018F
:1016D00019A2223008F42AE08E010F5D1F4F422E1E
:1016E000512C612C712CBF01A30192010E94951213
:1016F000F901CA01015011096A3014F4605D01C09A
:10170000695CD8016C93232B242B252B61F7B8013E
:10171000C7010E943E0BA1960FB6F894DEBF0FBE24
:10172000CDBFDF91CF911F910F91FF90EF907F90F0
:101730006F905F904F900895CF93DF93CDB7DEB752
:10174000AC970FB6F894DEBF0FBECDBF789484B5CA
:10175000826084BD84B5816084BD85B5826085BDAD
:1017600085B5816085BD80916E00816080936E003B
:10177000109281008091810082608093810080912D
:1017800081008160809381008091800081608093DE
:1017900080008091910082608093910080919100FF
:1017A000816080939100809190008160809390008F
:1017B0008091C10084608093C1008091C1008260EB
:1017C0008093C1008091C10081608093C1008091AD
:1017D000C30081608093C3008091C00082608093C9
:1017E000C0008091C20081608093C20080917A0025
:1017F000846080937A0080917A00826080937A007E
:1018000080917A00816080937A0080917A0080686C
:1018100080937A00109231021092640310922E028B
:101820008091D70081608093D70080EA8093D800B0
:1018300089B5806189BD89B5826089BD09B400FE22
:10184000FDCF61E070E080E090E00E946E01809149
:10185000D8008F7C80618093D8008091E000807FE9
:101860008093E0008091E1008E7E8093E1008DE026
:101870008093E200559A209AEEEFFFE785919491CC
:101880008B3F9C4D19F481E0809363031092130306
:101890001092140310921503109216031092D102A5
:1018A0001092D2021092D3021092D40260ED77E02F
:1018B00080E090E00E946E018FE792E09093120327
:1018C000809311030BE110E0F0900B016AE070E0EF
:1018D00080E090E00E946E01F1100AC001501109F1
:1018E00039F064E670E080E090E00E946E01ECCF99
:1018F000E0911103F09112030FEF1FEF158704879A
:101900000E9434026093D1027093D2028093D3027A
:101910009093D40269E371E08091110390911203D6
:101920000E943E0B6AE070E080E090E00E946E0151
:1019300081E08093E50210938C0200938B0210915A
:101940000B016AE070E080E090E00E946E011123DC
:10195000B1F307E313E0D8018D919D919927FC0124
:10196000EB5FFE4F4491FC01EA51FF4F84918823C5
:10197000A1F090E0880F991FFC01E653FF4F2591DD
:101980003491FC01E852FF4F859194918FB7F89400
:10199000F9019081942B90838FBFF3E0A735BF07A7
:1019A000D9F60E94FB050E94FB050E94FB050E94E0
:1019B000FB051092360310923503109231031092FA
:1019C000300310922C0310922B03109227031092D5
:1019D0002603D8018C910E5F1F4F0E949E05B3E035
:1019E00007351B07B1F764E670E080E090E00E94E5
:1019F0006E018E010F5F1F4FFE01B196FAA7E9A796
:101A000024EF422E55245394612C712C0E943402F1
:101A1000672B682B692B41F40E94340262307105F8
:101A20008105910508F40BC10E94340260932A02DB
:101A300070932B0280932C0290932D02C09026026B
:101A4000D0902702E0902802F09029026C157D05C5
:101A50008E059F0540F460932602709327028093C1
:101A6000280290932902C0902602D0902702E0908D
:101A70002802F09029029B01AC012C193D094E0966
:101A80005F0969017A013AEFC316D104E104F10458
:101A900008F4D5C060932602709327028093280231
:101AA000909329024092DD025092DE026092DF02A2
:101AB0007092E0021092E1021092E2021092E302B0
:101AC0001092E4028091D5029091D602A091D702A3
:101AD000B091D8028093D9029093DA02A093DB02EE
:101AE000B093DC020E9434026093D5027093D60258
:101AF0008093D7029093D8020E9434026093D1025F
:101B00007093D2028093D3029093D4020E94340245
:101B10006B017C016BE471E08091110390911203E1
:101B20000E943E0B2AE041E050E060E070E08091CE
:101B30001103909112030E94530B62E571E08091B2
:101B40001103909112030E943E0B2AE0B701A601F7
:101B500080911103909112030E94530B64E571E090
:101B600080911103909112030E943E0B8091D50247
:101B70009091D602A091D702B091D802B701A601E8
:101B8000481B590B6A0B7B0B2AE080911103909143
:101B900012030E94530B64E571E080911103909150
:101BA00012030E943E0B4091D5025091D6026091E3
:101BB000D7027091D8028091D9029091DA02A09157
:101BC000DB02B091DC02481B590B6A0B7B0B2AE04D
:101BD00080911103909112030E94530B66E571E00E
:101BE00080911103909112030E943E0B0E943402D7
:101BF000AB01BC012AE080911103909112030E9475
:101C0000530BE0901103F090120368E571E0C701F7
:101C10000E943E0B68E471E0C7010E943E0B65E044
:101C200070E080E090E00E946E010E9434026093B8
:101C3000D5027093D6028093D7029093D8020E9467
:101C400049014B015C01609322027093230280934F
:101C500024029093250280E2D8011D928A95E9F72B
:101C60009AE0C92ED12C22E032E03CA72BA77901C3
:101C7000312C632D82E393E00E94C203632D8DE239
:101C800093E00E94C203632D88E293E00E94C203A6
:101C9000632D83E293E00E94C2038BE891E00197F9
:101CA000F1F7632D82E393E00E944103F7018193F2
:101CB00091937F01632D8DE293E00E944103D70150
:101CC00017969C938E931697632D88E293E00E945B
:101CD0004103F70197878687632D83E293E00E9493
:101CE0004103D70157969C938E9356973394B4E053
:101CF0003B12BFCF9801F801A2E0B2E08D919D9117
:101D000040815181840F951F8193919349A55AA5D4
:101D1000E417F50799F751E0C51AD10809F0A3CFE8
:101D2000E2E0F2E08AE0E82EF12CD9018D919D915C
:101D30009D01B7010E94F50F6193719349A55AA5C2
:101D40002417350791F70E944901DC01CB0188195E
:101D50009909AA09BB098093220290932302A093B8
:101D60002402B0932502E12CF12CABA5BCA5CD90AB
:101D7000DD90BCA7ABA71CA21BA21EA21DA218A689
:101D80001FA247E050E06FE571E0CE0183960E940C
:101D900072071A8219821C821B821E821D826BA10D
:101DA0007CA16115710529F04FA158A5C8010E94B9
:101DB0007207B701C8010E94EB0667E671E00E9456
:101DC0003E07B6010E94EB060E947C0689819A813B
:101DD0000E94B8108BA19CA10E94B810BFEFEB1A13
:101DE000FB0AE0E1EE16F10409F0BFCFE09000023B
:101DF000F0900102609122027091230280912402EE
:101E0000909125021CA21BA21EA21DA218A61FA211
:101E10002AE0A8010E943A12F80101900020E9F797
:101E20003197AF01401B510BB801CE0183960E9440
:101E300072071A8219821C821B821E821D826BA16C
:101E40007CA16115710529F04FA158A5C8010E9418
:101E500072076BE671E0C8010E943E07B7010E945D
:101E6000EB060E947C0689819A810E94B8108BA1A2
:101E70009CA10E94B81061E771E08FE792E00E9498
:101E80003E0B68E471E08FE792E00E943E0B809188
:101E9000000290910102019690930102809300024A
:101EA00068EC70E080E090E00E946E0180E090E0DD
:101EB000892B09F4ABCD0E940000A8CDEFE7F2E03A
:101EC0001382128288EE93E0A0E0B0E084839583D1
:101ED000A683B78326E131E0318320832FEF3FEFE4
:101EE00035872487EFECF2E0168217821086118680
:101EF000128613861486158616861786108A118A0E
:101F0000128A138A148A158AE7E1F3E01382128297
:101F100084839583A683B78386E291E0918380834F
:101F2000E7E3F3E08BE090E0918380838AE090E048
:101F30009383828389E090E09583848388E090E0B6
:101F40009783868387E090E09187808786E090E0A2
:101F50009387828785E090E09587848784E090E08E
:101F60009787868783E190E0918B808B82E190E078
:101F7000938B828B8DE090E0958B848B8CE090E04E
:101F8000978B868B87E190E0918F808F86E190E040
:101F9000938F828F85E190E0958F848F84E190E02C
:101FA000978F868FE2E3F3E088E4808391E091836A
:101FB00084E0828314821382EDE2F3E029E420833B
:101FC0009183828314821382E8E2F3E02AE420837F
:101FD0009183828314821382E3E2F3E02BE4208373
:101FE0009183828314821382089597FB072E16F43F
:101FF000009407D077FD09D00E940F1007FC05D090
:102000003EF4909581959F4F0895709561957F4F0F
:102010000895EE0FFF1F0590F491E02D0994AA1B7F
:10202000BB1B51E107C0AA1FBB1FA617B70710F0C3
:10203000A61BB70B881F991F5A95A9F780959095F5
:10204000BC01CD010895CF93DF938230910510F448
:1020500082E090E0E0916C03F0916D0320E030E0CD
:10206000C0E0D0E0309711F1408151814817590705
:10207000C0F04817590761F482819381209719F0C5
:102080009B838A832BC090936D0380936C0326C03F
:102090002115310519F04217530718F49A01BE01B2
:1020A000DF01EF010280F381E02DDCCF2115310546
:1020B00009F1281B390B2430310590F412968D91CB
:1020C0009C9113976115710521F0FB019383828325
:1020D00004C090936D0380936C03FD01329644C05D
:1020E000FD01E20FF31F81939193225031092D934B
:1020F0003C933AC020916A0330916B03232B41F447
:1021000020910E0130910F0130936B0320936A03ED
:1021100020910C0130910D012115310541F42DB7AD
:102120003EB74091100150911101241B350BE091F5
:102130006A03F0916B03E217F307A0F42E1B3F0B29
:102140002817390778F0AC014E5F5F4F2417350729
:1021500048F04E0F5F1F50936B0340936A038193C7
:10216000919302C0E0E0F0E0CF01DF91CF910895BC
:102170000F931F93CF93DF93009709F48CC0FC015A
:1021800032971382128200916C0310916D03011536
:10219000110581F420813181820F931F20916A0300
:1021A00030916B032817390779F5F0936B03E093AF
:1021B0006A0371C0D80140E050E0AE17BF0750F489
:1021C00012962D913C911397AD012115310509F11E
:1021D000D901F3CF9D01DA013383228360817181BC
:1021E000860F971F8217930769F4EC0128813981C4
:1021F000260F371F2E5F3F4F318320838A819B81BB
:1022000093838283452B29F4F0936D03E0936C0351
:1022100042C01396FC93EE931297ED0149915991A8
:102220009E01240F351FE217F30771F4808191811D
:10223000840F951F029611969C938E9382819381B1
:1022400013969C938E931297E0E0F0E0D8011296DB
:102250008D919C911397009719F0F8018C01F6CF9E
:102260008D919C9198012E5F3F4F820F931F20917B
:102270006A0330916B032817390769F4309729F402
:1022800010926D0310926C0302C01382128210939D
:102290006B0300936A03DF91CF911F910F91089513
:1022A000A0E0B0E0E6E5F1E10C94BB12EC01009790
:1022B00021F4CB010E942310B8C0FC01E60FF71FE8
:1022C0009C0122503109E217F30708F4ACC0D90190
:1022D0000D911C91119706171707B0F005301105E5
:1022E00008F49FC0C80104978617970708F499C09F
:1022F00002501109061B170B019311936D937C93E8
:10230000CF010E94B8108DC05B01A01AB10A4C0128
:10231000800E911EA0916C03B0916D0340E050E0DF
:10232000E12CF12C109709F44AC0A815B905D1F594
:102330006D907C901197630182E0C80ED11CCA1485
:10234000DB0480F1A3014A195B096A0182E0C80E2F
:10235000D11C1296BC9012971396AC91B5E0CB1697
:10236000D10440F0B282A38351834083D9016D939D
:102370007C930AC00E5F1F4FC301800F911FF901AC
:1023800091838083EB2DFA2FE114F10431F0D70112
:102390001396FC93EE93129744C0F0936D03E09371
:1023A0006C033FC08D919C9111974817590708F411
:1023B000AC017D0112960D90BC91A02DB3CF809100
:1023C0006A0390916B0388159905E1F44617570746
:1023D000C8F480910C0190910D01009741F48DB7E4
:1023E0009EB74091100150911101841B950BE81785
:1023F000F907C8F4F0936B03E0936A03F901718362
:1024000060830FC0CB010E9423107C01009759F01C
:10241000A801BE010E941F12CE010E94B810C70180
:1024200004C0CE0102C080E090E0CDB7DEB7EEE0A0
:102430000C94D71281E090E0F8940C94EE12FB011A
:10244000DC0102C001900D9241505040D8F7089530
:10245000FB01DC0101900D920020E1F70895BB27FC
:102460004A3031F4992322F4BDE2909581959F4F33
:102470000C946C12BB272A3051F4992342F4BDE22C
:1024800090958095709561957F4F8F4F9F4F0C94DD
:102490004A12BB27FA01A62F621771058105910523
:1024A000330B30FB66F0AA27660F771F881F991F32
:1024B000AA1FA21710F0A21B63953850A9F7A05DC0
:1024C000AA3308F0A95DA19336F7B111B193108238
:1024D000CA010C948512BB27FB015527AA27880F38
:1024E000991FAA1FA41710F0A41B83955051B9F788
:1024F000A05DAA3308F0A95DA193009779F7B11107
:10250000B1931192CB010C948512DC01FC01672F71
:1025100071917723E1F7329704C07C916D937083BA
:102520006291AE17BF07C8F30895A1E21A2EAA1B45
:10253000BB1BFD010DC0AA1FBB1FEE1FFF1FA21773
:10254000B307E407F50720F0A21BB30BE40BF50B70
:10255000661F771F881F991F1A9469F760957095F9
:10256000809590959B01AC01BD01CF0108952F92FC
:102570003F924F925F926F927F928F929F92AF9213
:10258000BF92CF92DF92EF92FF920F931F93CF9360
:10259000DF93CDB7DEB7CA1BDB0B0FB6F894DEBFF7
:1025A0000FBECDBF09942A88398848885F846E841D
:1025B0007D848C849B84AA84B984C884DF80EE8067
:1025C000FD800C811B81AA81B981CE0FD11D0FB670
:1025D000F894DEBF0FBECDBFED010895F894FFCF94
:1025E000FFFFFFFF00E100000000000000006E039D
:1025F0008000000000000E01A8012F012103FD0250
:10260000240100000000CE029E02960282027302A4
:10261000720200C18081000000564D4450565F3167
:102620007C315F564D4450560D0A00564D4450457E
:102630005F003A323A007C005F564D4450450053EB
:10264000656E736F722000203A200020207C2020CD
:10265000002D2D2D2D2D2D2D2D2D2D2D2D2D2D2DD7
:102660002D2D2D2D2D2D2D2D2D2D2D2D2D2D2D00C7
:1070000055C000006EC000006CC000006AC00000E7
:1070100068C0000066C0000064C0000062C00000DC
:1070200060C000005EC00000FCC400005AC0000048
:1070300058C0000056C0000054C0000052C00000FC
:1070400050C000005DC000004CC000004AC00000FD
:1070500048C0000046C0000044C0000042C000001C
:1070600040C000003EC000003CC000003AC000002C
:1070700038C0000036C0000034C0000032C000003C
:1070800030C000002EC000002CC000002AC000004C
:1070900028C0000026C0000024C0000022C000005C
:1070A00020C000001EC000001CC0000011241FBE34
:1070B000CFEFDAE0DEBFCDBF11E0A0E0B1E0E6E463
:1070C000FFE702C005900D92A63AB107D9F711E08B
:1070D000A6EAB1E001C01D92AF3BB107E1F74FD383
:1070E00030C78ECFF89410926F001092810081E02B
:1070F00085BF15BE47985D9A289A0C9400000895A4
:107100001F920F920FB60F9211242F938F939F937C
:10711000EF93FF9310928500109284008091A60156
:107120009091A701009741F001979093A701809358
:10713000A601892B09F45D9A8091A8019091A9017B
:10714000009741F001979093A9018093A801892BA2
:1071500009F4289A8091AC019091AD010196909329
:10716000AD018093AC01E0E0F0E0859194918F5FF8
:107170009F4F49F08091AA019091AB0101969093A5
:10718000AB018093AA01FF91EF919F918F912F9175
:107190000F900FBE0F901F90189584E08093E90028
:1071A0000DC08091E8008B778093E80003C08EB318
:1071B000882351F08091E80082FFF9CF8091E800A8
:1071C00085FFEFCF8091F1000895982F83E08093A1
:1071D000E9008091E80085FD0DC08091E8008E7780
:1071E0008093E80003C08EB3882369F08091E800A3
:1071F00080FFF9CF9093F1005D9884E690E0909342
:10720000A7018093A60108954F925F926F927F929B
:107210008F929F92AF92BF92CF92DF92EF92FF92A6
:107220000F931F93CF93DF9384E08093E9008091C5
:10723000E80082FF57C2289884E690E09093A90165
:107240008093A801AADF182F853481F48CE49DE196
:107250009093AB018093AA0107B600FCFDCFF9998A
:10726000FECF81E180935700E89503C0843519F47F
:1072700094DF8DE00DC28C34E1F38035D1F3843797
:1072800021F484E4A2DF80E003C2813611F489E5B1
:10729000FFC18134B1F481DF182F7FDF90E0880FC8
:1072A000991FAA2797FDA095BA2F312F330F20E001
:1072B000442737FD4095542F822B932BA42BB52BBD
:1072C000B8C1803711F483E5E3C1833549F4C0E0E8
:1072D000D1E089917ADF21E0C730D207D1F7D9C157
:1072E000863521F481E371DF80E3D2C1833731F445
:1072F00087E86BDF85E969DF8EE1CAC18536B9F4BD
:10730000E0E0F0E093E085E090935700E89507B661
:1073100000FCFDCF80935700E89507B600FCFDCF39
:10732000E058FF4FA0E7E030FA0771F7A2CF8237AD
:1073300039F4E1E0F0E089E0809357008491A8C13E
:10734000863439F4E0E0F0E089E0809357008491DE
:107350009FC18E3439F4E3E0F0E089E08093570078
:10736000849196C1813539F4E2E0F0E089E08093C0
:10737000570084918DC1823631F489E526DF80E0A3
:1073800024DF80E885C1823419F0873609F0E5C032
:107390001092AB011092AA0100DF082FFEDEF82E3A
:1073A000FCDE682E8554823008F071C1902F80E099
:1073B000CF2DD0E0C82BD92B10926F00173609F0D3
:1073C0004BC081E180935700E895DD24CC24C39421
:1073D0003FC0E090AF01F090B0010091B101109179
:1073E000B201B6E46B16D9F4ED2DF0E0EE29FF29D9
:1073F000E4918E2FEADEDD2081F082E090E0A0E0D3
:10740000B0E0E80EF91E0A1F1B1FE092AF01F092D8
:10741000B0010093B1011093B201DC2418C0D8016F
:10742000C701B695A7959795879575D5CEDE82E06D
:1074300090E0A0E0B0E0E80EF91E0A1F1B1FE092EA
:10744000AF01F092B0010093B1011093B201219706
:10745000209709F0BECF7DC08090AF019090B00121
:10746000A090B101B090B20196E4691609F05DC038
:1074700083E0F40180935700E89507B600FCFDCF48
:1074800054C0F6E46F1661F5772031F1E090AF015A
:10749000F090B0010091B1011091B2017EDED82EC2
:1074A000CC24852D90E08C299D29F7010C01409278
:1074B0005700E895112482E090E0A0E0B0E0E80EEB
:1074C000F91E0A1F1B1FE092AF01F092B00100935A
:1074D000B1011093B20102C060DE582E742423C0A3
:1074E000E090AF01F090B0010091B1011091B201B4
:1074F00016950795F794E79450DE682FC70113D5CA
:107500008091AF019091B001A091B101B091B20111
:107510000296A11DB11D8093AF019093B001A0937D
:10752000B101B093B201219704C0552477244424BB
:107530004394209709F0A5CF96E4691641F485E0BD
:10754000F40180935700E89507B600FCFDCF8DE06D
:107550003CDE82E080936F009CC0833471F4009124
:10756000AF011091B00119DE90E021E0F8010C01AB
:1075700020935700E89511247CCE833619F5E090CE
:10758000AF01F090B0010091B1011091B20105DEA0
:10759000F701E16090E021E00C0120935700E895AD
:1075A000112482E090E0A0E0B0E0E80EF91E0A1F8E
:1075B0001B1FE092AF01F092B0010093B101109354
:1075C000B20157CE8D3661F4E091AF01F091B00178
:1075D00085E080935700E89507B600FCFDCF49CEC3
:1075E000823551F4E091AF01F091B0010591149111
:1075F000812FEBDD802F4CC0843421F5E090AF016A
:10760000F090B0010091B1011091B201169507956B
:10761000F794E794C2DD682FC70185D48091AF014C
:107620009091B001A091B101B091B2010296A11D5B
:10763000B11D8093AF019093B001A093B101B093BD
:10764000B20117CE843609F5E090AF01F090B00199
:107650000091B1011091B201D801C701B695A7956B
:107660009795879558D4B1DD82E090E0A0E0B0E036
:10767000E80EF91E0A1F1B1FE092AF01F092B00145
:107680000093B1011093B20104C08B3111F08FE36C
:107690009CDD83E08093E9009091E8008091E80010
:1076A0008E778093E80095FF04C010C08EB38823C6
:1076B000C9F08091E80080FFF9CF8091E8008E77D3
:1076C0008093E80003C08EB3882361F08091E800C6
:1076D00080FFF9CF84E08093E9008091E8008B7708
:1076E0008093E800DF91CF911F910F91FF90EF9071
:1076F000DF90CF90BF90AF909F908F907F906F90D2
:107700005F904F9008959091B701892F8F778132C4
:1077100049F58091B8018032A1F0813219F5913A92
:1077200009F58091E800877F8093E8008CE091E084
:1077300067E070E027D28091E8008B778093E800C3
:107740000895913279F48091E800877F8093E80072
:107750008CE091E067E070E079D28091E8008E776C
:107760008093E800089582E061EC42E0D1D083E0AC
:1077700061E842E1CDD084E060E842E1C9C01F93F6
:10778000209100081092000844B714BE88E10FB69B
:10779000F89480936000109260000FBE80E8E0E0F3
:1077A000F0E00FB6F89480936100E09361000FBEA3
:1077B00031E035BF92E095BF3F9A209A559A809369
:1077C00061001092610047985D9A289A1092890092
:1077D0008AEF8093880090936F0083E0809381000C
:1077E000859194918F5F9F4F11F03093AE01942F4C
:1077F00041FF19C0809109012817A9F08093000862
:10780000789480911301882339F08091AC01909194
:10781000AD018F5E9240C8F310920008F89481E0A9
:10782000809313010CC090FF04C08091AE018823A7
:1078300051F493FF09C080910901281729F0809124
:10784000AE01882309F04EDCD4D078941092AB01BD
:107850001092AA011EEF20C0D7DC4BD38091AA0161
:107860009091AB0181549F4110F0109213018091CF
:10787000B3019091B40101969093B4018093B30148
:10788000292F97FF03C0512F591B252F220F28178F
:1078900010F4479801C0479A809113018823E1F6BC
:1078A0008091E00081608093E0001CDC80E090E04B
:1078B0001F910895FA01923049F0933061F09130B0
:1078C000F9F484E191E022E130E01EC086E291E02B
:1078D0002EE330E019C0882329F484E691E024E007
:1078E00030E012C0813029F488E691E022E230E0F5
:1078F0000BC0823029F48CE891E028E130E004C02C
:1079000080E090E020E030E091838083C901089519
:107910008093E9008091EB0081608093EB001092EE
:10792000ED006093EC004093ED008091EE00881F25
:107930008827881F08958091B70188238CF403C09D
:107940008EB38823B1F08091E80082FFF9CF809157
:10795000E8008B778093E80008958EB3882349F080
:107960008091E80080FFF9CF8091E8008E778093C6
:10797000E8000895EF92FF920F931F9345D04CD0EB
:1079800008ED10E0F80180818F7780838081806826
:10799000808380818F7D808319BC1EBA1092B501CF
:1079A00080EEE82EF12CF70180818B7F8083F80137
:1079B00080818160808380E060E042E0A9DFE1EEC9
:1079C000F0E080818E7F8083E2EEF0E08081816054
:1079D0008083808188608083F70180818E7F8083AF
:1079E000F8018081806180831F910F91FF90EF905B
:1079F0000895E7EDF0E08081816080838AE482BFB2
:107A000081E08093B601B6CFE8EDF0E080818E7F13
:107A100080831092E20008951092DA001092E10043
:107A200008951F920F920FB60F9211242F933F9338
:107A30004F935F936F937F938F939F93AF93BF9376
:107A4000EF93FF938091DA0080FF1BC08091D800F4
:107A500080FF17C08091DA008E7F8093DA008091DA
:107A6000D90080FF0BC080E189BD82E189BD09B4E6
:107A700000FEFDCF81E08EBB3BD203C019BC1EBA15
:107A800037D28091E10080FF17C08091E20080FF33
:107A900013C08091E2008E7F8093E2008091E2002B
:107AA00080618093E2008091D80080628093D8004A
:107AB00019BC85E08EBB1CD28091E10084FF2CC0F4
:107AC0008091E20084FF28C080E189BD82E189BD08
:107AD00009B400FEFDCF8091D8008F7D8093D8003F
:107AE0008091E1008F7E8093E1008091E2008F7EA3
:107AF0008093E2008091E20081608093E2008091B7
:107B0000B501882331F48091E30087FD02C081E054
:107B100001C084E08EBBECD18091E10083FF21C0E5
:107B20008091E20083FF1DC08091E100877F8093F8
:107B3000E10082E08EBB1092B5018091E1008E7F62
:107B40008093E1008091E2008E7F8093E20080913B
:107B5000E20080618093E20080E060E042E0D8DEF5
:107B6000C7D1FF91EF91BF91AF919F918F917F917D
:107B70006F915F914F913F912F910F900FBE0F909A
:107B80001F9018959C014091BD015091BE01461770
:107B9000570718F4F90190E044C06115710511F020
:107BA000AB01F8CF8091E8008E778093E80040E049
:107BB00050E0F0CF8EB3882309F444C0853009F437
:107BC00043C08091E80083FF02C081E00895809166
:107BD000E80082FD31C08091E80080FF22C08091E2
:107BE000F3009091F200782F60E0292F30E0262BEF
:107BF000372B07C081918093F100415050402F5F97
:107C00003F4F4115510519F02830310598F390E0A8
:107C10002830310509F491E08091E8008E77809357
:107C2000E8004115510531F6992321F605C08EB3C0
:107C3000882341F0853041F08091E80082FFF7CF42
:107C400080E0089582E0089583E008959C01611525
:107C5000710529F48091E8008B778093E800F901A1
:107C600026C08EB3882391F1853091F18091E80090
:107C700083FF02C081E008958091E80082FFF1CF88
:107C800006C08091F10081936150704059F02091BD
:107C9000F3008091F200322F20E090E0822B932BB2
:107CA000892B79F78091E8008B778093E800611544
:107CB0007105B9F605C08EB3882341F0853041F0D7
:107CC0008091E80080FFF7CF80E0089582E008957A
:107CD00083E008950F931F93DF93CF9300D0CDB728
:107CE000DEB7E7EBF1E08091F100819381E0EF3BBB
:107CF000F807C9F708DD8091E80083FFE4C08091B0
:107D0000B7019091B801953009F46DC0963040F4F8
:107D1000913081F1913070F0933009F0D4C02AC0D5
:107D2000983009F4A3C0993009F4B2C0963009F034
:107D3000CAC07CC0803809F4C6C0823809F0C3C00C
:107D40008091BB0187708093E9008091EB001092D5
:107D5000E9002091E800277F2093E80090E025E0EB
:107D6000969587952A95E1F781708093F10010929E
:107D7000F10087C0882319F0823009F0A4C08F7108
:107D8000823009F0A0C08091B901882331F520919B
:107D9000BB01277009F497C02093E9008091EB00A4
:107DA00080FF1BC0933021F48091EB00806213C0F0
:107DB0008091EB0080618093EB0081E090E002C055
:107DC000880F991F2A95E2F78093EA001092EA0043
:107DD0008091EB0088608093EB001092E900809125
:107DE000E800877F51C0882309F06DC01091B90168
:107DF0001F770FB7F8948091E800877F8093E800A1
:107E00009ADD8091E80080FFFCCF8091E3008078CC
:107E1000812B8093E30080688093E300112311F4A9
:107E200082E001C083E08EBB0FBF4DC0805882301E
:107E300008F049C08091B9019091BA016091BB01ED
:107E4000AE014F5F5F4F36DDBC01009709F43BC0C8
:107E50008091E800877F8093E80089819A8192DE93
:107E60008091E8008B778093E8002DC0803859F529
:107E70008091E800877F8093E8008091B50180932E
:107E8000F1008091E8008E778093E80054DD1BC0FC
:107E90008823C9F49091B9019230A8F48091E80048
:107EA000877F8093E8009093B50145DD8091B5010F
:107EB000882331F48091E30087FD02C081E001C096
:107EC00084E08EBB50DC8091E80083FF0AC0809183
:107ED000EB0080628093EB008091E800877F8093C5
:107EE000E8000F900F90CF91DF911F910F910895AF
:107EF00008951F938EB3882361F01091E9001092CA
:107F0000E9008091E80083FF01C0E4DE1770109360
:107F1000E9001F910895F999FECF92BD81BDF89AAD
:107F2000992780B50895262FF999FECF1FBA92BDE3
:107F300081BD20BD0FB6F894FA9AF99A0FBE01964A
:067F40000895F894FFCF44
:107F46004341544552494E41007700080000000065
:107F5600000008011201100102000008412341003F
:107F660001000201000109023E00020100803209FF
:107F7600040000010202010005240010010424028D
:107F8600040524060001070582030800FF09040111
:107F960000020A000000070504021000010705831D
:107FA6000210000104030904220341007200640068
:107FB600750069006E006F002000590075006E00A4
:107FC60020002000200020002000000018034100AF
:107FD60072006400750069006E006F0020004C009E
:067FE6004C004300000006
:040000030000700089
:00000001FF