:100000000C94E5000C940D010C940D010C940D0161
:100010000C940D010C940D010C940D010C940D0128
:100020000C940D010C940D010C9492070C94000992
:100030000C940D010C940D010C940D010C940D0108
:100040000C940D010C940D010C940D010C940D01F8
:100050000C940D010C940D010C940D010C94F403FF
:100060000C940D010C940D010C940D010C940D01D8
:100070000C940D010C940D010C940D010C940D01C8
:100080000C940D010C940D010C940D010C940D01B8
:100090000C943E040C940D010C940D010C940D0174
:1000A0000C940D010C940D010C940D01BD05C005BF
:1000B000AF05B305B705E105E105E105C405C805D0
:1000C000CC05D205D605E105DC05000000002400C2
:1000D00027002A002D003000000000002500280025
:1000E0002B002E0031000404040404030405020262
:1000F00002020403020202020606060606060404C1
:100100000202020404040802011040804010204052
:1001100080408008020401804020100201108010FD
:10012000204040200000000200090F0000030401ED
:10013000000C0000000000000000000000000000B3
:10014000000000080B000202020100090400000187
:10015000020200000524001001052401010104240D
:10016000020605240600010705810310004009046A
:100170000100020A00000007050202400000070516
:1001800083024000000403090441726475696E6FC4
:10019000204C4C430041726475696E6F204D696359
:1001A000726F0012010002000000404123378000FE
:1001B000010102030112010002EF02014041233755
:1001C00080000101020301008A0D11241FBECFEF40
:1001D000DAE0DEBFCDBF11E0A0E0B1E0E0EDF1E29A
:1001E00002C005900D92AE36B107D9F722E0AEE617
:1001F000B1E001C01D92AC3FB207E1F710E0C5EEDF
:10020000D0E004C02197FE010E94230EC43ED10716
:10021000C9F70E943D0B0C94E6100C940000CF939C
:10022000DF931F92CDB7DEB76983DC01ED91FC91BE
:100230000280F381E02D41E050E0BE016F5F7F4F0F
:1002400009950F90DF91CF91089583E08093E900A5
:100250008091F200882319F08AE38093E8000895E2
:10026000FC018485958597FD0BC09FB7F89482E0CB
:100270008093E9008091F2009FBF90E0019608957D
:100280009FB7F89482E08093E9008091F2009FBFCD
:1002900090E008953FB7F8948091DA019091DB01E6
:1002A000A091DC01B091DD0126B5A89B05C02F3FD0
:1002B00019F00196A11DB11D3FBFBA2FA92F982F8C
:1002C0008827820F911DA11DB11DBC01CD0142E007
:1002D000660F771F881F991F4A95D1F708958F924F
:1002E0009F92AF92BF92CF92DF92EF92FF926B01FB
:1002F0007C010E944A014B015C01C114D104E1045C
:10030000F104F1F00E944A01DC01CB01881999093E
:10031000AA09BB09883E9340A105B10570F321E00D
:10032000C21AD108E108F10888EE880E83E0981E11
:10033000A11CB11CC114D104E104F10419F7DDCFF3
:10034000FF90EF90DF90CF90BF90AF909F908F90F5
:1003500008958F929F92AF92BF92CF92DF92EF92C9
:10036000FF920F931F93CF93DF935C016B018A0180
:1003700080910B01882309F45EC0809107028823D5
:1003800009F459C08091040280FF05C08091E0000B
:1003900082608093E000E8018AEFF82E93E0E92E76
:1003A0002FE3822E3AE3932E209709F43DC08FB7B6
:1003B000F894E092E9009091E80095FF06C09091D2
:1003C000F200282D291B922F01C090E08FBF9111C0
:1003D0000AC0FA94FF2079F161E070E080E090E0DB
:1003E0000E946F01E1CF292F30E0C217D3070CF430
:1003F0009C2F8FB7F894E092E9002091E80025FF48
:1004000011C0292F30E0C21BD30BF601915020F010
:1004100041914093F100FACFC20ED31E9091E800B3
:1004200095FF13C08FBFC0CF5D9A84E6809305020D
:100430001016110644F081E090E0F5019383828369
:1004400080E090E005C0C80103C09092E800EACFC8
:10045000DF91CF911F910F91FF90EF90DF90CF90A0
:10046000BF90AF909F908F90089585ED8093BC00D2
:100470008091BC0084FDFCCF109250020895409101
:100480009001262F30E0240F311D21323105DCF49C
:10049000209150022430C9F4FC0180E090E08617DE
:1004A00058F4309190012191DC01A259BE4FA30F65
:1004B000B11D2C930196F3CF80919001680F60934A
:1004C000900180E0089581E0089582E00895089504
:1004D000E091540280915302E81730F4F0E0EB54BD
:1004E000FE4F808190E008958FEF9FEF08959091E7
:1004F000540280915302981750F4E92FF0E0EB5426
:10050000FE4F208130E09F5F9093540202C02FEF96
:100510003FEFC90108958091530290E02091540269
:10052000821B91090895CF92DF92EF92FF920F9371
:100530001F93CF93DF937C01262F972F8A01809101
:100540002C02882391F0C62FD72F6E01C40ED51E22
:10055000CC15DD0571F06991D701ED91FC91019009
:10056000F081E02DC7010995F3CF642F822F0E94FF
:100570003F02C801DF91CF911F910F91FF90EF9043
:10058000DF90CF900895CF93DF931F92CDB7DEB762
:10059000698320912C022223D1F020915102203234
:1005A00040F021E030E0FC013383228380E090E0E2
:1005B00015C080915202E82FF0E0E35DFD4F998174
:1005C00090838F5F809352028093510205C061E057
:1005D000CE0101960E943F0281E090E00F90DF91F2
:1005E000CF910895CF93DF931F92CDB7DEB7FC0173
:1005F0008485958597FD05C02FEF3FEF35872487CC
:100600000BC0CE0101960E949A06019719F48981C8
:1006100090E002C08FEF9FEF0F90DF91CF91089590
:100620000F931F93CF93DF931F92CDB7DEB78C014B
:10063000FC018485958597FF0EC0CE0101960E942E
:100640009A06019719F4298130E002C02FEF3FEF9D
:10065000F80135872487F801848595850F90DF910F
:10066000CF911F910F9108950E943410FF920F9324
:100670001F93CF93DF93643008F071C08C01FC01AD
:10068000F08081E080932C02F0924D021092520291
:100690001092510260E085EA92E00E94C30281E07C
:1006A0000E941406809150028111FCCF81E080935A
:1006B000500280934F029FEF90932B0210922A02D8
:1006C000809329028093080280910802FF0CF82A87
:1006D000F092080280914E02813061F410924E0235
:1006E000809108028093BB008091BC0083FDF8CF0D
:1006F00085EC01C085EE8093BC0080915002813072
:10070000E1F380912A02823018F480912A0201C01C
:1007100082E0A9E0B2E025EB31E0F9019E2F921BC7
:10072000981718F49D919193F9CF109254028093E9
:10073000530285EA92E00E947702F82E85EA92E061
:100740000E947702DF2DF0E0CF2FC82BCE01F801F9
:10075000028002C0969587950A94E2F702C080E075
:1007600090E0DF91CF911F910F91FF900895CF936B
:10077000DF93262F6430A8F5FC0163817481223059
:1007800051F0233059F0213019F06368716408C0CA
:100790006368716505C06368716602C063687167EC
:1007A000FC01EB01D068808191E090932C02809352
:1007B0004D02109252021092510261E085EA92E0DD
:1007C0000E94C3026D2F85EA92E00E94C3026C2F43
:1007D00085EA92E00E94C30281E0DF91CF910C9400
:1007E0001406DF91CF9108951F920F920FB60F92CA
:1007F00011242F933F938F939F93AF93BF93809137
:10080000D6019091D701A091D801B091D901309132
:10081000D50123E0230F2D3720F40196A11DB11D32
:1008200005C026E8230F0296A11DB11D2093D50116
:100830008093D6019093D701A093D801B093D901AA
:100840008091DA019091DB01A091DC01B091DD0192
:100850000196A11DB11D8093DA019093DB01A09355
:10086000DC01B093DD01BF91AF919F918F913F91DA
:100870002F910F900FBE0F901F9018951F920F92FF
:100880000FB60F9211242F933F934F935F936F9363
:100890007F938F939F93AF93BF93EF93FF93809139
:1008A000B900887F803609F49CC068F5883209F465
:1008B0005BC090F4803109F454C038F4882309F403
:1008C000F6C0883009F44DC0F6C0883109F44CC038
:1008D000803209F45DC0EFC0803409F468C048F488
:1008E000803309F455C0883309F0E5C080932B02AA
:1008F000D8C0803509F44FC0883509F45DC088340C
:1009000009F0D9C0D6C0883909F4C7C0A8F488371F
:1009100009F467C038F4883609F463C0803709F4F5
:1009200060C0C9C0883809F4B8C0803909F45FC014
:10093000803809F0C0C05BC0803B09F486C038F441
:10094000803A09F466C0883A09F47FC0B4C0803C9C
:1009500009F4A7C0883C09F4A4C0883B09F48AC004
:10096000AAC08091080210C090912A0280912902A9
:10097000981770F5E0912A0281E08E0F80932A0289
:10098000F0E0E75FFD4F80818093BB0085EC86C07F
:1009900080932B028EC0E0912A0281E08E0F80931B
:1009A0002A028091BB00F0E0E75FFD4F80839091C9
:1009B0002A02809129026EC0E0912A0281E08E0F06
:1009C00080932A028091BB00F0E0E75FFD4F8083B7
:1009D00080914F0281116DC081E080934E0284EAC4
:1009E00061C083E0809350021092B401CFCF809118
:1009F000B401803208F051C0E091B40181E08E0F63
:100A00008093B4018091BB00F0E0EC56FE4F8083F0
:100A1000BDCF85EC8093BC00109250028091B40150
:100A2000803230F4E091B401F0E0EC56FE4F1082D9
:100A30006091B40170E0E0919201F091930184E93A
:100A400091E009951092B40136C084E08093500281
:100A50001092910110929001E0918E01F0918F011E
:100A6000099580919001811105C081E080939001EA
:100A700010926E01E091910181E08E0F80939101BF
:100A8000F0E0E259FE4F80818093BB00909191018C
:100A900080919001981708F479CF85E88093BC0085
:100AA0000AC085EC8093BC001092500204C01092E2
:100AB0002B020E943502FF91EF91BF91AF919F9160
:100AC0008F917F916F915F914F913F912F910F90F7
:100AD0000FBE0F901F9018950F931F93CF93DF9326
:100AE000EC0188819981009729F02A813B812617A2
:100AF000370788F48B016F5F7F4F0E946A0F009762
:100B000061F0998388831B830A832C813D81232B89
:100B100011F4FC01108281E001C080E0DF91CF91EF
:100B20001F910F91089590E0FC01EC5DFE4F449100
:100B3000FC01EB5FFE4F2491FC01EA51FF4F8491D1
:100B4000882309F44CC04423E1F150E0FA013197C5
:100B5000EF30F105B0F5EA5AFF4F0C94230E909157
:100B600080009F7707C0909180009F7D03C0909187
:100B70008000977F9093800024C094B59F7702C037
:100B800094B59F7D94BD1DC0909190009F7707C044
:100B9000909190009F7D03C090919000977F9093DB
:100BA00090000FC09091C0009F7703C09091C0004B
:100BB0009F7D9093C00005C09091C200977F909355
:100BC000C200E82FF0E0EE0FFF1FE852FF4FA591A3
:100BD000B4918FB7F894EC912E2B2C938FBF08957E
:100BE000109254021092530210925202109251022B
:100BF0001092500281E080934F0210924E0282E0E8
:100C00000E94930583E00E949305E9EBF0E0808168
:100C10008E7F808380818D7F808388E48093B8007D
:100C200085E48093BC000895382F20915102909163
:100C30004D02213208F049C0809150028111FCCF51
:100C400042E04093500230934F023FEF30932B022B
:100C500010922A0220932902ADE2B2E049E052E06C
:100C6000FA013E2F341B321718F43D913193F9CF1E
:100C70001092080220910802990F922B909308027B
:100C800090914E02913061F410924E0290910802C0
:100C90009093BB009091BC0093FDF8CF95EC01C000
:100CA00095EE9093BC00909150029230E1F39091B8
:100CB0002B029F3F79F080912B02803241F080918E
:100CC0002B02803331F084E005C081E003C082E074
:100CD00001C083E0109252021092510210922C0235
:100CE0000895E0915502F09156020280F381E02DC3
:100CF00042E050E06AE671E085E592E00994CF9326
:100D0000DF93E0915502F0915602DC0114964D916B
:100D10005C9115976D917C910280F381E02D85E5C2
:100D200092E00995EC010E9471068C0F9D1FDF91E6
:100D3000CF910895FC0180910702811103C08FEFCC
:100D40009FEF08959FB7F89482E08093E900209187
:100D5000F20030E01216130614F421E030E0211501
:100D6000310559F0289A84E6809306028091F100BB
:100D700080838091F200882319F09FBFC9010895F4
:100D80008BE68093E800F9CF8091E90281110DC0D4
:100D900082E08093E50284E08093E6021092E8020C
:100DA0001092E70281E08093E90285EE92E00895D7
:100DB000CF93DF93EC0188819981009711F00E9415
:100DC000D20E198218821D821C821B821A82DF9128
:100DD000CF910895CF92DF92EF92FF920F931F93DE
:100DE000CF93DF93CDB7DEB728970FB6F894DEBF69
:100DF0000FBECDBF8C01CB014AE09E012F5F3F4F5C
:100E00006901B9010E944910F60101900020E9F73B
:100E10003197EC19FD09D8011496ED90FC901597C7
:100E20003097D9F0EE0EFF1EB701C8010E946C0585
:100E3000882381F0F8012081318184819581B60178
:100E4000820F931F0E944210D8011596FC92EE92D9
:100E5000149703C0C8010E94D806C80128960FB68F
:100E6000F894DEBF0FBECDBFDF91CF911F910F91E0
:100E7000FF90EF90DF90CF900895EF92FF920F9345
:100E80001F93CF93DF93EC017B0161157105F1F0A6
:100E9000FB0101900020E9F73197E61BF70B0C816D
:100EA0001D813097B1F00E0F1F1FB8010E946C0515
:100EB000882361F0288139818C819D81B701820F5F
:100EC000931F0E9442101D830C8303C0CE010E9419
:100ED000D806CE01DF91CF911F910F91FF90EF9037
:100EE0000895EF92FF920F931F93CF93DF93EC013E
:100EF0007B018A01BA010E946C05811104C0CE01F8
:100F00000E94D80607C01D830C83B7018881998190
:100F10000E944210CE01DF91CF911F910F91FF905F
:100F2000EF9008951F920F920FB60F9211248F9396
:100F30009F938091E1009091E100937F9093E10075
:100F400083FF0FC01092E90091E09093EB001092A4
:100F5000EC0092E39093ED001092070298E09093DA
:100F6000F00082FF20C093E09093E9009091F2009E
:100F7000992319F09AE39093E80090910502992340
:100F800039F090910502915090930502992389F1CF
:100F900090910602992339F0909106029150909316
:100FA0000602992341F184FF10C08091E2008E7EF9
:100FB00081608093E2008091E1008F7E8093E10068
:100FC000809104028E7E806111C080FF16C08091E6
:100FD000E2008E7E80618093E2008091E1008E7E4F
:100FE0008093E100809104028E7E816080930402F0
:100FF00004C05D98CDCF2898D6CF9F918F910F9048
:101000000FBE0F901F9018954091F6025091F70275
:101010002091F4023091F50242175307B4F49091F5
:10102000E8009570E1F39091E80092FD19C080937B
:10103000F1008091F6029091F70201968F73992743
:10104000892B19F48EEF8093E8008091F60290913D
:10105000F70201969093F7028093F60281E00895DB
:1010600080E00895CF92DF92EF92FF920F931F934B
:10107000CF93DF931F92CDB7DEB7182F062FE42E44
:10108000862F880F8E5F99830E94040883E00E9458
:101090000408F12EC12E9981D92E8C2D8F1980171D
:1010A00098F4F601E7FE02C0849101C080810E949D
:1010B0000408182F80E00E9404088123FFEFCF1A54
:1010C000DF0A8111EACF01C081E00F90DF91CF915B
:1010D0001F910F91FF90EF90DF90CF900895DF92D6
:1010E000EF92FF920F931F93CF93DF93D82E8A0135
:1010F0007B01E40EF51EEB01CE15DF0571F0D7FE86
:1011000003C0FE01849101C088810E9404082196D9
:101110008111F2CF8FEF9FEF01C0C801DF91CF9116
:101120001F910F91FF90EF90DF900895615030F084
:101130002091F100FC0120830196F8CF289A84E6E3
:10114000809306020895CF92DF92EF92FF920F9361
:101150001F93CF93DF936C017A018B01C0E0D0E045
:10116000CE15DF0589F0D8016D918D01D601ED9185
:10117000FC910190F081E02DC6010995892B11F4B5
:101180007E0102C02196ECCFC701DF91CF911F9164
:101190000F91FF90EF90DF90CF9008950F931F93E2
:1011A000CF93DF931F92CDB7DEB782E0898342E40D
:1011B00050E063E471E080E80E946F080E94C4067A
:1011C000DC0112960D911C9113970115110569F020
:1011D000D801ED91FC910280F381E02DBE016F5F9B
:1011E0007F4FC801099597FF07C089810F90DF9154
:1011F000CF911F910F910895F80100851185E5CFDA
:101200001F920F920FB60F921124CF92DF92EF929E
:10121000FF920F931F932F933F934F935F936F937F
:101220007F938F939F93AF93BF93EF93FF93CF934E
:10123000DF93CDB7DEB76C97DEBFCDBF1092E9006C
:101240008091E80083FFFAC168E0CE0145960E94D4
:10125000960882EF8093E8008D8987FF05C0909102
:10126000E80090FFFCCF03C09EEF9093E800982F1A
:10127000907609F0C6C09E892F89188D91110CC0F7
:10128000803829F48091F2028093F10002C010921C
:10129000F1001092F10047C1422F50E0512B9130E4
:1012A00051F4811140C14130510509F03CC1809198
:1012B000F2028D7F0BC0933061F4811134C1413053
:1012C000510509F030C18091F20282608093F202F0
:1012D0002AC1953041F48091E80080FFFCCF20685E
:1012E0002093E30020C1963009F05FC0EB8CFC8CAA
:1012F0001092E9001092F7021092F602123091F566
:101300001092F5021092F4020E94CE0899E0BE01FC
:101310006F5F7F4FDB01E92F1D92EA95E9F7998313
:101320001A8391E09E8390EA98879AEF998720919B
:10133000F6023091F702275F3F4F3C832B838D836A
:101340001092E9001092F7021092F602F092F50264
:10135000E092F40249E050E080E00E946F080E94B1
:10136000CE08E1C0F092F502E092F4020E94C406B9
:10137000DC011296ED90FC901397E114F10409F44E
:10138000C0C0D701ED91FC910480F581E02DBE0134
:101390006B5E7F4FC7010995009719F00CF0C3C031
:1013A000C6C0F701E084F184E8CF973009F4BFC0EC
:1013B000983021F481E08093F100B5C0993009F0B4
:1013C000B2C0837009F0B3C0E3E3F1E081E021E053
:1013D00036E39081992361F08093E9002093EB003C
:1013E00091919093EC003093ED008F5F873089F7F7
:1013F0008EE78093EA001092EA008F8980930702BB
:1014000092C08B8D9C8D1092E9001092F702109281
:10141000F6029093F5028093F402898D811156C0F3
:101420008E899D89913A59F4813209F080C047E054
:1014300050E064E071E080E00E946F0874C0913277
:1014400009F075C0833289F4888D90E0982F882741
:101450002F89822BA0E0B0E08093000190930101DE
:10146000A0930201B09303015EC0803269F48091C1
:10147000E80082FFFCCF67E084E091E00E949608DC
:101480008BEF8093E80006C0823209F04CC08F8950
:1014900080930B018091F102882319F0EEEFFAE0BE
:1014A00002C0E0E0F8E08091040190910501A09174
:1014B0000601B0910701803B9440A105B10509F0F8
:1014C00088C080910B0180FFA0C083C00E94C40629
:1014D000DC0112960D911C9113970115110539F13C
:1014E000D801ED91FC910190F081E02DBE016B5E81
:1014F0007F4FC8010995811116C0F801008511853B
:10150000ECCF1130C1F0133091F48F89882309F4A6
:1015100055C08230E9F440E86DE085E991E00E9431
:101520003208882321F08EEF8093E80087C081E2A3
:101530008093EB0083C08B8D9C8D089711F41093E2
:10154000F3028091F302811136C063EA71E038C082
:10155000813029F440E86BE089E891E0E0CF833006
:1015600031F70E94C406DC011296ED90FC901397AF
:101570008E010F5F1F4F6801E114F10479F0D7016C
:10158000ED91FC910680F781E02DB801C701099526
:10159000080F111DF701E084F184EECFD8011C92F1
:1015A000F60101900020E9F73197BF016C197D0920
:1015B00040E0C601B4CF65EB71E002C065E871E0C0
:1015C0006115710509F4B3CFFB01449150E080E847
:1015D00033CF0FB6F894A89580916000886180930E
:1015E0006000109260000FBEA895EE3F2AE0F2075F
:1015F00039F08091FE0A9091FF0A9183808393CF06
:101600001092FF0A1092FE0A8ECFEE3F8AE0F80792
:1016100031F0808191819093FF0A8093FE0A87E7E1
:1016200097E7918380839BE088E10FB6F894A895B3
:10163000809360000FBE9093600075CF6C960FB6DC
:10164000F894DEBF0FBECDBFDF91CF91FF91EF9138
:10165000BF91AF919F918F917F916F915F914F91CA
:101660003F912F911F910F91FF90EF90DF90CF90BE
:101670000F900FBE0F901F901895CF93DF93CDB7AB
:10168000DEB7A8970FB6F894DEBF0FBECDBF789433
:1016900084B5826084BD84B5816084BD85B5826077
:1016A00085BD85B5816085BD80916E008160809328
:1016B0006E00109281008091810082608093810091
:1016C00080918100816080938100809180008160A1
:1016D000809380008091910082608093910080913E
:1016E000910081608093910080919000816080934F
:1016F00090008091C10084608093C1008091C100FE
:1017000082608093C1008091C10081608093C1009C
:101710008091C30081608093C3008091C00082608B
:101720008093C0008091C20081608093C20080914C
:101730007A00846080937A0080917A00826080933E
:101740007A0080917A00816080937A0080917A009B
:10175000806880937A00109207021092F202109231
:1017600004028091D70081608093D70080EA809343
:10177000D80089B5806189BD89B5826089BD09B409
:1017800000FEFDCF61E070E080E090E00E946F011C
:101790008091D8008F7C80618093D8008091E00098
:1017A000807F8093E0008091E1008E7E8093E10055
:1017B0008DE08093E200559A209A5D982898EEEF8C
:1017C000FFE7859194918B3F9C4D19F481E08093C4
:1017D000F1028FEF9FEF909362028093610210916C
:1017E0000B016AE070E080E090E00E946F0111233D
:1017F000B1F305EC12E0D8018D919D919927FC0180
:10180000EB5FFE4F4491FC01EA51FF4F8491882326
:10181000A1F090E0880F991FFC01E653FF4F25913E
:101820003491FC01E852FF4F859194918FB7F89461
:10183000F9019081942B90838FBFF2E0A53EBF0702
:10184000D9F60E94F0050E94F0050E94F0050E9462
:10185000F0051092C4021092C3021092BF021092BF
:10186000BE021092BA021092B9021092B502109202
:10187000B402D8018C910E5F1F4F0E949305B2E015
:10188000053E1B07B1F764E670E080E090E00E943F
:101890006F018E010F5F1F4F3E01E1E26E0E711C62
:1018A0000E944A014B015C016093000270930102A7
:1018B000809302029093030280E2D8011D928A95E0
:1018C000E9F79AE0C92ED12C80EE482E81E0582EFF
:1018D0007201312C632D80EC92E00E94B703632DDE
:1018E0008BEB92E00E94B703632D86EB92E00E949F
:1018F000B703632D81EB92E00E94B7038BE891E080
:101900000197F1F7632D80EC92E00E943603F70116
:10191000819391937F01632D8BEB92E00E943603BC
:10192000D70117969C938E931697632D86EB92E0C2
:101930000E943603F70197878687632D81EB92E03B
:101940000E943603D70157969C938E9356973394F3
:10195000B4E03B12BFCF9801F801A0EEB1E08D9149
:101960009D9140815181840F951F81939193E6153C
:10197000F705A9F7E1E0CE1AD10809F0A5CFE0EE0E
:10198000F1E0D9018D919D919D016AE070E00E9486
:101990000F0E619371932615370599F70E944A013E
:1019A000DC01CB0188199909AA09BB0980930002BF
:1019B00090930102A0930202B0930302E12CF12C58
:1019C000F201C190D1902F011CA21BA21EA21DA248
:1019D00018A61FA247E050E069E371E0CE018396AC
:1019E0000E9471071A8219821C821B821E821D822C
:1019F0006BA17CA16115710529F04FA158A5C80103
:101A00000E947107B701C8010E94EA0661E471E013
:101A10000E943D07B6010E94EA060E947F06898166
:101A20009A810E94D20E8BA19CA10E94D20EFFEF40
:101A3000EF1AFF0A20E1E216F10411F6E090DE0150
:101A4000F090DF016091000270910102809102022A
:101A5000909103021CA21BA21EA21DA218A61FA2E7
:101A60002AE0A8010E945410F80101900020E9F733
:101A70003197AF01401B510BB801CE0183960E94F4
:101A800071071A8219821C821B821E821D826BA121
:101A90007CA16115710529F04FA158A5C8010E94CC
:101AA000710765E471E0C8010E943D07B7010E941B
:101AB000EA060E947F0689819A810E94D20E8BA13C
:101AC0009CA10E94D20EE0915502F0915602028034
:101AD000F381E02D4EE150E06BE471E085E592E0AA
:101AE00009950E9471068091DE019091DF010196B7
:101AF0009093DF018093DE0168EC70E080E090E07D
:101B00000E946F0180E090E0892B09F4C9CE0E9409
:101B10000000C6CEE5E5F2E01382128288EE93E083
:101B2000A0E0B0E084839583A683B78326E131E00B
:101B3000318320832FEF3FEF35872487E5EAF2E0FA
:101B40001382128284839583A683B78386E291E011
:101B500091838083E5ECF2E08BE090E091838083D9
:101B60008AE090E09383828389E090E09583848388
:101B700088E090E09783868387E090E09187808774
:101B800086E090E09387828785E090E09587848760
:101B900084E090E09787868783E190E0918B808B4B
:101BA00082E190E0938B828B8DE090E0958B848B2B
:101BB0008CE090E0978B868B87E190E0918F808F0F
:101BC00086E190E0938F828F85E190E0958F848FFE
:101BD00084E190E0978F868FE0ECF2E088E48083E8
:101BE00091E0918384E0828314821382EBEBF2E034
:101BF00029E420839183828314821382E6EBF2E04E
:101C00002AE420839183828314821382E1EBF2E041
:101C10002BE420839183828314821382089597FB9F
:101C2000072E16F4009407D077FD09D00E94290EE4
:101C300007FC05D03EF4909581959F4F08957095CF
:101C400061957F4F0895EE0FFF1F0590F491E02DF1
:101C50000994AA1BBB1B51E107C0AA1FBB1FA617F3
:101C6000B70710F0A61BB70B881F991F5A95A9F745
:101C700080959095BC01CD010895CF93DF9382307C
:101C8000910510F482E090E0E091FA02F091FB02FD
:101C900020E030E0C0E0D0E0309711F14081518188
:101CA00048175907C0F04817590761F4828193819A
:101CB000209719F09B838A832BC09093FB0280931B
:101CC000FA0226C02115310519F04217530718F4FE
:101CD0009A01BE01DF01EF010280F381E02DDCCF2C
:101CE0002115310509F1281B390B2430310590F4F9
:101CF00012968D919C9113976115710521F0FB014E
:101D00009383828304C09093FB028093FA02FD01C7
:101D1000329644C0FD01E20FF31F8193919322504C
:101D200031092D933C933AC02091F8023091F90289
:101D3000232B41F420910E0130910F013093F902D1
:101D40002093F80220910C0130910D0121153105ED
:101D500041F42DB73EB74091100150911101241B61
:101D6000350BE091F802F091F902E217F307A0F4C5
:101D70002E1B3F0B2817390778F0AC014E5F5F4FE1
:101D80002417350748F04E0F5F1F5093F902409318
:101D9000F8028193919302C0E0E0F0E0CF01DF917F
:101DA000CF9108950F931F93CF93DF93009709F47A
:101DB0008CC0FC013297138212820091FA021091BA
:101DC000FB020115110581F420813181820F931FDF
:101DD0002091F8023091F9022817390779F5F0932C
:101DE000F902E093F80271C0D80140E050E0AE176C
:101DF000BF0750F412962D913C911397AD01211518
:101E0000310509F1D901F3CF9D01DA013383228332
:101E100060817181860F971F8217930769F4EC0127
:101E200028813981260F371F2E5F3F4F3183208352
:101E30008A819B8193838283452B29F4F093FB0253
:101E4000E093FA0242C01396FC93EE931297ED01D1
:101E5000499159919E01240F351FE217F30771F440
:101E600080819181840F951F029611969C938E9389
:101E70008281938113969C938E931297E0E0F0E019
:101E8000D80112968D919C911397009719F0F80143
:101E90008C01F6CF8D919C9198012E5F3F4F820F60
:101EA000931F2091F8023091F9022817390769F43D
:101EB000309729F41092FB021092FA0202C01382AA
:101EC00012821093F9020093F802DF91CF911F91D3
:101ED0000F910895A0E0B0E0E0E7FFE00C94B310AC
:101EE000EC01009721F4CB010E943D0EB8C0FC012B
:101EF000E60FF71F9C0122503109E217F30708F49F
:101F0000ACC0D9010D911C91119706171707B0F0BD
:101F10000530110508F49FC0C8010497861797077C
:101F200008F499C002501109061B170B0193119375
:101F30006D937C93CF010E94D20E8DC05B01A01ADD
:101F4000B10A4C01800E911EA091FA02B091FB02E1
:101F500040E050E0E12CF12C109709F44AC0A8159C
:101F6000B905D1F56D907C901197630182E0C80EA0
:101F7000D11CCA14DB0480F1A3014A195B096A0170
:101F800082E0C80ED11C1296BC9012971396AC91A9
:101F9000B5E0CB16D10440F0B282A38351834083D5
:101FA000D9016D937C930AC00E5F1F4FC301800F50
:101FB000911FF90191838083EB2DFA2FE114F10435
:101FC00031F0D7011396FC93EE93129744C0F0932F
:101FD000FB02E093FA023FC08D919C911197481744
:101FE000590708F4AC017D0112960D90BC91A02D0B
:101FF000B3CF8091F8029091F90288159905E1F428
:1020000046175707C8F480910C0190910D01009775
:1020100041F48DB79EB74091100150911101841B7E
:10202000950BE817F907C8F4F093F902E093F8026A
:10203000F901718360830FC0CB010E943D0E7C01CA
:10204000009759F0A801BE010E943910CE010E94EC
:10205000D20EC70104C0CE0102C080E090E0CDB72F
:10206000DEB7EEE00C94CF1081E090E0F8940C9491
:10207000E610FB01DC0102C001900D92415050407E
:10208000D8F70895FB01DC0101900D920020E1F7E3
:102090000895BB274A3031F4992322F4BDE290958C
:1020A00081959F4F0C948610BB272A3051F49923B9
:1020B00042F4BDE290958095709561957F4F8F4F6A
:1020C0009F4F0C946410BB27FA01A62F621771056D
:1020D00081059105330B30FB66F0AA27660F771F49
:1020E000881F991FAA1FA21710F0A21B63953850D2
:1020F000A9F7A05DAA3308F0A95DA19336F7B11145
:10210000B1931082CA010C949F10BB27FB01552785
:10211000AA27880F991FAA1FA41710F0A41B839544
:102120005051B9F7A05DAA3308F0A95DA1930097BB
:1021300079F7B111B1931192CB010C949F10DC018E
:10214000FC01672F71917723E1F7329704C07C91EE
:102150006D9370836291AE17BF07C8F308952F92F5
:102160003F924F925F926F927F928F929F92AF9227
:10217000BF92CF92DF92EF92FF920F931F93CF9374
:10218000DF93CDB7DEB7CA1BDB0B0FB6F894DEBF0B
:102190000FBECDBF09942A88398848885F846E8431
:1021A0007D848C849B84AA84B984C884DF80EE807B
:1021B000FD800C811B81AA81B981CE0FD11D0FB684
:1021C000F894DEBF0FBECDBFED010895F894FFCFA8
:1021D000FFFFFFFF00E10000000000000000FC0224
:1021E0008000000000000F01A9013001F20210037D
:1021F000250100000000C30293028B0277026802EF
:10220000670200C1808100000053656E736F722009
:1022100000203A200020207C2020002D2D2D2D2D67
:102220002D2D2D2D2D2D2D2D2D2D2D2D2D2D2D2DDE
:0E2230002D2D2D2D2D2D2D2D2D000D0A0000F4
:00000001FF
