:100000000C94E5000C940D010C940D010C940D0161
:100010000C940D010C940D010C940D010C940D0128
:100020000C940D010C940D010C94DC080C944E09F9
:100030000C940D010C940D010C940D010C940D0108
:100040000C940D010C940D010C940D010C940D01F8
:100050000C940D010C940D010C940D010C94F403FF
:100060000C940D010C940D010C940D010C940D01D8
:100070000C940D010C940D010C940D010C940D01C8
:100080000C940D010C940D010C940D010C940D01B8
:100090000C943E040C940D010C940D010C940D0174
:1000A0000C940D010C940D010C940D01D505D8058F
:1000B000C705CB05CF05F905F905F905DC05E00510
:1000C000E405EA05EE05F905F4050000000024004A
:1000D00027002A002D003000000000002500280025
:1000E0002B002E0031000404040404030405020262
:1000F00002020403020202020606060606060404C1
:100100000202020404040802011040804010204052
:1001100080408008020401804020100201108010FD
:10012000204040200000000200090F0000030401ED
:10013000000C0000000000000000000000000000B3
:10014000000000080B000202020100090400000187
:10015000020200000524001001052401010104240D
:10016000020605240600010705810310004009046A
:100170000100020A00000007050202400000070516
:1001800083024000000403090441726475696E6FC4
:10019000204C4C430041726475696E6F204D696359
:1001A000726F0012010002000000404123378000FE
:1001B000010102030112010002EF02014041233755
:1001C0008000010102030100270E11241FBECFEFA2
:1001D000DAE0DEBFCDBF11E0A0E0B1E0EAEBF2E291
:1001E00002C005900D92A43EB107D9F723E0A4EE1A
:1001F000B1E001C01D92A237B207E1F710E0C5EEF1
:10020000D0E004C02197FE010E94AC0EC43ED1078D
:10021000C9F70E948B0B0C945B110C940000CF93D8
:10022000DF931F92CDB7DEB76983DC01ED91FC91BE
:100230000280F381E02D41E050E0BE016F5F7F4F0F
:1002400009950F90DF91CF91089583E08093E900A5
:100250008091F200882319F08AE38093E8000895E2
:10026000FC018485958597FD0BC09FB7F89482E0CB
:100270008093E9008091F2009FBF90E0019608957D
:100280009FB7F89482E08093E9008091F2009FBFCD
:1002900090E008953FB7F8948091500290915102F8
:1002A000A0915202B091530226B5A89B05C02F3FE2
:1002B00019F00196A11DB11D3FBFBA2FA92F982F8C
:1002C0008827820F911DA11DB11DBC01CD0142E007
:1002D000660F771F881F991F4A95D1F708958F924F
:1002E0009F92AF92BF92CF92DF92EF92FF926B01FB
:1002F0007C010E944A014B015C01C114D104E1045C
:10030000F104F1F00E944A01DC01CB01881999093E
:10031000AA09BB09883E9340A105B10570F321E00D
:10032000C21AD108E108F10888EE880E83E0981E11
:10033000A11CB11CC114D104E104F10419F7DDCFF3
:10034000FF90EF90DF90CF90BF90AF909F908F90F5
:1003500008958F929F92AF92BF92CF92DF92EF92C9
:10036000FF920F931F93CF93DF935C016B018A0180
:1003700080910B01882309F45EC080917D0288235F
:1003800009F459C08091670380FF05C08091E000A7
:1003900082608093E000E8018AEFF82E93E0E92E76
:1003A0002FE3822E3AE3932E209709F43DC08FB7B6
:1003B000F894E092E9009091E80095FF06C09091D2
:1003C000F200282D291B922F01C090E08FBF9111C0
:1003D0000AC0FA94FF2079F161E070E080E090E0DB
:1003E0000E946F01E1CF292F30E0C217D3070CF430
:1003F0009C2F8FB7F894E092E9002091E80025FF48
:1004000011C0292F30E0C21BD30BF601915020F010
:1004100041914093F100FACFC20ED31E9091E800B3
:1004200095FF13C08FBFC0CF5D9A84E680936803A9
:100430001016110644F081E090E0F5019383828369
:1004400080E090E005C0C80103C09092E800EACFC8
:10045000DF91CF911F910F91FF90EF90DF90CF90A0
:10046000BF90AF909F908F90089585ED8093BC00D2
:100470008091BC0084FDFCCF1092A40208954091AD
:100480000602262F30E0240F311D21323105DCF425
:100490002091A4022430C9F4FC0180E090E086178A
:1004A00058F4309106022191DC01AC51BE4FA30FEC
:1004B000B11D2C930196F3CF80910602680F6093D3
:1004C000060280E0089581E0089582E0089508958D
:1004D000E0917B0280917A02E81730F4F0E0E55D6C
:1004E000FD4F808190E008958FEF9FEF08959091E8
:1004F0007B0280917A02981750F4E92FF0E0E55DD5
:10050000FD4F208130E09F5F90937B0202C02FEF70
:100510003FEFC901089580917A0290E020917B021B
:10052000821B91090895CF92DF92EF92FF920F9371
:100530001F93CF93DF937C01262F972F8A01809101
:10054000A502882391F0C62FD72F6E01C40ED51EA9
:10055000CC15DD0571F06991D701ED91FC91019009
:10056000F081E02DC7010995F3CF642F822F0E94FF
:100570003F02C801DF91CF911F910F91FF90EF9043
:10058000DF90CF900895CF93DF931F92CDB7DEB762
:1005900069832091A5022223D1F02091C802203244
:1005A00040F021E030E0FC013383228380E090E0E2
:1005B00015C08091A602E82FF0E0E955FD4F998122
:1005C00090838F5F8093A6028093C80205C061E08C
:1005D000CE0101960E943F0281E090E00F90DF91F2
:1005E000CF9108950F931F93CF93DF931F92CDB7B1
:1005F000DEB78C01FC018485958597FF0EC0CE0186
:1006000001960E949006019719F4298130E002C0FA
:100610002FEF3FEFF80135872487F8018485958512
:100620000F90DF91CF911F910F910895CF93DF939A
:100630001F92CDB7DEB7FC018485958597FD05C077
:100640002FEF3FEF358724870BC0CE0101960E9424
:100650009006019719F4898190E002C08FEF9FEF17
:100660000F90DF91CF9108950E94A910FF920F93F0
:100670001F93CF93DF93643008F071C08C01FC01AD
:10068000F08081E08093A502F092C7021092A6024A
:100690001092C80260E089E193E00E94C30281E009
:1006A0000E9408068091A4028111FCCF81E0809312
:1006B000A4028093A3029FEF9093A2021092A10242
:1006C0008093A00280937F0280917F02FF0CF82A22
:1006D000F0927F0280917E02813061F410927E025E
:1006E00080917F028093BB008091BC0083FDF8CF96
:1006F00085EC01C085EE8093BC008091A40281301E
:10070000E1F38091A102823018F48091A10201C02E
:1007100082E0A0E8B2E02BE232E0F9019E2F921BCA
:10072000981718F49D919193F9CF10927B028093C2
:100730007A0289E193E00E947702F82E89E193E042
:100740000E947702DF2DF0E0CF2FC82BCE01F801F9
:10075000028002C0969587950A94E2F702C080E075
:1007600090E0DF91CF911F910F91FF900895CF936B
:10077000DF93262F6430A8F5FC0163817481223059
:1007800051F0233059F0213019F06368716408C0CA
:100790006368716505C06368716602C063687167EC
:1007A000FC01EB01D068808191E09093A5028093D9
:1007B000C7021092A6021092C80261E089E193E09C
:1007C0000E94C3026D2F89E193E00E94C3026C2F47
:1007D00089E193E00E94C30281E0DF91CF910C9404
:1007E0000806DF91CF9108951F920F920FB60F92D6
:1007F00011242F933F938F939F93AF93BF93809137
:100800004C0290914D02A0914E02B0914F02309156
:100810004B0223E0230F2D3720F40196A11DB11DBB
:1008200005C026E8230F0296A11DB11D20934B029F
:1008300080934C0290934D02A0934E02B0934F02CE
:100840008091500290915102A0915202B0915302B6
:100850000196A11DB11D8093500290935102A09367
:100860005202B0935302BF91AF919F918F913F91EC
:100870002F910F900FBE0F901F9018951F920F92FF
:100880000FB60F9211242F933F934F935F936F9363
:100890007F938F939F93AF93BF93EF93FF93809139
:1008A000B900887F803609F49CC068F5883209F465
:1008B0005BC090F4803109F454C038F4882309F403
:1008C000F6C0883009F44DC0F6C0883109F44CC038
:1008D000803209F45DC0EFC0803409F468C048F488
:1008E000803309F455C0883309F0E5C08093A20233
:1008F000D8C0803509F44FC0883509F45DC088340C
:1009000009F0D9C0D6C0883909F4C7C0A8F488371F
:1009100009F467C038F4883609F463C0803709F4F5
:1009200060C0C9C0883809F4B8C0803909F45FC014
:10093000803809F0C0C05BC0803B09F486C038F441
:10094000803A09F466C0883A09F47FC0B4C0803C9C
:1009500009F4A7C0883C09F4A4C0883B09F48AC004
:10096000AAC080917F0210C09091A1028091A00244
:10097000981770F5E091A10281E08E0F8093A1029B
:10098000F0E0E058FD4F80818093BB0085EC86C08D
:100990008093A2028EC0E091A10281E08E0F80932D
:1009A000A1028091BB00F0E0E058FD4F8083909160
:1009B000A1028091A0026EC0E091A10281E08E0FA1
:1009C0008093A1028091BB00F0E0E058FD4F80834E
:1009D0008091A30281116DC081E080937E0284EA40
:1009E00061C083E08093A40210922A02CFCF80914D
:1009F0002A02803208F051C0E0912A0281E08E0F75
:100A000080932A028091BB00F0E0E65FFD4F808377
:100A1000BDCF85EC8093BC001092A40280912A0285
:100A2000803230F4E0912A02F0E0E65FFD4F108260
:100A300060912A0270E0E0910802F09109028AE0D8
:100A400092E0099510922A0236C084E08093A402B5
:100A50001092070210920602E0910402F091050242
:100A6000099580910602811105C081E080930602FC
:100A70001092E401E091070281E08E0F809307025B
:100A8000F0E0EC51FE4F80818093BB009091070213
:100A900080910602981708F479CF85E88093BC000E
:100AA0000AC085EC8093BC001092A40204C010928E
:100AB000A2020E943502FF91EF91BF91AF919F91E9
:100AC0008F917F916F915F914F913F912F910F90F7
:100AD0000FBE0F901F901895BC01009791F0FC017C
:100AE00001900020E9F73197AF01481B590BE091C5
:100AF000C902F091CA020280F381E02D89EC92E0F4
:100B0000099480E090E008950F931F93CF93DF93B3
:100B1000EC0188819981009729F02A813B81261771
:100B2000370788F48B016F5F7F4F0E94DF0F0097BC
:100B300061F0998388831B830A832C813D81232B59
:100B400011F4FC01108281E001C080E0DF91CF91BF
:100B50001F910F91089590E0FC01EC5DFE4F4491D0
:100B6000FC01EB5FFE4F2491FC01EA51FF4F8491A1
:100B7000882309F44CC04423E1F150E0FA01319795
:100B8000EF30F105B0F5EA5AFF4F0C94AC0E90919E
:100B900080009F7707C0909180009F7D03C0909157
:100BA0008000977F9093800024C094B59F7702C007
:100BB00094B59F7D94BD1DC0909190009F7707C014
:100BC000909190009F7D03C090919000977F9093AB
:100BD00090000FC09091C0009F7703C09091C0001B
:100BE0009F7D9093C00005C09091C200977F909325
:100BF000C200E82FF0E0EE0FFF1FE852FF4FA59173
:100C0000B4918FB7F894EC912E2B2C938FBF08954D
:100C1000382F2091C8029091C702213208F049C0B4
:100C20008091A4028111FCCF42E04093A402309352
:100C3000A3023FEF3093A2021092A1022093A002E0
:100C4000A7EAB2E040E852E0FA013E2F341B321727
:100C500018F43D913193F9CF10927F0220917F02D9
:100C6000990F922B90937F0290917E02913061F4C4
:100C700010927E0290917F029093BB009091BC00F5
:100C800093FDF8CF95EC01C095EE9093BC00909148
:100C9000A4029230E1F39091A2029F3F79F08091FB
:100CA000A202803241F08091A202803331F084E0D0
:100CB00005C081E003C082E001C083E01092A6027B
:100CC0001092C8021092A5020895CF93DF930E945C
:100CD0006C05EC0180EE91E00E946C058C0F9D1F6D
:100CE000DF91CF910895CF93DF93E091C902F09106
:100CF000CA02DC0114964D915C9115976D917C911F
:100D00000280F381E02D89EC92E00995EC0180EE00
:100D100091E00E946C058C0F9D1FDF91CF9108958B
:100D2000FC0180917D02811103C08FEF9FEF089538
:100D30009FB7F89482E08093E9002091F20030E0C0
:100D40001216130614F421E030E02115310559F094
:100D5000289A84E680937C028091F10080838091C0
:100D6000F200882319F09FBFC90108958BE6809394
:100D7000E800F9CF10927B0210927A021092A6023C
:100D80001092C8021092A40281E08093A3021092F4
:100D90007E0282E00E94AB0583E00E94AB05E9EB96
:100DA000F0E080818E7F808380818D7F808388E4E6
:100DB0008093B80085E48093BC00089580915D0322
:100DC00081110DC082E08093590384E080935A031F
:100DD00010925C0310925B0381E080935D0389E5D0
:100DE00093E00895CF93DF93EC0188819981009778
:100DF00011F00E94470F198218821D821C821B82EB
:100E00001A82DF91CF910895CF92DF92EF92FF92F5
:100E10000F931F93CF93DF93CDB7DEB728970FB60D
:100E2000F894DEBF0FBECDBF8C01CB014AE09E011E
:100E30002F5F3F4F6901B9010E94BE10F60101907A
:100E40000020E9F73197EC19FD09D8011496ED90CF
:100E5000FC9015973097D9F0EE0EFF1EB701C80130
:100E60000E948405882381F0F801208131818481EA
:100E70009581B601820F931F0E94B710D801159675
:100E8000FC92EE92149703C0C8010E94F206C801BA
:100E900028960FB6F894DEBF0FBECDBFDF91CF917D
:100EA0001F910F91FF90EF90DF90CF900895EF92F8
:100EB000FF920F931F93CF93DF93EC017B0161159A
:100EC0007105F1F0FB0101900020E9F73197E61B75
:100ED000F70B0C811D813097B1F00E0F1F1FB80169
:100EE0000E948405882361F0288139818C819D814D
:100EF000B701820F931F0E94B7101D830C8303C09C
:100F0000CE010E94F206CE01DF91CF911F910F9189
:100F1000FF90EF900895EF92FF920F931F93CF935E
:100F2000DF93EC017B018A01BA010E9484058111E3
:100F300004C0CE010E94F20607C01D830C83B701D6
:100F4000888199810E94B710CE01DF91CF911F91C6
:100F50000F91FF90EF900895FC01808191810C9496
:100F6000470FFB01DC0111961C921E9213961C92F6
:100F70001E92129715961C921E9214978617970729
:100F800049F0608171816115710521F044815581BD
:100F90000C948B070895FC01118210821382128237
:100FA000158214826115710551F0FB01019000203A
:100FB000E9F73197AF01461B570B0C948B07089547
:100FC00040916C0350916D0320916A0330916B0343
:100FD00042175307B4F49091E8009570E1F39091B3
:100FE000E80092FD19C08093F10080916C0390910C
:100FF0006D0301968F739927892B19F48EEF8093D7
:10100000E80080916C0390916D03019690936D03BD
:1010100080936C0381E0089580E00895CF92DF9281
:10102000EF92FF920F931F93CF93DF931F92CDB751
:10103000DEB7182F062FE42E862F880F8E5F998338
:101040000E94E00783E00E94E007F12EC12E998103
:10105000D92E8C2D8F19801798F4F601E7FE02C067
:10106000849101C080810E94E007182F80E00E94D7
:10107000E0078123FFEFCF1ADF0A8111EACF01C019
:1010800081E00F90DF91CF911F910F91FF90EF9032
:10109000DF90CF900895DF92EF92FF920F931F930E
:1010A000CF93DF93D82E8A017B01E40EF51EEB016E
:1010B000CE15DF0571F0D7FE03C0FE01849101C09B
:1010C00088810E94E00721968111F2CF8FEF9FEF78
:1010D00001C0C801DF91CF911F910F91FF90EF9058
:1010E000DF900895615030F02091F100FC012083E1
:1010F0000196F8CF289A84E680937C020895CF92D7
:10110000DF92EF92FF920F931F93CF93DF936C01C7
:101110007A018B01C0E0D0E0CE15DF0589F0D8015F
:101120006D918D01D601ED91FC910190F081E02D42
:10113000C6010995892B11F47E0102C02196ECCFDE
:10114000C701DF91CF911F910F91FF90EF90DF903A
:10115000CF9008950F931F93CF93DF931F92CDB736
:10116000DEB782E0898342E450E063E471E080E826
:101170000E944B080E94DE06DC0112960D911C9124
:1011800013970115110569F0D801ED91FC910280CA
:10119000F381E02DBE016F5F7F4FC801099597FF76
:1011A00007C089810F90DF91CF911F910F91089512
:1011B000F80100851185E5CF1F920F920FB60F92AF
:1011C00011248F939F938091E1009091E100937F90
:1011D0009093E10083FF0FC01092E90091E090939B
:1011E000EB001092EC0092E39093ED0010927D02E0
:1011F00098E09093F00082FF20C093E09093E90084
:101200009091F200992319F09AE39093E80090915D
:101210006803992339F09091680391509093680383
:10122000992389F190917C02992339F090917C0265
:10123000915090937C02992341F184FF10C08091DA
:10124000E2008E7E81608093E2008091E1008F7EDB
:101250008093E100809167038E7E806111C080FFE2
:1012600016C08091E2008E7E80618093E2008091C2
:10127000E1008E7E8093E100809167038E7E816025
:101280008093670304C05D98CDCF2898D6CF9F91F7
:101290008F910F900FBE0F901F9018951F920F9275
:1012A0000FB60F921124CF92DF92EF92FF920F931D
:1012B0001F932F933F934F935F936F937F938F93DE
:1012C0009F93AF93BF93EF93FF93CF93DF93CDB7EC
:1012D000DEB76C97DEBFCDBF1092E9008091E800C9
:1012E00083FFFAC168E0CE0145960E94720882EF42
:1012F0008093E8008D8987FF05C09091E80090FFFA
:10130000FCCF03C09EEF9093E800982F907609F0F1
:10131000C6C09E892F89188D91110CC0803829F480
:10132000809166038093F10002C01092F100109248
:10133000F10047C1422F50E0512B913051F48111FF
:1013400040C14130510509F03CC1809166038D7F59
:101350000BC0933061F4811134C14130510509F063
:1013600030C1809166038260809366032AC1953004
:1013700041F48091E80080FFFCCF20682093E300D7
:1013800020C1963009F05FC0EB8CFC8C1092E90014
:1013900010926D0310926C03123091F510926B0352
:1013A00010926A030E94AA0899E0BE016F5F7F4F06
:1013B000DB01E92F1D92EA95E9F799831A8391E001
:1013C0009E8390EA98879AEF998720916C033091D9
:1013D0006D03275F3F4F3C832B838D831092E90081
:1013E00010926D0310926C03F0926B03E0926A030B
:1013F00049E050E080E00E944B080E94AA08E1C04A
:10140000F0926B03E0926A030E94DE06DC01129602
:10141000ED90FC901397E114F10409F4C0C0D701DA
:10142000ED91FC910480F581E02DBE016B5E7F4F54
:10143000C7010995009719F00CF0C3C0C6C0F701A9
:10144000E084F184E8CF973009F4BFC0983021F4EC
:1014500081E08093F100B5C0993009F0B2C083708B
:1014600009F0B3C0E3E3F1E081E021E036E39081ED
:10147000992361F08093E9002093EB009191909380
:10148000EC003093ED008F5F873089F78EE7809313
:10149000EA001092EA008F8980937D0292C08B8DC2
:1014A0009C8D1092E90010926D0310926C03909342
:1014B0006B0380936A03898D811156C08E899D8943
:1014C000913A59F4813209F080C047E050E064E07D
:1014D00071E080E00E944B0874C0913209F075C041
:1014E000833289F4888D90E0982F88272F89822B6A
:1014F000A0E0B0E08093000190930101A09302016D
:10150000B09303015EC0803269F48091E80082FFED
:10151000FCCF67E084E091E00E9472088BEF80933B
:10152000E80006C0823209F04CC08F8980930B011D
:1015300080916503882319F0EEEFFAE002C0E0E045
:10154000F8E08091040190910501A0910601B0910D
:101550000701803B9440A105B10509F088C0809146
:101560000B0180FFA0C083C00E94DE06DC01129642
:101570000D911C9113970115110539F1D801ED91C9
:10158000FC910190F081E02DBE016B5E7F4FC801A0
:101590000995811116C0F80100851185ECCF113035
:1015A000C1F0133091F48F89882309F455C082303B
:1015B000E9F440E86DE085E991E00E940E08882397
:1015C00021F08EEF8093E80087C081E28093EB00EA
:1015D00083C08B8D9C8D089711F4109369038091C3
:1015E0006903811136C063EA71E038C0813029F4A3
:1015F00040E86BE089E891E0E0CF833031F70E946A
:10160000DE06DC011296ED90FC9013978E010F5FC1
:101610001F4F6801E114F10479F0D701ED91FC91BD
:101620000680F781E02DB801C7010995080F111D4B
:10163000F701E084F184EECFD8011C92F60101900D
:101640000020E9F73197BF016C197D0940E0C60120
:10165000B4CF65EB71E002C065E871E0611571051A
:1016600009F4B3CFFB01449150E080E833CF0FB6CB
:10167000F894A89580916000886180936000109232
:1016800060000FBEA895EE3F2AE0F20739F0809186
:10169000FE0A9091FF0A9183808393CF1092FF0AF4
:1016A0001092FE0A8ECFEE3F8AE0F80731F080817B
:1016B00091819093FF0A8093FE0A87E797E79183D1
:1016C00080839BE088E10FB6F894A8958093600032
:1016D0000FBE9093600075CF6C960FB6F894DEBF86
:1016E0000FBECDBFDF91CF91FF91EF91BF91AF9131
:1016F0009F918F917F916F915F914F913F912F912A
:101700001F910F91FF90EF90DF90CF900F900FBE41
:101710000F901F901895CF93DF93CDB7DEB7A897A2
:101720000FB6F894DEBF0FBECDBF789484B582604B
:1017300084BD84B5816084BD85B5826085BD85B575
:10174000816085BD80916E00816080936E001092F3
:10175000810080918100826080938100809181006E
:1017600081608093810080918000816080938000FF
:1017700080919100826080939100809191008160BE
:10178000809391008091900081608093900080917F
:10179000C10084608093C1008091C1008260809309
:1017A000C1008091C10081608093C1008091C3001D
:1017B00081608093C3008091C00082608093C000EC
:1017C0008091C20081608093C20080917A00846021
:1017D00080937A0080917A00826080937A00809171
:1017E0007A00816080937A0080917A00806880938B
:1017F0007A0010927D021092660310926703809126
:10180000D70081608093D70080EA8093D80089B5A3
:10181000806189BD89B5826089BD09B400FEFDCFB4
:1018200061E070E080E090E00E946F018091D8005C
:101830008F7C80618093D8008091E000807F8093CE
:10184000E0008091E1008E7E8093E1008DE0809346
:10185000E200559A209A5D982898EEEFFFE785916F
:1018600094918B3F9C4D19F481E0809365038FEF39
:101870009FEF9093D6028093D50210910B016AE0FE
:1018800070E080E090E00E946F011123B1F389E3E2
:1018900091E00E94650667E571E0CE0183960E94A3
:1018A000CB07BE016D5D7F4F8E010F5F1F4FC801DB
:1018B0000E94B10769E470E0C8010E9404070E9419
:1018C0007306C8010E94AC07CE0183960E94AC0744
:1018D00065E671E0CE0183960E94CB07BE016D5D87
:1018E0007F4FC8010E94B10763E670E0C8010E9403
:1018F00004070E947306C8010E94AC07CE018396BC
:101900000E94AC0765E771E0CE0183960E94CB0789
:10191000BE016D5D7F4FC8010E94B10761E670E0B6
:10192000C8010E9404070E947306C8010E94AC0708
:10193000CE0183960E94AC0749E3E42E43E0F42EE7
:101940005701C12CD12CF501819191915F0199270B
:10195000FC01EB5FFE4F2491FC01EA51FF4F8491A3
:10196000882399F090E0880F991FFC01E653FF4F00
:10197000A591B491FC01E852FF4F859194918FB7E6
:10198000F894EC912E2B2C938FBF64E871E0CE017C
:1019900083960E94CB07BE016D5D7F4FC8010E94F8
:1019A000B107B601C8010E9404076CE871E00E940B
:1019B00057070E947306C8010E94AC07CE018396A8
:1019C0000E94AC07FFEFCF1ADF0A20E1C216D10454
:1019D00009F0B9CF0E94BA060E94BA060E94BA0660
:1019E0000E94BA0610923803109237031092330304
:1019F0001092320310922E0310922D03109229039D
:101A00001092280389EC92E00E943001892BD1F3D7
:101A100089EC92E00E941603893609F586E991E087
:101A20000E94650669E489EC92E00E940F0189EC4E
:101A300092E00E943001892BD1F389EC92E00E9460
:101A400016038F3629F489EA91E00E9465060EC0DC
:101A500061E070E080E090E00E946F01E8CF61E01B
:101A600070E080E090E00E946F01CCCFF7018081B0
:101A7000F2E0EF0EF11C0E94AB0529E5E21623E02F
:101A8000F206A1F764E670E080E090E00E946F014A
:101A90009BE8C92EDD24D39420E0A22E20E0B22EB4
:101AA0000E944A011B012C0186E5682E82E0782EF7
:101AB0004301F12C6F2D84E393E00E94B7036F2D57
:101AC0008FE293E00E94B7036F2D8AE293E00E94B9
:101AD000B7036F2D85E293E00E94B703C60101971B
:101AE000F1F76F2D84E393E00E943603F4018193B4
:101AF00091934F016F2D8FE293E00E943603F40122
:101B0000978386836F2D8AE293E00E943603F40167
:101B1000978786876F2D85E293E00E943603F40154
:101B2000978B868BF394F4E0FF12C4CF0E944A0196
:101B3000DC01CB0182199309A409B50980937602CF
:101B400090937702A0937802B0937902E12CF12C64
:101B5000F301819091903F0164E871E0CE0183969A
:101B60000E94CB07BE016D5D7F4FC8010E94B10787
:101B7000B701C8010E94040760E871E00E9457079E
:101B8000B4010E9404070E947306C8010E94AC07BA
:101B9000CE0183960E94AC07FFEFEF1AFF0A20E107
:101BA000E216F104A9F6E0905402F090550260911B
:101BB00076027091770280917802909179021CA24E
:101BC0001BA21EA21DA218A61FA22AE0A8010E9405
:101BD000C910F80101900020E9F73197AF01401BCF
:101BE000510BB801CE0183960E948B07BE016D5D3B
:101BF0007F4FC8010E94B1076BEB71E0C8010E94E2
:101C00005707B7010E9404070E947306C8010E948B
:101C1000AC07CE0183960E94AC0781EC91E00E9454
:101C20006506809154029091550201969093550259
:101C30008093540268EC70E080E090E00E946F01B5
:101C4000A114B10409F42CCF0E94000029CFE9ECC3
:101C5000F2E01382128288EE93E0A0E0B0E0848389
:101C60009583A683B78326E131E0318320832FEF6C
:101C70003FEF35872487E9E1F3E013821282848302
:101C80009583A683B78386E291E091838083E9E31D
:101C9000F3E08BE090E0918380838AE090E093838F
:101CA000828389E090E09583848388E090E0978345
:101CB000868387E090E09187808786E090E0938735
:101CC000828785E090E09587848784E090E097871D
:101CD000868783E190E0918B808B82E190E0938B0B
:101CE000828B8DE090E0958B848B8CE090E0978BDD
:101CF000868B87E190E0918F808F86E190E0938FD3
:101D0000828F85E190E0958F848F84E190E0978FBA
:101D1000868FE4E3F3E088E4808391E0918384E0BC
:101D2000828314821382EFE2F3E029E4208391831B
:101D3000828314821382EAE2F3E02AE4208391830F
:101D4000828314821382E5E2F3E02BE42083918303
:101D50008283148213820895EE0FFF1F0590F49181
:101D6000E02D0994CF93DF938230910510F482E047
:101D700090E0E0917003F091710320E030E0C0E06A
:101D8000D0E0309711F14081518148175907C0F0D8
:101D90004817590761F482819381209719F09B833A
:101DA0008A832BC0909371038093700326C0211502
:101DB000310519F04217530718F49A01BE01DF01EB
:101DC000EF010280F381E02DDCCF2115310509F10F
:101DD000281B390B2430310590F412968D919C917B
:101DE00013976115710521F0FB019383828304C071
:101DF0009093710380937003FD01329644C0FD01FE
:101E0000E20FF31F81939193225031092D933C935C
:101E10003AC020916E0330916F03232B41F420913F
:101E20000E0130910F0130936F0320936E032091C8
:101E30000C0130910D012115310541F42DB73EB74C
:101E40004091100150911101241B350BE0916E035C
:101E5000F0916F03E217F307A0F42E1B3F0B281736
:101E6000390778F0AC014E5F5F4F2417350748F013
:101E70004E0F5F1F50936F0340936E0381939193B6
:101E800002C0E0E0F0E0CF01DF91CF9108950F9321
:101E90001F93CF93DF93009709F48CC0FC01329716
:101EA00013821282009170031091710301151105C4
:101EB00081F420813181820F931F20916E03309134
:101EC0006F032817390779F5F0936F03E0936E03DA
:101ED00071C0D80140E050E0AE17BF0750F4129631
:101EE0002D913C911397AD012115310509F1D901CF
:101EF000F3CF9D01DA013383228360817181860FE4
:101F0000971F8217930769F4EC0128813981260F06
:101F1000371F2E5F3F4F318320838A819B819383BC
:101F20008283452B29F4F0937103E093700342C040
:101F30001396FC93EE931297ED01499159919E01EE
:101F4000240F351FE217F30771F480819181840F0C
:101F5000951F029611969C938E938281938113967E
:101F60009C938E931297E0E0F0E0D80112968D9149
:101F70009C911397009719F0F8018C01F6CF8D9181
:101F80009C9198012E5F3F4F820F931F20916E030B
:101F900030916F032817390769F4309729F41092AC
:101FA00071031092700302C01382128210936F03A8
:101FB00000936E03DF91CF911F910F910895A0E0E0
:101FC000B0E0E5EEFFE00C942811EC01009721F45D
:101FD000CB010E94B20EB8C0FC01E60FF71F9C01B6
:101FE00022503109E217F30708F4ACC0D9010D9172
:101FF0001C91119706171707B0F00530110508F46A
:102000009FC0C80104978617970708F499C002502B
:102010001109061B170B019311936D937C93CF014C
:102020000E94470F8DC05B01A01AB10A4C01800EBF
:10203000911EA0917003B091710340E050E0E12C3B
:10204000F12C109709F44AC0A815B905D1F56D9087
:102050007C901197630182E0C80ED11CCA14DB0486
:1020600080F1A3014A195B096A0182E0C80ED11C04
:102070001296BC9012971396AC91B5E0CB16D10492
:1020800040F0B282A38351834083D9016D937C9346
:102090000AC00E5F1F4FC301800F911FF90191838A
:1020A0008083EB2DFA2FE114F10431F0D701139660
:1020B000FC93EE93129744C0F0937103E093700386
:1020C0003FC08D919C9111974817590708F4AC01B6
:1020D0007D0112960D90BC91A02DB3CF80916E031F
:1020E00090916F0388159905E1F446175707C8F4D6
:1020F00080910C0190910D01009741F48DB79EB72E
:102100004091100150911101841B950BE817F907BC
:10211000C8F4F0936F03E0936E03F9017183608359
:102120000FC0CB010E94B20E7C01009759F0A801AC
:10213000BE010E94AE10CE010E94470FC70104C02D
:10214000CE0102C080E090E0CDB7DEB7EEE00C94A7
:10215000441181E090E0F8940C945B11FB01DC01E8
:1021600002C001900D9241505040D8F70895FB01F4
:10217000DC0101900D920020E1F70895BB274A3061
:1021800031F4992322F4BDE2909581959F4F0C94F0
:10219000FB10BB272A3051F4992342F4BDE29095FD
:1021A0008095709561957F4F8F4F9F4F0C94D910FC
:1021B000BB27FA01A62F6217710581059105330B24
:1021C00030FB66F0AA27660F771F881F991FAA1F8A
:1021D000A21710F0A21B63953850A9F7A05DAA338F
:1021E00008F0A95DA19336F7B111B1931082CA012D
:1021F0000C941411BB27FB015527AA27880F991FA0
:10220000AA1FA41710F0A41B83955051B9F7A05D25
:10221000AA3308F0A95DA193009779F7B111B193A2
:102220001192CB010C941411DC01FC01672F719108
:102230007723E1F7329704C07C916D9370836291AC
:10224000AE17BF07C8F308952F923F924F925F9247
:102250006F927F928F929F92AF92BF92CF92DF92B6
:10226000EF92FF920F931F93CF93DF93CDB7DEB71B
:10227000CA1BDB0B0FB6F894DEBF0FBECDBF0994AF
:102280002A88398848885F846E847D848C849B8406
:10229000AA84B984C884DF80EE80FD800C811B8114
:1022A000AA81B981CE0FD11D0FB6F894DEBF0FBE43
:0A22B000CDBFED010895F894FFCFB3
:1022BA00FFFFFFFF00E100000000000000007203C2
:1022CA008000000000000F01A90130011603F2028C
:1022DA00250100000000C30293028B027702680204
:1022EA00670200C1808100000053657269616C2039
:1022FA00436F6E6E656374696F6E20657374616295
:10230A006C6973686564006964656E746966696599
:10231A0072203A200063616C6C204D6573736167AB
:10232A0065203A200061736B204D657373616765A0
:10233A00203A200053656E736F7220002D3E204FA5
:10234A005554505554006964656E745F61736B200F
:10235A007265636569766564006964656E745F6F4A
:10236A006B2072656365697665640020207C202095
:10237A00002D2D2D2D2D2D2D2D2D2D2D2D2D2D2DB0
:10238A002D2D2D2D2D2D2D2D2D2D2D2D2D2D2D00A0
:04239A000D0A000028
:00000001FF
